:020000040000fa
:080000000002040000000000f2
:020000040000fa
:04000800a80200004a
:020000040000fa
:04000c00a802000046
:020000040000fa
:04001000a802000042
:020000040000fa
:04001400a80200003e
:020000040000fa
:04001800a80200003a
:020000040000fa
:04001c00a802000036
:020000040000fa
:04002000a802000032
:020000040000fa
:04002400a80200002e
:020000040000fa
:04002800a80200002a
:020000040000fa
:04002c00a802000026
:020000040000fa
:04003000a802000022
:020000040000fa
:04003400020b0000bb
:020000040000fa
:04003800a80200001a
:020000040000fa
:04003c00a802000016
:020000040000fa
:04004000a802000012
:020000040000fa
:04004400a80200000e
:020000040000fa
:04004800a80200000a
:020000040000fa
:04004c00a802000006
:020000040000fa
:04005000a802000002
:020000040000fa
:04005400a8020000fe
:020000040000fa
:04005800a8020000fa
:020000040000fa
:04005c00a8020000f6
:020000040000fa
:04006000a8020000f2
:020000040000fa
:04006400a8020000ee
:020000040000fa
:04006800a8020000ea
:020000040000fa
:04006c00a8020000e6
:020000040000fa
:04007000a8020000e2
:020000040000fa
:040074002c0b000051
:020000040000fa
:04007800a8020000da
:020000040000fa
:04007c00a8020000d6
:020000040000fa
:04008000a8020000d2
:020000040000fa
:04008400a8020000ce
:020000040000fa
:04008800a8020000ca
:020000040000fa
:04008c00a8020000c6
:020000040000fa
:04009000a8020000c2
:020000040000fa
:04009400a8020000be
:020000040000fa
:04009800a8020000ba
:020000040000fa
:04009c00a8020000b6
:020000040000fa
:0400a000a8020000b2
:020000040000fa
:0400a400a8020000ae
:020000040000fa
:0400a800a8020000aa
:020000040000fa
:0400ac00a8020000a6
:020000040000fa
:0400b000a8020000a2
:020000040000fa
:0400b400a80200009e
:020000040000fa
:0400b800a80200009a
:020000040000fa
:0400bc00a802000096
:020000040000fa
:0400c000a802000092
:020000040000fa
:0400c400a80200008e
:020000040000fa
:0400c800a80200008a
:020000040000fa
:0400cc00a802000086
:020000040000fa
:0400d000a802000082
:020000040000fa
:0400d400a80200007e
:020000040000fa
:0400d800a80200007a
:020000040000fa
:0400dc00a802000076
:020000040000fa
:0400e000a802000072
:020000040000fa
:0400e400a80200006e
:020000040000fa
:0400e800a80200006a
:020000040000fa
:0400ec00a802000066
:020000040000fa
:0400f000a802000062
:020000040000fa
:0400f400a80200005e
:020000040000fa
:0400f800a80200005a
:020000040000fa
:0400fc00a802000056
:020000040000fa
:04010000a802000051
:020000040000fa
:04010400a80200004d
:020000040000fa
:04010800a802000049
:020000040000fa
:04010c00a802000045
:020000040000fa
:04011000a802000041
:020000040000fa
:04011400a80200003d
:020000040000fa
:04011800a802000039
:020000040000fa
:04011c00a802000035
:020000040000fa
:04012000c80b000008
:020000040000fa
:04012400a80200002d
:020000040000fa
:04012800a802000029
:020000040000fa
:04012c00a802000025
:020000040000fa
:04013000a802000021
:020000040000fa
:04013400a80200001d
:020000040000fa
:04013800a802000019
:020000040000fa
:04013c00a802000015
:020000040000fa
:04014000a802000011
:020000040000fa
:04014400a80200000d
:020000040000fa
:04014800a802000009
:020000040000fa
:04014c00a802000005
:020000040000fa
:04015000a802000001
:020000040000fa
:04015400a8020000fd
:020000040000fa
:04015800a8020000f9
:020000040000fa
:04015c00a8020000f5
:020000040000fa
:04016000a8020000f1
:020000040000fa
:04016400a8020000ed
:020000040000fa
:04016800a8020000e9
:020000040000fa
:04016c00a8020000e5
:020000040000fa
:04017000a8020000e1
:020000040000fa
:04017400a8020000dd
:020000040000fa
:04017800a8020000d9
:020000040000fa
:04017c00a8020000d5
:020000040000fa
:04018000a8020000d1
:020000040000fa
:04018400a8020000cd
:020000040000fa
:04018800a8020000c9
:020000040000fa
:04018c00a8020000c5
:020000040000fa
:04019000a8020000c1
:020000040000fa
:04019400a8020000bd
:020000040000fa
:04019800a8020000b9
:020000040000fa
:04019c00a8020000b5
:020000040000fa
:04020800a802000048
:020000040000fa
:04020c00a802000044
:020000040000fa
:04021000a802000040
:020000040000fa
:04021400a80200003c
:020000040000fa
:04021800a802000038
:020000040000fa
:04021c00a802000034
:020000040000fa
:04022000a802000030
:020000040000fa
:04022400a80200002c
:020000040000fa
:04022800a802000028
:020000040000fa
:04022c00a802000024
:020000040000fa
:04023000a802000020
:020000040000fa
:04023400a80200001c
:020000040000fa
:04023800a802000018
:020000040000fa
:04023c00a802000014
:020000040000fa
:04024000a802000010
:020000040000fa
:04024400a80200000c
:020000040000fa
:04024800a802000008
:020000040000fa
:04024c00a802000004
:020000040000fa
:04025000a802000000
:020000040000fa
:04025400a8020000fc
:020000040000fa
:04025800a8020000f8
:020000040000fa
:04025c00a8020000f4
:020000040000fa
:04026000a8020000f0
:020000040000fa
:04026400a8020000ec
:020000040000fa
:04026800a8020000e8
:020000040000fa
:04026c00a8020000e4
:020000040000fa
:04027000a8020000e0
:020000040000fa
:04027400a8020000dc
:020000040000fa
:04027800a8020000d8
:020000040000fa
:04027c00a8020000d4
:020000040000fa
:04028000a8020000d0
:020000040000fa
:04028400a8020000cc
:020000040000fa
:04028800a8020000c8
:020000040000fa
:04028c00a8020000c4
:020000040000fa
:04029000a8020000c0
:020000040000fa
:04029400a8020000bc
:020000040000fa
:04029800a8020000b8
:020000040000fa
:04029c00a8020000b4
:020000040000fa
:0402a000a8020000b0
:020000040000fa
:0402a400a8020000ac
:020000040000fa
:0402a800a8020000a8
:020000040000fa
:0402ac00a8020000a4
:020000040000fa
:0402b000a8020000a0
:020000040000fa
:0402b400a80200009c
:020000040000fa
:0402b800a802000098
:020000040000fa
:0402bc00a802000094
:020000040000fa
:0402c000a802000090
:020000040000fa
:0402c400a80200008c
:020000040000fa
:0402c800a802000088
:020000040000fa
:0402cc00a802000084
:020000040000fa
:0402d000a802000080
:020000040000fa
:0402d400a80200007c
:020000040000fa
:0402d800a802000078
:020000040000fa
:0402dc00a802000074
:020000040000fa
:0402e000a802000070
:020000040000fa
:0402e400a80200006c
:020000040000fa
:0402e800a802000068
:020000040000fa
:0402ec00a802000064
:020000040000fa
:0402f000a802000060
:020000040000fa
:0402f400a80200005c
:020000040000fa
:0402f800a802000058
:020000040000fa
:0402fc00a802000054
:020000040000fa
:04030000a80200004f
:020000040000fa
:04030400a80200004b
:020000040000fa
:04030800a802000047
:020000040000fa
:04030c00a802000043
:020000040000fa
:04031000a80200003f
:020000040000fa
:04031400a80200003b
:020000040000fa
:04031800a802000037
:020000040000fa
:04031c00a802000033
:020000040000fa
:04032000a80200002f
:020000040000fa
:04032400a80200002b
:020000040000fa
:04032800a802000027
:020000040000fa
:04032c00a802000023
:020000040000fa
:04033000a80200001f
:020000040000fa
:04033400a80200001b
:020000040000fa
:04033800a802000017
:020000040000fa
:04033c00a802000013
:020000040000fa
:04034000a80200000f
:020000040000fa
:04034400a80200000b
:020000040000fa
:04034800a802000007
:020000040000fa
:04034c00a802000003
:020000040000fa
:04035000a8020000ff
:020000040000fa
:04035400a8020000fb
:020000040000fa
:04035800a8020000f7
:020000040000fa
:04035c00a8020000f3
:020000040000fa
:04036000a8020000ef
:020000040000fa
:04036400a8020000eb
:020000040000fa
:04036800a8020000e7
:020000040000fa
:04036c00a8020000e3
:020000040000fa
:04037000a8020000df
:020000040000fa
:04037400a8020000db
:020000040000fa
:04037800a8020000d7
:020000040000fa
:04037c00a8020000d3
:020000040000fa
:04038000a8020000cf
:020000040000fa
:04038400a8020000cb
:020000040000fa
:04038800a8020000c7
:020000040000fa
:04038c00a8020000c3
:020000040000fa
:04039000a8020000bf
:020000040000fa
:04039400a8020000bb
:020000040000fa
:04039800a8020000b7
:020000040000fa
:04039c00a8020000b3
:020000040000fa
:100400008f9f20000e7f24000e0188000000000056
:10041000000020000000e000020032000001200087
:10042000200288000c00070020cd210001002000e0
:1004300011000700000020000000e0000200320070
:1004400000000200000000000a1c02000000000082
:100450000040da000000fe004440a9000011200026
:100460000000e0000300320000002000a00188002e
:100470004440a80000000600910188008000780038
:100480000000eb0015003700e280400032a0b4000d
:100490009101ba00e280400032a0b4009102ba009b
:1004a000e280400032a0b4000002eb00472bde00e7
:1004b000f507b200602ce10004003a000059eb009f
:1004c0008301e900fdff3e00040037006128e100e0
:1004d000010032000082eb000b00070011c3ba00dc
:1004e0001101ba000604e00003003a000200e00037
:1004f000e5ff3a0000000600f607b200960188000a
:1005000082007800f5ff37003159ba008301e90015
:100510000c0032002159ba008301e90008003200c2
:100520000400e00003003a00e280400032a0b40082
:10053000f5ff370011d9ba008301e900faff3a004c
:100540008100e800e180400032a0b4000000060015
:100550000040da000000fe006022b8000602200021
:100560000000d0008180d2000482d2008582d200b7
:100570000000a0000202520083825a0003003100f2
:100580000202420083824a000000a1000603e90043
:10059000f3ff3a0000000600efff07000400be0072
:1005a000000006008000eb00a04f8800b14f8800db
:1005b00011c0b300209f2000014878000000060011
:1005c000209f20001004e00002003a0010002000ec
:1005d000f4ff0700d2e62400631c2400a04f800033
:1005e000b14f8000090007009203230003002000a0
:1005f0000001410081814900a24f8800b34f88006b
:100600000300780000f0a10000000600020ab90013
:10061000001bb9000200b8008100420081004300c5
:0406200000000600d0
:020000040000fa
:10062400637c0000777b0000f26b00006fc5000064
:1006340030010000672b0000fed70000ab760000fd
:10064400ca820000c97d0000fa59000047f000008a
:10065400add40000a2af00009ca4000072c0000052
:10066400b7fd000093260000363f0000f7cc0000e1
:1006740034a50000e5f1000071d800003115000038
:1006840004c7000023c3000018960000059a000068
:100694000712000080e20000eb270000b2750000a2
:1006a400098300002c1a00001b6e00005aa00000f1
:1006b400523b0000d6b3000029e300002f84000061
:1006c40053d1000000ed000020fc0000b15b0000ed
:1006d4006acb0000be3900004a4c000058cf00002d
:1006e400d0ef0000aafb0000434d0000338500005a
:1006f40045f90000027f0000503c00009fa8000064
:1007040051a30000408f0000929d000038f50000c6
:10071400bcb60000da21000010ff0000f3d2000094
:10072400cd0c000013ec00005f970000441700009c
:10073400c4a700007e3d0000645d00001973000042
:10074400608100004fdc0000222a00009088000035
:1007540046ee0000b8140000de5e00000bdb000073
:10076400e03200003a0a000049060000245c000060
:10077400c2d30000ac62000091950000e47900004f
:10078400e7c80000376d00008dd500004ea90000b9
:100794006c560000f4ea0000657a0000ae08000020
:1007a400ba780000252e00001ca60000b4c6000084
:1007b400e8dd0000741f00004bbd00008b8a0000c0
:1007c400703e0000b566000048030000f60e00000d
:1007d4006135000057b9000086c100001d9e00006d
:1007e400e1f800009811000069d900008e9400001f
:1007f4009b1e000087e90000ce55000028df0000a2
:100804008ca10000890d0000bfe6000042680000d2
:10081400419900002d0f0000b0540000bb160000e9
:100824000f15000071c9000047d90000e859000005
:100834000cb70000add60000af7f00006798000041
:020000040000fa
:100844000000fa00100280004500de0067406000ee
:100854000080fb0000408800100280000050a000cf
:100864000060a0000070a0001002880000000000da
:100874000080fa00000006000000fa00004080003a
:1008840000407800674060000080fb006700600063
:100894004500dd0012028000f1f12f0081006100ab
:1008a4000100700010028800000000000080fa00bf
:1008b400000006000000fa0042a2a8001012800006
:1008c4000020a0000030a0000040a000101288000a
:1008d400101280000000a1000010a1001012880076
:1008e4004302a8004322a80042c2a90040c2a900b2
:1008f40041e2a8008540a9000080fa00000006003b
:100904000200fa00004f78008540a9001e80fb0019
:1009140040128800000000002104800000402000f4
:10092400008060000000e000fbff32008540a90069
:1009340040128000004078000080fa0000000600a9
:100944000000fa004822ef000000000021048000ab
:1009540000402000008060000000e000fbff320047
:100964008540a90040128000004078000080fa0011
:10097400000006000000fa000500fc0050052000fd
:10098400303b8800a00a2000303b880027a6a8003e
:100994000080fa00000006000800fa00004f78000a
:1009a400114798002247980033479800444798001d
:1009b4005547980066479800a13b8000f0df2f0060
:1009c40000806000a03b8800eaff070027e6a9003a
:1009d400303180000080a0000090a00030318800f9
:1009e4001e80fb00203188001e4090000080fb0028
:1009f400c800dd002e4090000080fb000100700064
:100a0400203188003e4090000080fb00c800dd00db
:100a14004e4090000080fb000100700020318800ef
:100a24005e4090000080fb00c800dd006e40900036
:100a34000080fb00010070002031880027e6a80038
:100a440027a6a9001031800000a0a00000b0a100da
:100a540000c0a10000d0a1001031880023e6a80046
:100a64008bc0a9009bc0a8000080fa00000006000b
:100a74000000fa00e042a900e442a9000001eb00f2
:100a84006004200071052000237420008049780050
:100a940081497800824978004135800000fc2f00ac
:100aa400008060006001b30040358800c1368000da
:100ab400f00f2c00808060000070200001007000a6
:100ac400c0368800a136800000fc2f000080600042
:100ad4000030a000a036880022042000600420001a
:100ae4007105200023742000804978008149780032
:100af40082497800f0fb2f006019880041168000bd
:100b0400000720000080600040168800c1168000a5
:100b1400800f2f0000806000c016880041178000fd
:100b240030f82f0000806000401788008117800093
:100b340030c72f0000806000801788006116800095
:100b4400000720000080600060168800e116800025
:100b5400800f2f0000806000e0168800611780007d
:100b640030f82f000080600060178800a117800013
:100b740030c72f0000806000a0178800e0a2a90001
:100b8400e0c2a900e0e2a900e4a2a900e4c2a9002d
:100b9400e4e2a900e822a900e062a900ec22a8008e
:100ba400e462a80043ff07000421a8000021ef002d
:100bb400000028001008880005e1a8008460a9004e
:100bc4009460a80081e0a800707f2f00803b88001b
:100bd4000080eb00903b88000080eb00a03b880085
:100be4000080eb00b03b88000080eb00c03b880035
:100bf4000080eb00d03b8800e802a9000080fa00e6
:100c0400000006000800fa00604798007007a90079
:100c140021e3a8002119800000f0210001007000e8
:100c240020198800f0c1b30024e3b7002a23a800e8
:100c34004119800000fe2f00008060001001b30005
:100c4400401988002023a800003220000100200061
:100c5400680b07002023a900000000000019800091
:100c6400610060000000e000fcff32000118800019
:100c7400010f78001e0078008000eb000001be0028
:100c840000b52b002101200032fe07001007980058
:100c9400210798001e009000f04088006e409000ec
:100ca4007f4060000080fb007f00600042198000ec
:100cb40001fe2f00810061000100700040198800ce
:100cc4002023a8000032200001002000490b070067
:100cd4002023a900000000000019800061006000ca
:100ce4000000e000fcff320001188000010f7800d2
:100cf40021e3a9007007a8001e0078000080fa0014
:100d0400000006000800fa00300798003e0090003a
:100d14006101b800f04080008000eb00009ab90047
:100d240004027800028bb9008602780005024200b2
:100d34000010b8000102420084007800f23f200055
:100d44000300200003fe0700100798002107980005
:100d54001e009000ae009000401fb1000180b10061
:100d640010079800210798001e009000ae00900024
:100d7400a200200003002000f6fd0700004f7800c9
:100d84001e009000ae009000a2002000030020008e
:100d940000fe07000001be0040002000010020000a
:100da400800f5100818f5900010036001e4fe8006a
:100db4001e4078000080fa00000006000200fa00dd
:100dc400000f780005e1a9002268ef009e0078007a
:100dd400110888008460a90005e1a8000080fa00d9
:100de400000006000400fa0020479800e462a9000d
:100df4000001200001002000fe0a07002e409000a0
:100e04000074a100befe0700ae40900000c8b3000d
:100e140000c06000bafe0700c9fe0700004f78005a
:100e2400e462a8001e4078000080fa00000006007a
:100e34000200fa00004f780011479800e462a9000c
:100e44000001200001002000ea0a070000c8b300e6
:100e54001e407000aafe070000c8b3001e406000d8
:100e6400a7fe07001e409000a5fe0700e462a8004c
:100e74000080fa00000006000000fa00e462a80006
:100e8400ec22a8000088230011002000d90a0700e2
:100e9400e442a9000088230011002000d50a0700bd
:100ea400e442a8000010270021002000d10a070016
:100eb400e442a9000088230011002000cd0a0700a5
:100ec4000080fa00000006000200fa00eaff0700b2
:100ed4000040eb00004f7800d0c0b300c1ff070012
:100ee400104798009e409000a0c6b30080cf5000e9
:100ef400040032001e4fe8001e407800e74f400017
:100f0400f5ff36009e409000a0c6b30080cf50008d
:100f1400020032000000eb000c003700e602a800db
:100f24006740a8008040eb00a0c2b300c0ff0700e8
:100f340011c0b300e0c0b300bdff0700a0c2b300fe
:100f4400a8ff070010479800100020000080fa0056
:100f5400000006000a00fa00881f78004007980085
:100f64000040eb00004f7800060037001e84fb00b1
:100f74001e4078009bff07008800470090409800bf
:100f84001e4fe8001e407800e64f5000f7ff360081
:100f94002e4090000080fb00c800dd003e40900021
:100fa4000080fb0001007000c280de004e00900053
:100fb400010878004e4090000080fb00c800dd006e
:100fc4005e4090000080fb0001007000c280de00e3
:100fd4004e009000110098006e4090000080fb00cd
:100fe400c800dd007e4090000080fb00010070001e
:100ff400c280de004e009000210098004f0478006b
:101004000080fa00000006000200fa0081c0b3006c
:10101400a0c2b30086ff070051c1b30010c2b300e1
:1010240083ff070091c1b30030c2b30080ff070003
:1010340091c1b30040c2b3007dff0700a1c2b30059
:1010440050c2b3007aff070001c5b30060c2b30009
:1010540077ff070001cfb30070c2b30074ff07002d
:1010640081c0b300d0c2b30071ff070081c0b300d8
:10107400e0c2b3006eff0700a0c2b30059ff07002f
:10108400004f78001e04a0009e407800a0c2b30068
:1010940067ff07000080fa00000006000200fa0063
:1010a40081c0b300a0c2b30061ff0700a1c2b300b6
:1010b40010c2b3005eff070001c1b30030c2b30029
:1010c4005bff070001c1b30040c2b30058ff070033
:1010d40001c2b30050c2b30055ff070001c3b300ff
:1010e40060c2b30052ff070001c5b30070c2b30071
:1010f4004fff070081c7b30080c2b3004cff070055
:1011040081c0b300d0c2b30049ff070081c0b3005f
:10111400e0c2b30046ff0700a0c2b30031ff0700de
:10112400004f78001e04a0009e407800a0c2b300c7
:101134003fff07000080fa00000006000200fa00ea
:101144008040eb00a0c2b30039ff0700c1c0b30068
:10115400a0c2b30036ff0700c1c1b300b0c2b300e0
:1011640033ff070061c0b30090c2b30030ff070033
:10117400a1c2b30010c2b3002dff070081c0b300a9
:1011840030c2b3002aff070081c0b30040c2b300dd
:1011940027ff070081c0b30050c2b30024ff07003b
:1011a40061c0b30060c2b30021ff0700a1c0b30057
:1011b40070c2b3001eff0700f1c0b30080c2b300c9
:1011c4001bff070001c1b300c0c2b30018ff070032
:1011d40081c8b300d0c2b30015ff070081c0b300bb
:1011e400e0c2b30012ff0700a0c2b300fdfe070077
:1011f400004f78001e04a0009e407800a0c2b300f7
:101204000bff07000080fa00000006000000fa004f
:10121400e082a900e482a90000e823000100200084
:10122400f4090700e482a80000e82300010020007c
:10123400f0090700e482a9000080fa00000006001b
:101244000000fa00e482a80000e823000100200066
:10125400e8090700e482a9000080fa000000060003
:101264000000fa0000e8230001002000e109070063
:101274000080fa00000006000200fa00004f780027
:10128400e082a9001e4078000004e00009003a0052
:10129400e482a8000019200001002000d5090700fd
:1012a400e482a9000019200001002000d1090700f0
:1012b40008003700e482a900001920000100200082
:1012c400cc090700e482a8000019200001002000d6
:1012d400c80907000080fa00000006000400fa00b4
:1012e4002047980000c8b300104798000040eb0066
:1012f400004f78000f003700ae4090001e40900071
:1013040000c060000004e0000300320010c0b3001d
:10131400d9ff0700020037000040eb00d6ff0700aa
:101324001e4090000080fb000000d1001047980090
:101334001e4fe8001e407800e74f5000eeff3600d5
:101344000080fa00000006000600fa00e082a8000f
:10135400000a200001002000a609070010178000e1
:101364004400de0061406000304798000000eb005c
:10137400000f7800101780004400de006140600018
:1013840040479800be4090004e40900080cf5000ef
:1013940009003a0010c0b300713e20001e0178001d
:1013a400810f5100010036000040eb001e0fe800e1
:1013b4000004e000efff3a00803e20009e00780029
:1013c400808f50000c0032003e4090000004e0008a
:1013d40006003a004e409000e14f500003003a00ee
:1013e40010c0b30020479800050037000040eb0010
:1013f400204798000200370000c0eb002047980007
:1014040000192000010020007a0907002e409000f6
:101414000080fa00000006000200fa00caff07007c
:10142400104798000040eb00004f78000800370098
:101434001e4090000040400010479800c2ff070083
:101444009e40900001407000104798001e4fe80035
:101454001e407800e64f5000f5ff36001e40900015
:101464000080fa00000006000200fa00881f7800dd
:1014740073ff07007aff070050c5b30097ff07000a
:1014840010c0b3007cff07000032200001002000e0
:101494005809070000cab30090ff070010c0b3004a
:1014a40075ff0700a8ff070030c0b3008bff0700db
:1014b40010c0b30070ff0700a3ff07000040eb005b
:1014c40086ff070010c0b3006bff07009eff0700f4
:1014d400a0cfb30081ff070010c0b30066ff070070
:1014e40099ff07000040eb00004f78000800370028
:1014f4001e84fb00c8ff0700518a200080707c0016
:1015040010c0b3005cff07008fff07001e4fe80008
:101514001e407800e44f5000f5ff36001e84fb00a7
:10152400bdff0700518a200080707c000040eb0062
:1015340051ff070084ff070000102700210020004e
:101544002c090700e082a900e482a900001027000a
:101554002100200027090700e482a8004f04780036
:101564000080fa00000006000200fa000040eb00d0
:10157400004f7800080037001e80fb009e80fb00af
:10158400e5801000528a200062c17800b18a2000f0
:10159400827078001e4fe8001e407800e24f500031
:1015a400f5ff3600e08a2000e1cfb300014878005f
:1015b400f08a200080c0eb000148780030c0b300fe
:1015c400004f7800090037001e80fb000080e8000f
:1015d4009e80fb00e5801000528a200062c17800e2
:1015e400b18a2000827078001e4fe8001e40780007
:1015f400e54f5000f4ff36000080fa0000000600ba
:10160400801f78003400f80000002000a00188004a
:101614000000fa008460a90010c0b30022e8b700fb
:10162400e04080000000e800e0408800e0408000e6
:10163400f40f500003003a001c28ef0010c0b30060
:101644001ae8b7000080fa003400f9004f0078006f
:10165400004006003600f800809fbe00829fbe0056
:10166400849fbe00869fbe00881f78003400f80067
:1016740000002000a00188000200fa008660a90092
:10168400d116800000042000008060000000e0000b
:1016940029003a0010c3b3004f000700004f780040
:1016a4001e80fb00680060000000e0001b003200a8
:1016b40041c0b30090c3b3005800070000302000bd
:1016c40067000700104798000040eb00004f7800c7
:1016d400070037001e84fb001e80fb001030b000a2
:1016e4005f0007006182200080707c001e4fe800cc
:1016f4009e80fb001e4090000080fb000080e800fc
:10170400808f5000f3ff35008040eb0090c3b3009e
:101714004200070010c0b3000de8b7001e80fb00b4
:1017240061006000004078000004e0000200320024
:1017340010c0b3000ee8b70010178000610060000d
:101744000000e00008003a001117800000022000a9
:10175400008060000000e00002003200e4a2a90062
:1017640001003700e4a2a8000080fa003400f90068
:101774004f0478004f03be004f02be004f01be006d
:101784004f00be003600f90000400600809fbe00f6
:101794003400f80000002000a00188000000fa00d6
:1017a4008bc0a90023e6a8001117800000082000c0
:1017b400008060000000e00002003200e4e2a900c2
:1017c40001003700e4e2a8000080fa003400f900c8
:1017d4004f00be00004006000400fa0020479800b5
:1017e4000040eb00004f7800ec22a900000120002b
:1017f400010020007f0807002e40900000404000b8
:101804003ffc07004efc0700004f7800ec22a800c4
:101814001e4078000080fa00000006000200fa0072
:10182400004f780011479800ec22a9000001200025
:10183400010020006f0807001e80fb00000040002c
:10184400004078000004a0002dfc07001e4090001a
:101854002bfc0700ec22a8000080fa000000060020
:101864000400fa0010079800f5fb07000040eb00a5
:10187400004f7800ec22a9001e0090004300de0017
:101884008040780000c8b30000c070001cfc070052
:101894001e00900080407800500020000008dd0009
:1018a40017fc070026fc0700004f7800ec22a80074
:1018b400f1fb07001e4078000080fa0000000600db
:1018c4000400fa00000f780021479800dcfb0700b1
:1018d400ec22a9001e0078004300de00804078005e
:1018e40000c8b30000c0700005fc07001e007800ab
:1018f40080407800500020000008dd000044a00073
:10190400fffb07002e409000fdfb0700ec22a8001f
:10191400d9fb07000080fa00000006000000fa006e
:1019240000802f00f17f20000080fa0000000600f4
:101934000000fa0001c8b300e0c3b300b7ff07001a
:1019440000000000e0c3b300a3ff07000080fb0019
:10195400610060000000e000faff32000021200076
:10196400bfff07000080fa00000006000000fa0034
:10197400ec02a90000f42100010020001d0807006a
:10198400ec02a80000d0270001002000190807007d
:101994000080fa00000006000000fa0081c9b300cc
:1019a40080c1b3009dff070051c9b300e0c2b3007a
:1019b4009aff070031c0b30000202000c0ff0700d9
:1019c40021c0b30010202000bdff070001c8b300f0
:1019d40020202000baff070001c9b30060202000c6
:1019e400b7ff070001c8b30070202000b4ff070050
:1019f40001c1b30080202000b1ff070011c2b30071
:101a040000222000aeff070001c8b300a0c3b3004a
:101a140082ff070001c6b300f0c3b3007fff0700d5
:101a240001c4b300e0c3b3007cff0700c1c0b3002e
:101a3400d0c0b30079ff0700b0c0b300ad00070009
:101a440001c8b30020c2b30074ff070010c3b30081
:101a540061ff070061cfb30020c3b3006fff07002d
:101a640061e0a8000080fa00000006000000fa000f
:101a740080408000004078008040780010c0b300af
:101a840066ff0700804080004800de0000407800c8
:101a94008040780020c0b30060ff070090408000c1
:101aa400004078008040780030c0b3005bff07003e
:101ab400904080004800de000040780080407800bc
:101ac40040c0b30055ff0700b08a200010407800e2
:101ad4008040780050c0b30050ff0700c08a200047
:101ae400104078008040780060c0b3004bff0700ce
:101af400d08a2000104078008040780070c0b30085
:101b040046ff0700e08a20001040780080407800fb
:101b140080c0b30041ff0700f08a20001040780025
:101b24008040780090c0b3003cff0700008b200089
:101b34001040780080407800a0c0b30037ff070051
:101b4400108b20001040780080407800b0c0b300b3
:101b540032ff0700208b200010407800804078007e
:101b6400c0c0b3002dff07000080fa00000006008b
:101b74000000fa0041c0b300a0c2b30027ff070071
:101b840001c8b30020c2b30024ff070001c8b3009a
:101b940050c3b30021ff07000080fa0000000600d4
:101ba4000000fa0001ccb30020c2b3001bff070001
:101bb40001c8b30020c2b30018ff070041c0b3003e
:101bc40060c3b30015ff07008040eb0060c3b3009f
:101bd40012ff070000d0270001002000850707003e
:101be4000080fa00000006000000fa006000070010
:101bf4007c0107000080fa00000006000600fa00dd
:101c0400100798004147980017c8bf00804078002b
:101c14000000eb002aff070018c8bf0080407800ce
:101c24001000200026ff07000040eb00004f780062
:101c3400090037001e009000904078001e009000bc
:101c44000000e800100798001e80fb000080e800f8
:101c54001bff07001e4fe8004e4090009e40780096
:101c640080cf5000f3ff39000e68ef0010c3b300bb
:101c7400d9fe0700e4a2a8001e00900010407800de
:101c84008080fb0000022000008060000000e00073
:101c94000300320050c0b300004f78000200370048
:101ca40010c0b300004f78009e407800b0c1b3006c
:101cb400dafe07000040eb00004f780000e8230044
:101cc400010020004b0707000ec8bf000004e0001d
:101cd40005003a001e4fe80010c3b3009e40780090
:101ce40080cf5000f5ff3600e4a2a9000080fa007e
:101cf400000006000400fa00204798002e409000df
:101d0400eb405000400020000008dd00004f780048
:101d14009e40780063cf70009e4078000020200031
:101d2400e7fe070041c0b30060c3b300bbfe070079
:101d34008040eb0060c3b300b8fe070000c8200079
:101d4400010020002b0707000080fa0000000600b5
:101d54000200fa00004f78000080fa00000006003c
:101d64000200fa00004f78000080fa00000006002c
:101d74000000fa00b0c0b30002e8b70000802f00f2
:101d8400f17f200020408800314088000868ef007f
:101d940010c0b30009e8b700f4fe0700fefe070018
:101da40080c0b3000ce8b7000d68ef000080fa00b3
:101db400000006000000fa000080fa00000006009f
:101dc4000000fa000cc8bf00e94f500002003a00be
:101dd40090c0b300110037000cc8bf00e84f50009a
:101de40002003a0080c0b3000c0037000cc8bf00ea
:101df400e64f500008003a00cdfe070001c6b300cc
:101e0400814f5000020036000040eb000300370011
:101e140040c0b3000100370050c0b3000080fa0096
:101e2400000006000200fa00000f78000cc8bf0092
:101e3400e94f500002003a0090c0b3000e00370092
:101e44000cc8bf00e84f500002003a0080c0b30045
:101e5400090037000cc8bf00e64f500005003a00e7
:101e6400b3fe07009e0078008048780070c0b3007d
:101e74000100370050c0b3000080fa0000000600e3
:101e84000400fa00004f7800110798001e40780003
:101e94000004e00006003a001e00900021802000ab
:101ea400914078000148780070c0b3001c003700ee
:101eb4001e407800e14f500006003a001e019000d9
:101ec40020408000314080000089be0070c0b30013
:101ed400130037001e407800e24f500006003a001d
:101ee4001e00900081802000914078000148780015
:101ef40070c0b3000a0037001e407800e34f500062
:101f040006003a001e009000918020009140780065
:101f14000148780070c0b30001003700a0c0b300ce
:101f24000080fa00000006000200fa00004f78006a
:101f34000cc8bf009e40780080cf500002003a00d9
:101f44001e4078002e0037001e407800e64f5000f7
:101f54000d003a000cc8bf00e84f500005003a00dd
:101f640021ff070060c0b3000ce8b70070c0b300e5
:101f7400230037000cc8bf00e94f50001f003a008f
:101f840020c0b3001e0037001e407800e94f500007
:101f940007003a000cc8bf00e94f500002003a00a5
:101fa40020c0b3001600370070c0b300140037001f
:101fb4001e407800e84f500008003a000cc8bf00eb
:101fc400e64f50000d003a00e9fe070080c0b30060
:101fd4000ce8b70070c0b300090037001e40780059
:101fe400e34f500005003a00e1fe070080c0b30053
:101ff4000ce8b70070c0b3000100370050c0b30054
:102004000080fa00000006000a00fa006047980009
:10201400410798006e4090000004e00021003a005f
:102024004e009000104f78001e80fb00110020002d
:102034000008dd006101b9002040800031408000cb
:102044000202780003017800800178000100780022
:1020540003026200000061008000eb00c000dd00ac
:10206400000020000001be006120b80000017100e2
:1020740081817100e00f5100e08f590007003200a8
:102084001e41780021802000824878001e4078009c
:1020940018ff070070c0b3005000370050c0b300f1
:1020a4004e0037006e409000e14f500021003a008e
:1020b4004e0090001001be001207980023079800fc
:1020c40016fe07000081ea008181ea001e009000ec
:1020d400ae009000020278000301780080017800cd
:1020e4000100780003026200000061008000eb0040
:1020f400c000dd00000020000001be006120b80027
:102104000001710081817100e00f5100e08f5900de
:1021140006003a004e0090001000be0020408800e7
:102124003140880070c0b3002c00370050c0b300a9
:102134002a0037006e409000e24f50000f003a0032
:102144004e009000104f7800f0cbb3009e40780012
:1021540080cf500007003e009e407800838020001e
:10216400814978001e407800fdfe070070c0b3006e
:102174001a00370050c0b300180037006e409000ba
:10218400e34f500014003a004e009000104f7800c6
:102194001e407800e14f5000060032001e407800d7
:1021a400e24f5000030032001e407800e34f50001d
:1021b40007003a009e41780092802000034978008d
:1021c4001e407800e2fe070070c0b3000300370031
:1021d40050c0b30001003700a0c0b3000080fa0073
:1021e400000006000000fa0008fc07009efc07003f
:1021f400ddfc0700a08b20008040eb000148780044
:10220400908b200041c0b30001487800808b2000ef
:1022140031cab30001487800708b200080c0eb0005
:1022240001487800608b2000e1cfb30001487800ba
:10223400508b2000c1cdb30001487800408b2000b2
:1022440081c7b30001487800308b200071c2b3000d
:10225400014878001428ef00100020008040880016
:1022640020002000904088000f68ef00fffd070069
:102274000080fa00000006000000fa00cff8070012
:102284000040780016e8b7000080fa00000006005d
:102294001400fa004047980031079800420798005c
:1022a400234f980064079800750798000657980014
:1022b400170f98004e409000e24f50000500320086
:1022c4004e409000e34f50000200320080ceb30035
:1022d400ea00370080408000be009000808f5000ec
:1022e4000200320080ceb300e40037002e48900094
:1022f400e24f5000050032002e489000e34f50009a
:102304000200320080ceb300dc0037008e50900013
:1023140060c6b30080cf50000200360050ceb30038
:10232400d60037006ef097008080fb00e00f20009d
:10233400008060000000e0000200320080ceb300a4
:10234400ce00370050c0b300004f78004e409000dc
:10235400e24f500002003a001ecfe80002003700ae
:102364009e40780068cf40002e489000e24f500015
:1023740002003a001ecfe800020037001e41780038
:10238400684f41001e417800718120008248780026
:1023940071812000914078000e50900000c04000f0
:1023a40018e8b70060822000100798000040eb0096
:1023b400004f780000c4b3001e4f70006ef0970009
:1023c4000080fb0061006000004078000004e00031
:1023d4000200320000c2b3001e4f70001e04a000b1
:1023e4001e0090001e4878001e0090000000e800c7
:1023f400100798000040eb00004f78004e4090001a
:102404000080fb004600dd00804078001e4078001c
:1024140000c07000004f78002e4890000080fb0040
:102424004200dd00804078001e40780000c070004b
:10243400004f78001e0090001e4878001e00900097
:102444000000e8001007980016c8bf009e00900026
:10245400804878009e0090008100e80011079800f1
:102464000040e80016e8b700804080008040780013
:102474001e009000014878001e0090000000e80053
:1024840010079800804080004800de0080407800fb
:102494001e009000014878001e0090000000e80033
:1024a400100798002e489000e24f500012003a00a6
:1024b4000040eb00004f78000b0037007e009000d6
:1024c400904078001e009000014878001e009000a3
:1024d4000000e800100798007e0090000000e8006b
:1024e400700798001e4fe8001e407800e14f50002e
:1024f400f2ff3600110037000040eb00004f780077
:102504000b0037007e009000904078001e00900081
:10251400014878001e0090000000e80010079800b1
:102524007e0090000000e800700798001e4fe8004d
:102534001e407800e74f5000f2ff36004e409000f6
:10254400e24f500012003a000040eb00004f7800c8
:102554000b0037004e009000904078001e00900061
:10256400014878001e0090000000e8001007980061
:102574004e0090000000e800400798001e4fe8005d
:102584001e407800e14f5000f2ff36001100370082
:102594000040eb00004f78000b0037004e00900025
:1025a400904078001e009000014878001e009000c2
:1025b4000000e800100798004e0090000000e800ba
:1025c400400798001e4fe8001e407800e74f500077
:1025d400f2ff36000040eb00004f78000b0037009c
:1025e4001e089000904078001e009000014878007a
:1025f4001e0090000000e800100798001e089000dc
:102604000000e800100f98001e4fe8000e509000e4
:102614009e40780080cf5000f1ff390072fd070022
:1026240018c8bf00804078006082200073fd070056
:1026340040c2b30068fc0700004f78004cfd07005f
:102644009e80fb0000022000008060000000e0008b
:102654000200320010ceb300080037001e80fb00d9
:1026640061006000004078000004e00002003200d5
:1026740090ceb300010037000040eb000080fa0068
:10268400000006000e00fa004047980051479800e9
:102694003207980043079800244f9800354f98005c
:1026a400660798004e409000ea4f500005003e0037
:1026b4004e409000fa4f50000200360080ceb30026
:1026c400de0037005e409000e24f5000050032000b
:1026d4005e409000e34f50000200320080ceb30011
:1026e400d600370064004700800078000040eb000b
:1026f40045fe0700be0090008140880070c0b30012
:10270400004f78005e409000e24f500002003a0013
:102714001ecfe800020037001e417800684f4100d8
:102724009e40780068cf40009e407800728120006f
:102734000149780017c8bf0000c0e80018e8b700d6
:1027440060822000100798000040eb00004f7800e2
:1027540000c4b3001e4f700000c2b3001e4f7000cf
:102764001e417800634f71001e0090001e487800df
:102774001e0090000000e800100798000040eb00e5
:10278400004f780000ccb3001e4f70005e409000f4
:102794000080fb004200dd00804078001e4078008d
:1027a40000c07000004f78001e0090001e487800a2
:1027b4001e0090000000e8001007980016c8bf0033
:1027c4009e009000804878009e0090008100e80000
:1027d400110798000040e80016e8b7003e0090009a
:1027e400804078001e009000014878001e00900090
:1027f4000000e800100798003e0090004800de004a
:10280400804078001e009000014878001e0090006f
:102814000000e800100798005e409000e24f50006e
:1028240012003a000040eb00004f78000b00370024
:102834004e009000904078001e00900001487800ff
:102844001e0090000000e800100798004e00900061
:102854000000e800400798001e4fe8001e40780082
:10286400e14f5000f2ff3600110037000040eb004a
:10287400004f78000b0037004e0090009040780025
:102884001e009000014878001e0090000000e8003f
:10289400100798004e0090000000e80040079800e0
:1028a4001e4fe8001e407800e74f5000f2ff36004c
:1028b4001e00900080c0eb00014878001e009000cc
:1028c4000000e800100798001e00900080c0eb0094
:1028d400014878001e0090000000e80010079800ee
:1028e4000040eb00004f7800090037001e80fb0019
:1028f400b18a2000e14078001e0090000148780071
:102904001e0090000000e800100798001e4fe80029
:102914001e407800e74f5000f4ff36001e00900080
:1029240011c0b300014878001e0090000000e800c8
:10293400100798001e009000ae48900001487800ef
:102944001e0090000000e8001007980018c8bf009f
:102954008040780060822000a8fc070040c2b300d9
:102964009dfb0700004f78001e80fb0061006000a3
:102974000000e00007003a009e80fb0000022000f7
:10298400008060000000e0000200320010ceb300be
:102994002a0037000080270008f907000d68ef00bf
:1029a40060c0b30060fd07000000000022c8bf0043
:1029b4000004e00003003a000dc8bf000004e0007a
:1029c400faff320080c0b30057fd07000dc8bf00f6
:1029d4000004e00003003a002268ef00b0ceb30028
:1029e40016003700d083200010407800e24f5000da
:1029f40010003a0000842000104078000004e00039
:102a04000c003a00e0832000104078008080fb0036
:102a1400f0832000104078000080fb004800dd00b7
:102a2400808040006e009000010878000040eb00b8
:102a34000200370000842000104078000080fa0073
:102a4400000006000400fa00000f78001107980047
:102a5400000420009e007800808f500008003a0097
:102a640020c1b3005cfb0700804078000174a10022
:102a74001e009000014878000040eb001a00370067
:102a8400e00420009e007800808f500007003a0088
:102a940010c1b30050fb0700e74060001e00900027
:102aa400014878000040eb000f003700f0042000dc
:102ab4009e007800808f50000a003a0010c1b300d5
:102ac40045fb07000080fb004300de000040780067
:102ad400e34060001e009000014878000040eb00d5
:102ae4000100370040cfb3000080fa000000060068
:102af4000600fa0010079800210798009e00900035
:102b040000042000808f500010003a0020c1b30060
:102b140031fb070001c8b300014f60002e00900094
:102b240010407800804078000174a1001e407800b5
:102b340000c07000004f78009e40780020c1b300b0
:102b440036fb07000040eb002a0037009e0090008f
:102b5400e0042000808f50000f003a0010c1b30041
:102b64001dfb070081cfb300014f60002e009000d1
:102b740010407800e74060001e40780000c07000fc
:102b8400004f78009e40780010c1b30023fb07007b
:102b94000040eb00170037009e009000f004200076
:102ba400808f500012003a0010c1b3000afb0700e6
:102bb40071ceb300014f60002e00900010407800e9
:102bc4000080fb00630060004300dd00804078006b
:102bd4001e40780000c07000004f78009e407800ce
:102be40010c1b3000dfb07000040eb0001003700eb
:102bf40040cfb3000080fa00000006000600fa008f
:102c0400404798004e409000e14f500002003a00c7
:102c140056fb0700170037008e00780000042000e0
:102c240088ff07000e00e80080007800e004200020
:102c340084ff07000e80e80080007800f004200084
:102c440080ff070054fb07008e007800000420007a
:102c5400a7ff07000e00e80080007800e0042000d1
:102c6400a3ff07000e80e80080007800f004200035
:102c74009fff07000040eb000080fa000000060000
:102c84000600fa00004f7800110798002207980008
:102c94002e0090000000e00003003a0080c0b30062
:102ca400a1fc07000b0037002e00900043f807003a
:102cb4000d68ef0060c0b3009bfc0700000000003b
:102cc40022c8bf000004e000fdff320080c0b30052
:102cd40095fc07000040eb000080fa0000000600ad
:102ce4000000fa00f0c2a900f4c2a80000e8230022
:102cf400010020003f03070060c0b300c1f70700d4
:102d040000f8070020e8b700f4c2a90011c0b3001e
:102d1400a0c2b30046f8070000d02700010020003d
:102d240034030700209220008af807008040eb005b
:102d3400a0c2b3003ef807000080fa0000000600bd
:102d44000800fa000040eb00004f7800270037002d
:102d54001e80fb004200dd009e80fb00c208dd00f7
:102d64002241280062c1780081932000827078009b
:102d74001e80fb004200dd000000e8009e80fb0096
:102d8400c208dd008100e8002241280062c1780009
:102d940081932000827078001e80fb004200dd00d9
:102da4000080e8009e80fb00c208dd008180e8000e
:102db4002241280062c1780081932000827078004b
:102dc4001e80fb004200dd00630040009e80fb008b
:102dd400c208dd00e38040002241280062c178007f
:102de40081932000827078001e4fe8001e40780016
:102df400e34f5000d6ff3600740037000040eb006c
:102e0400104798000f0037001e4090000080fb0020
:102e14009e80fb008100e9004209dd009e40900095
:102e24008180fb008100410082932000e2c0780091
:102e340000004700314098001e4090000040e80028
:102e4400104798001e409000e34f5000eeff3600fc
:102e54009e40780063c060000004e00028003a004f
:102e6400be409000214798004e40900030479800a3
:102e74005e409000404798006e4090005047980094
:102e8400ae409000614798003e4090000080fb00f7
:102e94002131280061407800304798004e4090006e
:102ea4000080fb00213128006140780040479800f1
:102eb4005e4090000080fb002131280061407800d2
:102ec400504798006e4090000080fb00213128009c
:102ed4006140780060479800be4090001e80fb006f
:102ee4004200de00004078000080fb000000e900a2
:102ef400829e20006240780000c06800304798003d
:102f04001e80fb004200dd009e80fb00e480500038
:102f1400c208dd008293200062c17800be409000a8
:102f24000141690081932000827078001e80fb00bb
:102f34004200dd000000e8009e80fb00e4805000b9
:102f4400c208dd008100e8008293200062c178009d
:102f5400ce40900001416900819320008270780086
:102f64001e80fb004200dd000080e8009e80fb0024
:102f7400e4805000c208dd008180e80082932000d4
:102f840062c17800de409000014169008193200015
:102f9400827078001e80fb004200dd006300400068
:102fa4009e80fb00e4805000c208dd00e380400006
:102fb4008293200062c17800ee40900001416900d4
:102fc40081932000827078001e4fe800b0c2b300e5
:102fd4009e40780080cf500088ff36000080fa00c1
:102fe400000006000400fa00204798000040eb00af
:102ff400004f7800250037000040eb001047980090
:103004001e003700224180001e4090008081fb009a
:103014001e80fb00244180009e4090008182fb00c2
:103024009e80fb00c22add008180420064c27800d9
:10303400ae4090008180fb00c20add009e80fb0050
:1030440081804200c20add009e4090008180fb0026
:103054008180420085932000e5c0780081406a00a9
:10306400c219dd00008041000000410001487800e1
:103074001e4090000040e800104798001e40900059
:10308400e34f5000dfff36001e4fe8001e4078007b
:10309400e34f5000d8ff36000080fa00000006001d
:1030a4000200fa000040eb00004f78001c003700db
:1030b4000040eb00104798001500370022418000c3
:1030c4009e81fb001e4090000080fb002441800094
:1030d4009e82fb009e4090008180fb00c22add009e
:1030e40081804200e4c078008180fb002431280004
:1030f400e4c07800c219dd000080410000004100f6
:10310400014878001e4090000040e80010479800f5
:103114001e409000e34f5000e8ff36001e4fe800c9
:103124001e407800e34f5000e1ff36000080fa00b3
:10313400000006000200fa0020418000c040900018
:10314400014f78002041800021418000d14090004f
:10315400414098002041800021418000e1409000de
:10316400514098002041800021418000f1409000ae
:1031740061409800204180009e4078007140980092
:103184002041800080489000014f78002041800059
:1031940021418000a148900001489800204180000e
:1031a4009e4078002148980020418000904890007b
:1031b400014f78002041800021418000b1489000f7
:1031c40011489800204180009e40780031489800c2
:1031d40020418000c0489000014f780020418000c9
:1031e40021418000f148900041489800204180002e
:1031f40021418000e14890007148980020418000fe
:1032040021418000d148900061489800204180000d
:103214009e407800514898000080fa0000000600a3
:103224000200fa00004f78001e80fb0000004000fe
:10323400004178001e80fb004700de00004078005b
:103244007b00b9000000780000407800004069006d
:103254000080fa00000006000400fa000040eb00c1
:10326400004f780076003700214180001e80fb006b
:103274006141780012479800214180001e80fb00c4
:10328400e1407800224180001e80fb006400400081
:103294006240780080c06800224180001e80fb00ec
:1032a400680040006240780080c0680022418000cd
:1032b4001e80fb006c0040006240780000c0680083
:1032c40020479800214180001e80fb00e1407800e7
:1032d400224180001e80fb006400400062407800b0
:1032e40000c06800304798003e409000ccff0700c3
:1032f40030479800214180001e80fb00234180005c
:103304001e81fb00e34179003e4290002e41900073
:1033140002416a0002c16900827078002141800084
:103324001e80fb0064004000e140780022418000e0
:103334001e80fb00680040006240780000c0680006
:10334400304798003e409000b5ff07003047980092
:10335400224180001e80fb00234180009e80fb00f0
:10336400e4804000e3c178003e429000ae4090000b
:1033740081406a0081c0690000004100414098001a
:10338400214180001e80fb0068004000e14078007d
:10339400224180001e80fb006c00400062407800e7
:1033a40000c06800304798003e4090009cff070032
:1033b40030479800224180001e80fb00234180009a
:1033c4009e80fb00e8804000e3c178003e4290000c
:1033d400ae40900081406a0081c069000000410055
:1033e40001489800214180001e80fb006c004000d1
:1033f400e14078001e40900000c06800304798000b
:103404003e40900086ff070030479800224180002c
:103414001e80fb00234180009e80fb00ec80400066
:10342400e3c178003e429000ae40900081406a00c3
:1034340081c0690000004100414898001e4fe80027
:103444001e407800e34f500087ff36000080fa00ea
:10345400000006000200fa000040eb00004f780074
:103464000040eb00dffe070010c0b300004f7800ff
:10347400060037000aff07002eff070076ff07004b
:103484001e407800d7fe07001e4fe8001e4078005b
:10349400e94f5000f7ff360001ff070025ff070042
:1034a400a0c0b300cffe07000080fa0000000600b1
:1034b4000400fa000040eb00304798003e409000c2
:1034c4000080fb001282200012417800b18b2000a2
:1034d400827078003e4090000040e8003047980039
:1034e4003e4090000080fb00b18b200042c0b3003e
:1034f400827078003e4090000040e8003047980019
:103504003e4090000080fb00b18b20000041eb00a6
:10351400827078003e4090000040e80030479800f8
:103524003e4090000080fb00b18b200012c0b3002d
:10353400827078003e4090000040e80030479800d8
:103544003e4090000080fb00f14080000141780083
:10355400b18b2000827078003e4090000040e8006b
:10356400304798003e4090000080fb00f14080000e
:10357400c808de0001417800b18b20008270780019
:103584003e4090000040e800304798003e409000e4
:103594000080fb00b18b200002c2b300827078006f
:1035a4003e4090000040e800304798003e409000c4
:1035b4000080fb001149800001417800b18b20009c
:1035c400827078003e4090000040e8003047980048
:1035d4003e4090000080fb0011498000c888de0056
:1035e40001417800b18b2000827078003e40900049
:1035f4000040e800304798003e4090000080fb0007
:103604002149800001417800b18b2000827078004c
:103614003e4090000040e800304798003e40900053
:103624000080fb0021498000c888de000141780049
:10363400b18b2000827078003e4090000040e8008a
:10364400304798003e4090000080fb0031498000e4
:1036540001417800b18b2000827078003e409000d8
:103664000040e800304798003e4090000080fb0096
:1036740031498000c888de0001417800b18b200008
:10368400827078003e4090000040e8003047980087
:103694003e4090000080fb00b18b20000041eb0015
:1036a400827078003e4090000040e8003047980067
:1036b4003e4090000080fb00b18b20000041eb00f5
:1036c400827078003e4090000040e8003047980047
:1036d4003e4090000080fb00b18b20000041eb00d5
:1036e400827078003e4090000040e8003047980027
:1036f4003e419000918120008248780090fd0700af
:103704000040eb00204798000040eb001047980071
:10371400190037000040eb00004f7800100037001c
:10372400224180009e81fb001e4090000080fb002f
:10373400ae4090008180fb00b48b2000e4c0780090
:10374400c219dd00008041000000410001487800fa
:103754002e4090000040e800204798001e4fe800eb
:103764001e407800e34f5000edff36001e409000ed
:103774000040e800104798001e409000e34f5000be
:10378400e4ff360033ff07000040eb0020479800b9
:103794000040eb0010479800180037000040eb0091
:1037a400004f78000f0037002e4090000080fb008f
:1037b400224180009e81fb009e4090008180fb009e
:1037c400c219dd008180410062c17800b18b200004
:1037d400827078002e4090000040e8002047980056
:1037e4001e4fe8001e407800e34f5000eeff360005
:1037f4001e4090000040e800104798001e409000d2
:10380400e34f5000e5ff36000080fa000000060098
:103814000200fa001c28ef002168ef001b68ef008b
:1038240093f40700e4e2a80000a026008101200030
:1038340070000700e4e2a90000a026008101200036
:103844006c000700e4c2a80000a02600810120004b
:1038540068000700e4c2a90000a02600810120003e
:1038640064000700e4a2a80000a026008101200053
:1038740060000700e4a2a90000a026008101200046
:103884005c00070090f50700e10f500005003a00c6
:10389400118220009140780000c8b30000c070007d
:1038a40021e8b70032f907004efa07002000200093
:1038b4003bf3070070fa0700adf807008660a90023
:1038c4009660a80006fd0700f9fe07009481200019
:1038d400144278004381200082408000218120002e
:1038e4008040800015c0b300851f780015c0b30068
:1038f400851f7800b78b200004437800830278008a
:103904000202780023c0b30001017800800078002f
:1039140020c0b3005efa0700e4875700004f780028
:1039240001003700000000000040fe000040fe00df
:103934001ac8bf000004e000faff32001a68ef0062
:10394400e7fc0700dafe07009481200014427800a7
:10395400438120008240800021812000804080003b
:1039640015c0b300851f780015c0b300851f78000b
:10397400b78b2000044378008302780002027800a9
:1039840023c0b300010178008000780020c0b30098
:103994003ffa0700e4875700004f7800e2ff370042
:020000040000fa
:1039a400e80900000a00000002000000010204000f
:1039b4000810200040801b0036000000260800008c
:1039c400c201000000000000000800002400000004
:1039d40000000000240800000200000002000000b3
:1039e40028090000f20900000600000000000000a1
:0439f400181d80001a
:020000040000fa
:1039f800f03fb1000180b10006003500ee03090078
:103a080000000000403fb1000180b100fbff3d0015
:103a18001000b000203fb00002003500008009000f
:083a2800000000000000060090
:020000040000fa
:043a30000000000092
:020000040000fa
:020000040005f5
:0457f800fdf30000bd
:020000040000fa
:020000040005f5
:0457fc007f3d0000ed
:00000001FF
