:020000040000fa
:080000000002040000000000f2
:020000040000fa
:100008009a0200009a0200009a0200009a02000078
:100018009a0200009a0200009a0200009a02000068
:100028009a0200009a0200009a0200006e0a00007c
:100038009a0200009a0200009a0200009a02000048
:100048009a0200009a0200009a0200009a02000038
:100058009a0200009a0200009a0200009a02000028
:100068009a0200009a0200009a020000a60a000004
:100078009a0200009a0200009a0200009a02000008
:100088009a0200009a0200009a0200009a020000f8
:100098009a0200009a0200009a0200009a020000e8
:1000a8009a0200009a0200009a0200009a020000d8
:1000b8009a0200009a0200009a0200009a020000c8
:1000c8009a0200009a0200009a0200009a020000b8
:1000d8009a0200009a0200009a0200009a020000a8
:1000e8009a0200009a0200009a0200009a02000098
:1000f8009a0200009a0200009a0200009a02000088
:100108009a0200009a0200009a0200009a02000077
:100118009a0200009a0200005e0b00009a0200009a
:100128009a0200009a0200009a0200009a02000057
:100138009a0200009a0200009a0200009a02000047
:100148009a0200009a0200009a0200009a02000037
:100158009a0200009a0200009a0200009a02000027
:100168009a0200009a0200009a0200009a02000017
:100178009a0200009a0200009a0200009a02000007
:100188009a0200009a0200009a0200009a020000f7
:100198009a0200009a0200009a0200009a020000e7
:1001a8009a0200009a0200009a0200009a020000d7
:1001b8009a0200009a0200009a0200009a020000c7
:1001c8009a0200009a0200009a0200009a020000b7
:1001d8009a0200009a0200009a0200009a020000a7
:1001e8009a0200009a0200009a0200009a02000097
:0801f8009a0200009a020000c7
:020000040000fa
:100208009a0200009a0200009a0200009a02000076
:100218009a0200009a0200009a0200009a02000066
:100228009a0200009a0200009a0200006e0a00007a
:100238009a0200009a0200009a0200009a02000046
:100248009a0200009a0200009a0200009a02000036
:100258009a0200009a0200009a0200009a02000026
:100268009a0200009a0200009a020000a60a000002
:100278009a0200009a0200009a0200009a02000006
:100288009a0200009a0200009a0200009a020000f6
:100298009a0200009a0200009a0200009a020000e6
:1002a8009a0200009a0200009a0200009a020000d6
:1002b8009a0200009a0200009a0200009a020000c6
:1002c8009a0200009a0200009a0200009a020000b6
:1002d8009a0200009a0200009a0200009a020000a6
:1002e8009a0200009a0200009a0200009a02000096
:1002f8009a0200009a0200009a0200009a02000086
:100308009a0200009a0200009a0200009a02000075
:100318009a0200009a0200005e0b00009a02000098
:100328009a0200009a0200009a0200009a02000055
:100338009a0200009a0200009a0200009a02000045
:100348009a0200009a0200009a0200009a02000035
:100358009a0200009a0200009a0200009a02000025
:100368009a0200009a0200009a0200009a02000015
:100378009a0200009a0200009a0200009a02000005
:100388009a0200009a0200009a0200009a020000f5
:100398009a0200009a0200009a0200009a020000e5
:1003a8009a0200009a0200009a0200009a020000d5
:1003b8009a0200009a0200009a0200009a020000c5
:1003c8009a0200009a0200009a0200009a020000b5
:1003d8009a0200009a0200009a0200009a020000a5
:1003e8009a0200009a0200009a0200009a02000095
:0803f8009a0200009a020000c5
:020000040000fa
:10040000cf9220000e7f24000e0188000000000023
:10041000000020000000e000020032000001200087
:10042000200288000c00070020912100010020001c
:1004300011000700000020000000e0000200320070
:1004400000000200000000001a1802000000000076
:100450000040da000000fe004440a9000000200037
:100460000000e0000300320000002000a00188002e
:100470004440a80000000600910188008000780038
:100480000000eb0015003700e280400032a0b4000d
:100490009101ba00e280400032a0b4009102ba009b
:1004a000e280400032a0b4000002eb00472bde00e7
:1004b000f507b200602ce10004003a000059eb009f
:1004c0008301e900fdff3e00040037006128e100e0
:1004d000010032000082eb00040007001101ba00a5
:1004e0000200e000e8ff3a00000006003159ba00bf
:1004f0008301e9000c0032002159ba008301e900b0
:10050000080032000400e00003003a00e2804000ee
:1005100032a0b400f5ff370011d9ba008301e90019
:10052000faff3a008100e800e180400032a0b40008
:10053000000006000040da000000fe006022b80063
:10054000060220000000d0008180d2000482d20088
:100550008582d2000000a0000202520083825a006d
:10056000030031000202420083824a000000a10021
:100570000603e900f3ff3a0000000600efff070062
:100580000400be000000060015c0b30001002000fa
:10059000a49220003049880041498800054a78002b
:1005a00000000600a49220008042eb0094cf1200cd
:1005b00002003a0010002000f3ff070030498000dd
:1005c00041498000d2e62400631c24000900070092
:1005d00094032300050020000002420081824a00ab
:1005e00034498800454988000500780000f0a100e2
:1005f00000000600020ab900001bb9000200b800a2
:0c06000081004200810043000000060061
:020000040000fa
:10060c000200fa00140280004522de0067426200fc
:10061c000482fb000440880094028000040f7800e0
:10062c00ff3ffc00140280000450a0000460a000f6
:10063c000470a000140288001e0278009402880046
:10064c00000088000080fa00000006000200fa009a
:10065c0094028000040f7800ff3ffc0004408000ef
:10066c0004427800674262000482fb006702620069
:10067c004522dd0016028000f5f12f008502630093
:10068c0005027200140288001e0278009402880091
:10069c00000088000080fa00000006000000fa004c
:1006ac0042a2a800141280000420a0000430a00074
:1006bc000440a00014128800141280000400a10051
:1006cc000410a100141288004302a8004322a800c1
:1006dc0042c2a90040c2a90041e2a8008540a9007d
:1006ec000080fa00000006000200fa00004f7800bb
:1006fc008540a9009e4278000582fb0044128800c8
:10070c0000000000250480000440200004826200e8
:10071c00e00f5200fbff32008540a900441280001c
:10072c0004427800044078000080fa0000000600c3
:10073c000000fa000002eb004412880000000000e8
:10074c00250480000440200004826200e00f520067
:10075c00fbff32008540a90044128000044278005f
:10076c00044078000080fa00000006000000fa0047
:10077c000500fc0054052000343b8800a40a20002e
:10078c00343b880027a6a8000080fa000000060071
:10079c000800fa00004f7800114798002247980093
:1007ac00334798004447980055479800664798008f
:1007bc00a53b8000f4df2f0004826200a43b88007c
:1007cc00eaff070027e6a900343180000480a0006e
:1007dc000490a000343188009e4278000582fb0012
:1007ec00243188001e4290000482fb00c822dd00e8
:1007fc002e4290000482fb00050272002431880016
:10080c003e4290000482fb00c822dd004e42900064
:10081c000482fb0005027200243188005e429000c5
:10082c000482fb00c822dd006e4290000482fb00b3
:10083c00050272002431880027e6a80027a6a9002b
:10084c001431800004a0a00004b0a10004c0a100d9
:10085c0004d0a1001431880023e6a8008bc0a900a5
:10086c009bc0a8000080fa00000006000000fa00ff
:10087c00e042a900e442a9000003eb00640420005c
:10088c007505200027742000844b7800854b780078
:10089c00864b78004535800004fc2f0004826200f2
:1008ac006401b30044358800c5368000f40f2c0079
:1008bc00848262000470200005027200c436880035
:1008cc00a536800004fc2f00048262000430a000d6
:1008dc00a43688002604200064042000750520003e
:1008ec0027742000844b7800854b7800864b780069
:1008fc00f4fb2f00641988004516800004072000c3
:10090c000482620044168800c5168000840f2f00f4
:10091c0004826200c41688004517800034f82f004a
:10092c0004826200441788008517800034c72f00aa
:10093c00048262008417880065168000040720007a
:10094c000482620064168800e5168000840f2f0074
:10095c0004826200e41688006517800034f82f00ca
:10096c000482620064178800a517800034c72f002a
:10097c0004826200a4178800e0a2a900e0c2a900ca
:10098c00e0e2a900e4a2a900e4c2a900e4e2a90003
:10099c00e822a900e062a900ec22a800e462a80009
:1009ac003eff07000421a8000002eb0004088800a9
:1009bc00040028001408880005e1a8008460a90040
:1009cc009460a80081e0a800747f2f00843b88000d
:1009dc000082eb00943b88000082eb00a43b880073
:1009ec000082eb00b43b88000082eb00c43b880023
:1009fc000082eb00d43b8800e802a9000080fa00da
:100a0c00000006000800fa00604798007007a90073
:100a1c0021e3a8002519800004f0210005027200d2
:100a2c0024198800f4c1b300044378004532200037
:100a3c00864a78002a23a8004519800004fe2f005e
:100a4c00048262001401b300441988002023a8001a
:100a5c000032200001002000e10907002023a9003a
:100a6c00000000000419800061026200e00f5200d7
:100a7c00fcff320004188000040f78001e0278007e
:100a8c00050020000401be0000b52b002101200050
:100a9c00a7fe07000002be00140798002507980067
:100aac001e029000d44888006e4290007f42620083
:100abc000482fb007f0262004619800005fe2f00b5
:100acc008502630005027200441988002023a800e7
:100adc000032200001002000c10907002023a900da
:100aec00000000000419800061026200e00f520057
:100afc00fcff320005188000050f780021e3a900e7
:100b0c007007a8001e027800040078000080fa002c
:100b1c00000006000800fa00300798003e02900022
:100b2c006123b800d44880000500200004b8b90047
:100b3c000000780006a9b90082007800010040008e
:100b4c0006037800040278000432b8000500400067
:100b5c0080027800f23f2000030020000400be0059
:100b6c0073fe07000002be001407980025079800ca
:100b7c001e039000ae039000c4e02f00f5ff2f0081
:100b8c000602420087824a00140798002507980045
:100b9c001e029000ae029000a20020000300200074
:100bac000400be0062fe07000002be00044f780085
:100bbc001e029000ae029000a20020000300200054
:100bcc000400be006afe07000002be000403be0063
:100bdc004400200005002000840f5300858f5b002b
:100bec00010036001e4fe8001e42780004407800d9
:100bfc000080fa00000006000200fa00000f7800e6
:100c0c0005e1a9000042eb0004437800e5912000c7
:100c1c00864a78001e027800140888008460a900b7
:100c2c0005e1a8000080fa00000006000400fa00ac
:100c3c0020479800e462a900000120000100200078
:100c4c00670907002e4290000474a100044078004c
:100c5c00a5fe0700ae42900004c8b30004c26200b7
:100c6c0004407800a0fe0700b1fe070000427800a7
:100c7c00044f7800e462a8001e427800044078001b
:100c8c000080fa00000006000200fa00004f780015
:100c9c0011479800e462a900000120000100200027
:100cac004f09070004c8b3001e42720004407800cc
:100cbc008dfe070004c8b3001e4262000440780099
:100ccc0089fe07001e40900087fe0700e462a80022
:100cdc000080fa00000006000000fa00e462a800a0
:100cec00ec22a80000882300110020003c0907001a
:100cfc00e442a900008823001100200038090700f5
:100d0c00e442a8000010270021002000340907004d
:100d1c00e442a900008823001100200030090700dc
:100d2c000080fa00000006000200fa00eaff07004b
:100d3c000042eb00044f7800d0c0b300bbff0700ab
:100d4c0000427800144798009e429000a4c6b3005d
:100d5c0084cf5200040032001e4fe8001e4278007f
:100d6c00e74f4200f4ff36009e429000a4c6b30049
:100d7c0084cf5200020032000002eb000d0037005d
:100d8c00e602a8006740a8008040eb00a0c2b300b8
:100d9c00bdff070011c0b300e0c0b300baff0700ed
:100dac00a0c2b300a1ff07000042780014479800ce
:100dbc0014002000040078000080fa0000000600f7
:100dcc000a00fa00881f7800400798000042eb00e8
:100ddc00044f7800080037001e4278000484fb00a2
:100dec001e40780091ff07000042780088024700ff
:100dfc00944298001e4fe8001e427800e64f5200c5
:100e0c00f5ff36002e4290000482fb00c822dd0064
:100e1c003e4290000482fb0005027200c2a2de007a
:100e2c004e029000050a78004e4290000482fb00ae
:100e3c00c822dd005e4290000482fb0005027200b5
:100e4c00c2a2de004e029000150298006e42900085
:100e5c000482fb00c822dd007e4290000482fb006d
:100e6c0005027200c2a2de004e029000250298001c
:100e7c004f0478000080fa00000006000200fa001f
:100e8c0081c0b300a0c2b3007fff070051c1b30003
:100e9c0010c2b3007cff070091c1b30030c2b30095
:100eac0079ff070091c1b30040c2b30076ff070081
:100ebc00a1c2b30050c2b30073ff070001c5b30059
:100ecc0060c2b30070ff070001cfb30070c2b30063
:100edc006dff070081c0b300d0c2b3006aff0700ea
:100eec0081c0b300e0c2b30067ff0700a0c2b3002b
:100efc004eff070000427800044f78001e04a0004b
:100f0c009e407800a0c2b3005fff07000080fa008b
:100f1c00000006000200fa0081c0b300a0c2b300ba
:100f2c0059ff0700a1c2b30010c2b30056ff07005f
:100f3c0001c1b30030c2b30053ff070001c1b300bd
:100f4c0040c2b30050ff070001c2b30050c2b3004f
:100f5c004dff070001c3b30060c2b3004aff070096
:100f6c0001c5b30070c2b30047ff070081c7b300cf
:100f7c0080c2b30044ff070081c0b300d0c2b300ed
:100f8c0041ff070081c0b300e0c2b3003eff070081
:100f9c00a0c2b30025ff070000427800044f780080
:100fac001e04a0009e407800a0c2b30036ff0700cc
:100fbc000080fa00000006000200fa008040eb00fe
:100fcc00a0c2b30030ff0700c1c0b300a0c2b30081
:100fdc002dff0700c1c1b300b0c2b3002aff070048
:100fec0061c0b30090c2b30027ff0700a1c2b300d9
:100ffc0010c2b30024ff070081c0b30030c2b3009d
:10100c0021ff070081c0b30040c2b3001eff0700e0
:10101c0081c0b30050c2b3001bff070061c0b30016
:10102c0060c2b30018ff0700a1c0b30070c2b300c8
:10103c0015ff0700f1c0b30080c2b30012ff070018
:10104c0001c1b300c0c2b3000fff070081c8b300d9
:10105c00d0c2b3000cff070081c0b300e0c2b300e4
:10106c0009ff0700a0c2b300f0fe070000427800a1
:10107c00044f78001e04a0009e407800a0c2b3006c
:10108c0001ff07000080fa00000006000000fa00d3
:10109c00e082a900e482a90000e8230001002000fe
:1010ac004f080700e482a80000e82300010020009c
:1010bc004b080700e482a9000080fa00000006003b
:1010cc000000fa00e482a80000e8230001002000e0
:1010dc0043080700e482a9000080fa000000060023
:1010ec000000fa0000e82300010020003c08070083
:1010fc000080fa00000006000200fa00004f7800a1
:10110c00e082a9001e427800e04f520009003a002c
:10111c00e482a8000019200001002000300807001c
:10112c00e482a90000192000010020002c0807000f
:10113c0008003700e482a9000019200001002000fb
:10114c0027080700e482a8000019200001002000f5
:10115c00230807000080fa00000006000400fa00d3
:10116c002047980004c8b300144798000042eb00d5
:10117c00044f78000f003700ae4290001e429000e2
:10118c0004c26200e04f52000300320010c0b300f2
:10119c00d9ff0700020037000040eb00d6ff070024
:1011ac001e4290000482fb000402d10014479800f8
:1011bc001e4fe8001e427800e74f5200eeff36004b
:1011cc000080fa00000006000600fa00e082a80089
:1011dc00000a2000010020000108070014178000fd
:1011ec004422de0061426200344798000002eb00aa
:1011fc00040f7800141780004422de006142620064
:10120c0044479800be4290004e42900084cf52005a
:10121c0009003a0014c0b300753e20001e0378008c
:10122c00850f5300010036000042eb001e0fe80052
:10123c00e04f5200efff3a00843e20009e027800ff
:10124c00848f52000c0032003e429000e04f52005e
:10125c0006003a004e429000e14f520003003a0063
:10126c0014c0b30024479800050037000042eb007f
:10127c00244798000200370000c2eb002447980076
:10128c000019200001002000d50707002e42900015
:10129c00044078000080fa00000006000200fa000a
:1012ac00c9ff070000427800144798000042eb0089
:1012bc00044f7800090037001e429000044242009f
:1012cc0014479800c0ff0700004278009e4290002f
:1012dc0005427200144798001e4fe8001e42780029
:1012ec00e64f5200f4ff36001e4290000440780096
:1012fc000080fa00000006000200fa00881f780047
:10130c006fff070076ff070050c5b30093ff07007f
:10131c0010c0b30078ff070000322000010020004d
:10132c00af07070000cab3008cff070010c0b30062
:10133c0071ff0700a4ff070030c0b30087ff070050
:10134c0010c0b3006cff07009fff07000040eb00cc
:10135c0082ff070010c0b30067ff07009aff070069
:10136c00a0cfb3007dff070010c0b30062ff0700e1
:10137c0095ff07000042eb00044f78000b0037008c
:10138c001e4278000484fb00c4ff07000042780072
:10139c002589200085024400844a780010c0b300df
:1013ac0055ff070088ff07001e4fe8001e4278001b
:1013bc00e44f5200f2ff36001e4278000484fb001a
:1013cc00b6ff070000427800258920008502440002
:1013dc00844a78000040eb0047ff07007aff0700c3
:1013ec0000102700210020007d070700e082a900e3
:1013fc00e482a900001027002100200078070700d4
:10140c00e482a8004f0478000080fa000000060077
:10141c000200fa000042eb00044f78000c00370089
:10142c001e4278000483fb009e4278000582fb007c
:10143c00e5021200248920000482420094427800c4
:10144c008489200004024300054a78001e4fe800fe
:10145c001e427800e24f5200f1ff3600e4cfb30099
:10146c0084427800b6892000054b780000c2eb005e
:10147c0084427800c6892000054b780034c0b30044
:10148c00044f78000d0037001e4378000682fb00e5
:10149c000483e8009e4278000582fb00e5021200fe
:1014ac002489200004824200944278008489200020
:1014bc0004024300054a78001e4fe8001e427800e3
:1014cc00e54f5200f0ff36000080fa0000000600e5
:1014dc00849fbe00861f78003400f80004002000b2
:1014ec00a40188000000fa008460a90014c0b300b5
:1014fc0004437800e5912000864a7800c4488000b7
:10150c000402e800c4488800c4488000f40f52006c
:10151c0006003a000002eb00c448880014c0b30077
:10152c000443780065912000864a78000080fa0018
:10153c003400f9004f0378004f02be000040060053
:10154c003600f800809fbe00829fbe00849fbe00c4
:10155c00869fbe00881f78003400f8000000200031
:10156c00a00188000200fa008660a900d516800050
:10157c000404200004826200e00f520037003a009d
:10158c0010c3b3005d00070000427800044f7800e0
:10159c009e4278000582fb0068026200e00f520058
:1015ac002400320041c0b30090c3b30067000700b1
:1015bc0000302000780007000042780014479800a3
:1015cc000042eb00044f78000c0037001e437800fb
:1015dc000684fb009e4278000582fb001430b000ac
:1015ec00040078006c00070000427800a580200001
:1015fc0085024400844a78001e4fe8001e437800a0
:10160c008682fb001e4290000482fb000482e800ec
:10161c00848f5200edff35008040eb0090c3b30087
:10162c004a00070014c0b30004437800c5882000aa
:10163c00864a78009e4278000582fb0061026200b7
:10164c0004427800e04f52000400320014c0b30092
:10165c0084427800d6882000054b7800141780004f
:10166c0061026200e00f520008003a00151780007a
:10167c000402200004826200e00f520002003200db
:10168c00e4a2a90001003700e4a2a8000080fa003f
:10169c003400f9004f0478004f03be004f02be0027
:1016ac004f01be004f00be003600f900004006009e
:1016bc00849fbe003400f80004002000a4018800c0
:1016cc000000fa008bc0a90023e6a80015178000c3
:1016dc000408200004826200e00f52000200320075
:1016ec00e4e2a90001003700e4e2a8000080fa005f
:1016fc003400f9004f02be00004006000400fa005e
:10170c00204798000042eb00044f7800ec22a9001f
:10171c000001200001002000b10607002e429000bd
:10172c000442420004407800effb070000fc070075
:10173c0000427800044f7800ec22a8001e4278008a
:10174c00044078000080fa00000006000200fa0055
:10175c00004f780011479800ec22a90000012000ee
:10176c00010020009e0607009e4278000582fb00c7
:10177c0004024200044278000404a00004407800f3
:10178c00d9fb07001e409000d7fb0700ec22a800f5
:10179c000080fa00000006000400fa001007980010
:1017ac0097fb07000042eb00044f7800ec22a900e5
:1017bc001e0290004322de008442780004c8b3006d
:1017cc0004c2720004407800c7fb07001e029000a0
:1017dc008442780054002000042add000440780084
:1017ec00c1fb0700d2fb070000427800044f7800d1
:1017fc00ec22a80095fb07001e42780004407800fc
:10180c000080fa00000006000400fa00000f7800c7
:10181c00214798007afb0700ec22a9001e027800f1
:10182c004322de008442780004c8b30004c2720074
:10183c0004407800acfb07001e027800844278005c
:10184c0054002000042add000444a0000440780069
:10185c00a5fb07002e409000a3fb0700ec22a8007c
:10186c007afb07000080fa00000006000000fa0076
:10187c0004802f00f57f20000400be000080fa00d9
:10188c00000006000000fa0001c8b300e0c3b3007a
:10189c00aeff070000000000e0c3b30097ff070095
:1018ac00004278000482fb0061026200e00f5200eb
:1018bc00f9ff320000212000b7ff0700004278003a
:1018cc00044078000080fa00000006000000fa00d6
:1018dc00ec02a90000f421000100200040060700e2
:1018ec00ec02a80000d02700010020003c060700f5
:1018fc000080fa00000006000000fa0081c9b30065
:10190c0080c1b30091ff070051c9b300e0c2b3001e
:10191c008eff070031c0b30000202000baff070083
:10192c0021c0b30010202000b7ff070001c8b3008e
:10193c0020202000b4ff070001c9b3006020200064
:10194c00b1ff070001c8b30070202000aeff0700f4
:10195c0001c1b30080202000abff070011c2b3000f
:10196c0000222000a8ff070001c8b300a0c3b300e9
:10197c0076ff070001c6b300f0c3b30073ff070086
:10198c0001c4b300e0c3b30070ff0700c1c0b300d3
:10199c00d0c0b3006dff0700b0c0b300b6000700a5
:1019ac0001c8b30020c2b30068ff070010c3b30026
:1019bc0052ff070061cfb30020c3b30063ff0700e1
:1019cc0061e0a8000080fa00000006000000fa00a8
:1019dc0084448000044278008440780010c0b30036
:1019ec005aff0700844480004822de00044278003d
:1019fc008440780020c0b30054ff070004458000e9
:101a0c00044278008440780030c0b3004fff0700d8
:101a1c00044580004822de000442780084407800af
:101a2c0040c0b30049ff07008489200014427800ad
:101a3c008440780050c0b30044ff07009489200014
:101a4c00144278008440780060c0b3003fff070068
:101a5c00a4892000144278008440780070c0b30040
:101a6c003aff0700b48920001442780084407800c3
:101a7c0080c0b30035ff0700c489200014427800f1
:101a8c008440780090c0b30030ff0700d489200058
:101a9c001442780084407800a0c0b3002bff0700ec
:101aac00e48920001442780084407800b0c0b30070
:101abc0026ff0700f4892000144278008440780047
:101acc00c0c0b30021ff07000080fa000000060030
:101adc000000fa0041c0b300a0c2b3001bff070016
:101aec0001c8b30020c2b30018ff070001c8b3003f
:101afc0050c3b30015ff07000080fa000000060079
:101b0c000000fa0001ccb30020c2b3000fff0700a5
:101b1c0001c8b30020c2b3000cff070041c0b300e2
:101b2c0060c3b30009ff07008040eb0060c3b30043
:101b3c0006ff070000d0270001002000a8050700c1
:101b4c000080fa00000006000000fa00690007009f
:101b5c00ab0107000080fa00000006000600fa0046
:101b6c001007980041479800d48a2000144278004e
:101b7c00844078000000eb0023ff0700e48a20007b
:101b8c001442780084407800100020001eff0700eb
:101b9c000042eb00044f78000c0037001e0290004e
:101bac00944278001e0290000402e800140798008a
:101bbc001e4378000682fb000482e8008540780012
:101bcc000400780010ff07001e4fe8004e42900002
:101bdc009e42780084cf5200f0ff39000042eb00a7
:101bec0004437800d5882000864a780010c3b300df
:101bfc00c2fe0700e4a2a8001e0290001442780066
:101c0c008482fb000402200004826200e00f520078
:101c1c000300320054c0b300044f780002003700b8
:101c2c0014c0b300044f78009e407800b0c1b300dc
:101c3c00c6fe07000042eb00044f780000e82300ca
:101c4c000100200066050700d488200014427800ab
:101c5c00e04f520005003a001e4fe80014c3b300d9
:101c6c009e42780084cf5200f4ff3600e4a2a90013
:101c7c000080fa00000006000400fa0020479800db
:101c8c002e429000eb42520044002000042add005a
:101c9c00044f78001e427800634f72009e4078001b
:101cac0000202000d8fe070041c0b30060c3b30081
:101cbc00a6fe07008040eb0060c3b300a3fe070044
:101ccc0000c8200001002000450507000080fa0034
:101cdc00000006000200fa00004f78000080fa00b5
:101cec00000006000200fa00004f78000080fa00a5
:101cfc00000006000000fa00b4c0b30004437800f2
:101d0c0025802000864a780004802f00f57f200073
:101d1c0024408800354088000042eb0004437800e2
:101d2c0085802000864a780014c0b30004437800f4
:101d3c0095802000864a7800e4fe0700eefe07003e
:101d4c0084c0b30004437800b5882000864a78002c
:101d5c000042eb0004437800c5882000864a7800d6
:101d6c000080fa00000006000000fa000080fa0073
:101d7c00000006000000fa00b4882000144278002d
:101d8c00e94f520002003a0094c0b300140037002f
:101d9c00b488200014427800e84f520002003a0048
:101dac0084c0b3000e003700b488200014427800c1
:101dbc00e64f520009003a00b2fe070000427800dc
:101dcc0005c6b300854f5200020036000042eb00fe
:101ddc000300370044c0b3000100370054c0b30007
:101dec00044078000080fa00000006000200fa00af
:101dfc00000f7800b488200014427800e94f52009c
:101e0c0002003a0094c0b30011003700b4882000df
:101e1c0014427800e84f520002003a0084c0b3002c
:101e2c000b003700b488200014427800e64f5200b3
:101e3c0006003a0093fe0700004278009e027800ec
:101e4c00844a780074c0b3000100370054c0b3005a
:101e5c00044078000080fa00000006000400fa003c
:101e6c00004f7800110798001e427800e04f520096
:101e7c0006003a001e029000258020009542780052
:101e8c00054a780074c0b3001c0037001e4278006d
:101e9c00e14f520006003a001e03900024408000df
:101eac0035408000048bbe0074c0b30013003700b3
:101ebc001e427800e24f520006003a001e029000cb
:101ecc008580200095427800054a780074c0b300e4
:101edc000a0037001e427800e34f520006003a0019
:101eec001e0290009580200095427800054a7800eb
:101efc0074c0b30001003700a4c0b30004407800e4
:101f0c000080fa00000006000200fa00004f780082
:101f1c00b4882000144278009e42780084cf52008e
:101f2c0002003a001e427800380037001e4278004a
:101f3c00e64f520011003a00b48820001442780099
:101f4c00e84f520007003a00fffe070064c0b300e0
:101f5c0004437800b5882000864a780074c0b3002a
:101f6c002a003700b488200014427800e94f520050
:101f7c0025003a0024c0b300240037001e4278002c
:101f8c00e94f520008003a00b4882000144278004f
:101f9c00e94f520002003a0024c0b3001b00370086
:101fac0074c0b300190037001e427800e84f52008d
:101fbc000b003a00b488200014427800e64f52001f
:101fcc0011003a00c2fe070084c0b300044378003d
:101fdc00b5882000864a780074c0b3000b00370027
:101fec001e427800e34f520007003a00b8fe07008b
:101ffc0084c0b30004437800b5882000864a78007a
:10200c0074c0b3000100370054c0b3000440780022
:10201c000080fa00000006000a00fa0060479800f1
:10202c00410798006e429000e04f520022003a00a7
:10203c004e029000144f78009e4278000582fb00ff
:10204c0015002000042add006123b9002440800023
:10205c003540800006007800070378008403780080
:10206c0005027800070060000402630005002000f0
:10207c00c022dd00040020000403be006102b80091
:10208c000403730085837300e00f5300e08f5b0043
:10209c00070032009e43780026802000074b780012
:1020ac001e407800f4fe070074c0b30051003700e6
:1020bc0054c0b3004f0037006e429000e14f520005
:1020cc0022003a004e0290001403be00160798003e
:1020dc0027079800e5fd07000002be000483ea0014
:1020ec008583ea001e029000ae0290000600780084
:1020fc00070378008403780005027800070060006d
:10210c000402630005002000c022dd000400200052
:10211c000403be006102b8000403730085837300de
:10212c00e00f5300e08f5b0006003a004e02900077
:10213c001402be00244088003540880074c0b300ef
:10214c002c00370054c0b3002a0037006e429000b8
:10215c00e24f52000f003a004e029000144f7800ec
:10216c00f4cbb3009e42780084cf520007003e00af
:10217c001e42780087802000844b78001e40780037
:10218c00d8fe070074c0b3001a00370054c0b30067
:10219c00180037006e429000e34f520014003a00d2
:1021ac004e029000144f78001e427800e14f52000e
:1021bc00060032001e427800e24f5200030032004b
:1021cc001e427800e34f520007003a001e4378008d
:1021dc0095802000864a78001e407800bdfe0700de
:1021ec0074c0b3000300370054c0b30001003700c3
:1021fc00a4c0b300044078000080fa000000060080
:10220c000000fa00a1fb07003bfc070080fc070064
:10221c000042eb0004437800958a2000864a78003f
:10222c0044c0b30004437800858a2000864a7800b5
:10223c0034cab30004437800758a2000864a7800bb
:10224c0000c2eb0004437800658a2000864a7800bf
:10225c00e4cfb30004437800558a2000864a780006
:10226c00c4cdb30004437800458a2000864a780028
:10227c0084c7b30004437800358a2000864a78006e
:10228c0074c2b30004437800258a2000864a780083
:10229c000002eb00544588001400200084448800a0
:1022ac0024002000044588000042eb000443780021
:1022bc00e5882000864a7800c4fd07000080fa00fb
:1022cc00000006000000fa00b3f8070000027800d6
:1022dc000442780004437800c58a2000864a7800be
:1022ec000080fa00000006001400fa004047980035
:1022fc003107980042079800234f98006407980014
:10230c007507980006579800170f98004e429000da
:10231c00e24f5200050032004e429000e34f520053
:10232c000200320084ceb300f300370084448000f6
:10233c00be029000848f52000200320084ceb300a3
:10234c00ed0037002e4a9000e24f5200050032009b
:10235c002e4a9000e34f52000200320084ceb300ac
:10236c00e50037008e52900064c6b30084cf520053
:10237c000200360054ceb300df0037006ef2970037
:10238c008482fb00e40f200004826200e00f520004
:10239c000200320084ceb300d700370054c0b30023
:1023ac00044f78004e429000e24f520002003a0077
:1023bc001ecfe800020037001e427800684f420032
:1023cc002e4a9000e24f520002003a001ecfe80065
:1023dc00020037009e42780068cf42001e4278000f
:1023ec00d68a2000044b7800d58a200095427800cc
:1023fc000e52900004c2420004437800e58a20008b
:10240c00864a7800a4802000140798000042eb0054
:10241c00044f780004c4b3001e4f72006ef2970094
:10242c000482fb006102620004427800e04f52001b
:10243c000200320004c2b3001e4f72001e04a00042
:10244c001e0290001e4a78001e0290000402e80052
:10245c00140798000042eb00044f78004e429000a5
:10246c000482fb004622dd00844278001e42780084
:10247c0004c27200044f78002e4a90000482fb00c4
:10248c004222dd00844278001e42780004c27200b1
:10249c00044f78001e0290001e4a78001e02900025
:1024ac000402e80014079800c48a20001442780043
:1024bc009e029000844a78009e0290008502e800fb
:1024cc00150798000442e80004437800c58a2000f0
:1024dc00864a780084448000844278001e02900072
:1024ec00054a78001e0290000402e80014079800c8
:1024fc00844480004822de00844278001e02900052
:10250c00054a78001e0290000402e80014079800a7
:10251c002e4a9000e24f520012003a000042eb00ab
:10252c00044f78000b0037007e0290009442780034
:10253c001e029000054a78001e0290000402e8007a
:10254c00140798007e0290000402e80074079800bb
:10255c001e4fe8001e427800e14f5200f2ff360099
:10256c00110037000042eb00044f78000b003700dd
:10257c007e029000944278001e029000054a78007a
:10258c001e0290000402e800140798007e029000de
:10259c000402e800740798001e4fe8001e42780001
:1025ac00e74f5200f2ff36004e429000e24f5200cd
:1025bc0012003a000042eb00044f78000b00370089
:1025cc004e029000944278001e029000054a78005a
:1025dc001e0290000402e800140798004e029000be
:1025ec000402e800440798001e4fe8001e427800e1
:1025fc00e14f5200f2ff3600110037000042eb00b1
:10260c00044f78000b0037004e0290009442780083
:10261c001e029000054a78001e0290000402e80099
:10262c00140798004e0290000402e800440798003a
:10263c001e4fe8001e427800e74f5200f2ff3600b2
:10264c000042eb00044f78000b0037001e0a90008c
:10265c00944278001e029000054a78001e029000f9
:10266c000402e800140798001e0a90000402e80017
:10267c00140f98001e4fe8000e5290009e427800f6
:10268c0084cf5200f1ff39002ffd0700e48a2000af
:10269c001442780084407800a08020002ffd0700b1
:1026ac0040c2b30015fc070000427800044f7800cc
:1026bc0007fd07001e4278008482fb000402200004
:1026cc0004826200e00f52000200320014ceb3000c
:1026dc00090037009e4278000582fb00610262000f
:1026ec0004427800e04f52000200320094ceb30056
:1026fc00010037000042eb00044078000080fa0033
:10270c00000006000e00fa00404798005147980060
:10271c003207980043079800244f9800354f9800d3
:10272c00660798004e429000ea4f520005003e00aa
:10273c004e429000fa4f52000200360084ceb30095
:10274c00f30037005e429000e24f52000500320069
:10275c005e429000e34f52000200320084ceb30080
:10276c00eb00370064024700840078000040eb0067
:10277c0029fe07003e0290008444880074c0b30018
:10278c00044f78005e429000e24f520002003a0083
:10279c001ecfe800020037009e42780068cf42004e
:1027ac001e437800684f43009e427800d48a200074
:1027bc00054a7800d48a20001442780004c2e8004c
:1027cc0084427800e68a2000054b7800a480200023
:1027dc00140798000042eb00044f780004c4b300c7
:1027ec001e4f720004c2b3001e4f72001e437800cd
:1027fc00634f73001e0290001e4a78001e02900068
:10280c000402e800140798000042eb00044f780023
:10281c0004ccb3001e4f72005e4290000482fb0099
:10282c004222dd00844278001e42780004c272000d
:10283c00044f78001e0290001e4a78001e02900081
:10284c000402e80014079800c48a2000144278009f
:10285c009e029000844a78009e0290008502e80057
:10286c00150798000442e80004437800c58a20004c
:10287c00864a78003e029000844278001e02900046
:10288c00054a78001e0290000402e8001407980024
:10289c003e0290004822de00844278001e02900026
:1028ac00054a78001e0290000402e8001407980004
:1028bc005e429000e24f520012003a000042eb00e0
:1028cc00044f78000b0037004e02900094427800c1
:1028dc001e029000054a78001e0290000402e800d7
:1028ec00140798004e0290000402e8004407980078
:1028fc001e4fe8001e427800e14f5200f2ff3600f6
:10290c00110037000042eb00044f78000b00370039
:10291c004e029000944278001e029000054a780006
:10292c001e0290000402e800140798004e0290006a
:10293c000402e800440798001e4fe8001e4278008d
:10294c00e74f5200f2ff36001e02900080c2eb00ef
:10295c00054a78001e0290000402e8001407980053
:10296c001e02900080c2eb00054a78001e02900007
:10297c000402e800140798000042eb00044f7800b2
:10298c000b0037001e4278008482fb0084892000f3
:10299c0004824200944278001e029000054a78009e
:1029ac001e0290000402e800140798001e4fe80075
:1029bc001e427800e74f5200f2ff36001e029000d4
:1029cc0015c0b300054a78001e0290000402e8000e
:1029dc00140798001e029000ae4a9000054a780039
:1029ec001e0290000402e80014079800e48a2000fc
:1029fc001442780084407800a080200057fc070027
:102a0c0040c2b3003dfb070000427800044f780041
:102a1c001e4378000682fb0061026200e00f520048
:102a2c0008003a001e4278008482fb000402200059
:102a3c0004826200e00f52000200320014ceb30098
:102a4c0033003700008027006bf807000042eb00d2
:102a5c0004437800c5882000864a780060c0b30023
:102a6c0029fd070000000000e491200014427800ca
:102a7c00e04f520004003a00c48820001442780051
:102a8c00e04f5200f8ff320080c0b3001efd07007b
:102a9c00c488200014427800e04f520006003a002f
:102aac000042eb0004437800e5912000864a780050
:102abc00b4ceb30016003700148220001442780004
:102acc00e24f520010003a00448220001442780079
:102adc00e04f52000c003a0024822000144278008f
:102aec008482fb0034822000144278000482fb00b4
:102afc004822dd00848242006e029000050a7800b4
:102b0c000042eb000200370044822000144278009f
:102b1c00044078000080fa00000006000400fa006f
:102b2c00000f780011079800040420009e02780022
:102b3c00848f520009003a0020c1b300effa07005d
:102b4c0000427800844278000574a1001e029000b7
:102b5c00054a78000042eb001c003700e40420001a
:102b6c009e027800848f520008003a0010c1b30016
:102b7c00e2fa070000427800e74262001e02900071
:102b8c00054a78000042eb0010003700f4042000e6
:102b9c009e027800848f52000b003a0010c1b300e3
:102bac00d6fa0700004278000482fb004322de00c4
:102bbc0004427800e34262001e029000054a78004d
:102bcc000042eb000100370044cfb3000440780012
:102bdc000080fa00000006000600fa0010079800ba
:102bec00210798009e02900004042000848f52005c
:102bfc0011003a0020c1b300c0fa0700004278006f
:102c0c0005c8b300054f62002e02900014427800f4
:102c1c00844278000574a1001e42780004c2720040
:102c2c00044f78009e40780020c1b300c7fa07001b
:102c3c000042eb002c0037009e029000e4042000c0
:102c4c00848f520010003a0010c1b300abfa070099
:102c5c000042780085cfb300054f62002e02900031
:102c6c0014427800e74262001e42780004c27200ef
:102c7c00044f78009e40780010c1b300b3fa0700ef
:102c8c000042eb00180037009e029000f404200074
:102c9c00848f520013003a0010c1b30097fa07005a
:102cac000042780075ceb300054f62002e029000f2
:102cbc00144278000482fb00630262004322dd00b0
:102ccc00844278001e42780004c27200044f7800df
:102cdc009e40780010c1b3009cfa07000042eb0044
:102cec000100370044cfb300044078000080fa00a4
:102cfc00000006000600fa00404798004e42900083
:102d0c00e14f520002003a00f0fa070017003700ba
:102d1c008e0078000004200080ff07000e02e800ff
:102d2c0084007800e00420007cff07000e82e8009d
:102d3c0084007800f004200078ff0700eefa07000a
:102d4c008e00780000042000a3ff07000e02e800ac
:102d5c0084007800e00420009fff07000e82e8004a
:102d6c0084007800f00420009bff07000042eb0079
:102d7c00044078000080fa00000006000600fa000b
:102d8c00004f780011079800220798002e0290003f
:102d9c00e00f520003003a0080c0b3005afc070059
:102dac000f0037002e00900093f707000042eb0055
:102dbc0004437800c5882000864a780060c0b300c0
:102dcc0051fc070000000000e49120001442780040
:102ddc00e04f5200fcff320080c0b3004afc0700f9
:102dec000042eb00044078000080fa00000006006e
:102dfc000000fa00f0c2a900f4c2a80000e8230009
:102e0c0001002000f600070060c0b300fdf60700cb
:102e1c0000027800040078003ef7070000427800ba
:102e2c0004437800c5912000864a7800f4c2a900ba
:102e3c0011c0b300a0c2b30093f7070000d0270065
:102e4c0001002000e600070000922000dcf70700dc
:102e5c008040eb00a0c2b3008bf707000080fa00a3
:102e6c00000006000200fa000042eb00044f78005c
:102e7c001e4278000483fb00d59120009542780017
:102e8c00f48a200004024300054a78001e4fe80033
:102e9c001e4278008482fb00f48a200004824200e7
:102eac0045c0b300054a78001e4fe8001e4278006a
:102ebc008482fb00f48a2000048242008042eb00f2
:102ecc00054a78001e4fe8001e4278008482fb0001
:102edc00f48a20000482420015c0b300054a780031
:102eec001e4fe8009e4278000583fb00d44880000a
:102efc0084427800f48a200004024300054a7800da
:102f0c001e4fe8001e4278000483fb00d44880006a
:102f1c004822de0084427800f48a20000402430038
:102f2c00054a78001e4fe8009e4278000583fb009e
:102f3c00c591200095427800f48a200004024300d9
:102f4c00054a78001e4fe8001e4278000483fb00ff
:102f5c000449800084427800f48a20000402430073
:102f6c00054a78001e4fe8009e4278000583fb005e
:102f7c000449800048a2de0084427800f48a2000d4
:102f8c0004024300054a78001e4fe8001e427800f8
:102f9c000483fb001449800084427800f48a2000ea
:102fac0004024300054a78001e4fe8009e42780058
:102fbc000583fb001449800048a2de00844278009f
:102fcc00f48a200004024300054a78001e4fe800f2
:102fdc001e4278000483fb00244980008442780060
:102fec00f48a200004024300054a78001e4fe800d2
:102ffc009e4278000583fb002449800048a2de0035
:10300c0084427800f48a200004024300054a7800c8
:10301c001e4fe8009e42780054912000054a78002b
:10302c000080fa00000006000200fa000002eb002b
:10303c00c44888000042eb0004437800d59120007e
:10304c00864a78000042eb0004437800759120001a
:10305c00864a780005f60700e4e2a80000a02600e6
:10306c00810120005e000700e4e2a90000a0260018
:10307c00810120005a000700e4c2a80000a026002d
:10308c008101200056000700e4c2a90000a0260020
:10309c008101200052000700e4a2a80000a0260035
:1030ac00810120004e000700e4a2a90000a0260028
:1030bc00810120004a0007001bf70700000278007e
:1030cc00e10f520007003a00d5912000954278009c
:1030dc0004c8b30004c2720004437800d5912000e8
:1030ec00864a780003fb070045fc070020002000ff
:1030fc0022f5070073fc070075fa07008660a9002b
:10310c009660a8003aff070056ff07005691200072
:10311c0016437800a58a200084448000018a200090
:10312c008044800017c0b300871f780017c0b3001d
:10313c00871f7800f78a200023c0b30001017800b4
:10314c008000780020c0b30067fc0700e4875700bc
:10315c0000427800044f78000100370000000000a6
:10316c000040fe000040fe006491200014427800f4
:10317c00e04f5200f9ff32000042eb0004437800ac
:10318c0065912000864a780019ff070035ff07007b
:10319c005691200016437800a58a200084448000b4
:1031ac00018a20008044800017c0b300871f78007c
:1031bc0017c0b300871f7800f78a200023c0b30024
:1031cc00010178008000780020c0b30046fc0700a5
:1031dc00e487570000427800044f7800e0ff370086
:020000040000fa
:1031ec00f03fb1000180b10006003500ee0309008c
:1031fc0000000000403fb1000180b100fbff3d002a
:10320c001000b000203fb000020035000080090023
:08321c000000000000000600a4
:020000040000fa
:103224000008000026010000000000002a09000038
:103234000200000000000000260900000400000055
:08324400000000000000000082
:020000040000fa
:020000040005f5
:0457f800fdf30000bd
:020000040000fa
:020000040005f5
:0457fc007f3d0000ed
:00000001FF
