:020000040000fa
:080000000002040000000000f2
:020000040000fa
:100008009a0200009a0200009a0200009a02000078
:100018009a0200009a0200009a0200009a02000068
:100028009a0200009a0200009a0200008608000066
:100038009a0200009a0200009a0200009a02000048
:100048009a0200009a0200009a020000b608000016
:10005800f00800009a0200009a0200009a020000cc
:100068009a0200009a0200009a0200003809000073
:100078009a0200009a0200009a0200009a02000008
:100088009a0200009a0200009a0200009a020000f8
:100098009a0200009a0200009a0200009a020000e8
:1000a8009a0200009a0200009a0200009a020000d8
:1000b8009a0200009a0200009a0200009a020000c8
:1000c8009a0200009a0200009a0200009a020000b8
:1000d8009a0200009a0200009a0200009a020000a8
:1000e8009a0200009a0200009a0200009a02000098
:1000f8009a0200009a0200009a0200009a02000088
:100108009a0200009a0200009a0200009a02000077
:100118009a0200009a020000ac0900009a0200004e
:100128009a0200009a0200009a0200009a02000057
:100138009a0200009a0200009a0200009a02000047
:100148009a0200009a0200009a0200009a02000037
:100158009a0200009a0200009a0200009a02000027
:100168009a0200009a0200009a0200009a02000017
:100178009a0200009a0200009a0200009a02000007
:100188009a0200009a0200009a0200009a020000f7
:100198009a0200009a0200009a0200009a020000e7
:1001a8009a0200009a0200009a0200009a020000d7
:1001b8009a0200009a0200009a0200009a020000c7
:1001c8009a0200009a0200009a0200009a020000b7
:1001d8009a0200009a0200009a0200009a020000a7
:1001e8009a0200009a0200009a0200009a02000097
:0801f8009a0200009a020000c7
:020000040000fa
:100208009a0200009a0200009a0200009a02000076
:100218009a0200009a0200009a0200009a02000066
:100228009a0200009a0200009a0200008608000064
:100238009a0200009a0200009a0200009a02000046
:100248009a0200009a0200009a020000b608000014
:10025800f00800009a0200009a0200009a020000ca
:100268009a0200009a0200009a0200003809000071
:100278009a0200009a0200009a0200009a02000006
:100288009a0200009a0200009a0200009a020000f6
:100298009a0200009a0200009a0200009a020000e6
:1002a8009a0200009a0200009a0200009a020000d6
:1002b8009a0200009a0200009a0200009a020000c6
:1002c8009a0200009a0200009a0200009a020000b6
:1002d8009a0200009a0200009a0200009a020000a6
:1002e8009a0200009a0200009a0200009a02000096
:1002f8009a0200009a0200009a0200009a02000086
:100308009a0200009a0200009a0200009a02000075
:100318009a0200009a020000ac0900009a0200004c
:100328009a0200009a0200009a0200009a02000055
:100338009a0200009a0200009a0200009a02000045
:100348009a0200009a0200009a0200009a02000035
:100358009a0200009a0200009a0200009a02000025
:100368009a0200009a0200009a0200009a02000015
:100378009a0200009a0200009a0200009a02000005
:100388009a0200009a0200009a0200009a020000f5
:100398009a0200009a0200009a0200009a020000e5
:1003a8009a0200009a0200009a0200009a020000d5
:1003b8009a0200009a0200009a0200009a020000c5
:1003c8009a0200009a0200009a0200009a020000b5
:1003d8009a0200009a0200009a0200009a020000a5
:1003e8009a0200009a0200009a0200009a02000095
:0803f8009a0200009a020000c5
:020000040000fa
:100400004fc120000e7f24000e0188000000000074
:10041000000020000000e000020032000001200087
:10042000200288000c00070000732100010020005a
:1004300011000700000020000000e0000200320070
:1004400000000200000000004c1502000000000047
:100450000040da000000fe004440a9000000200037
:100460000000e0000300320000002000a00188002e
:100470004440a80000000600910188008000780038
:100480000000eb0015003700e280400032a0b4000d
:100490009101ba00e280400032a0b4009102ba009b
:1004a000e280400032a0b4000002eb00472bde00e7
:1004b000f507b200602ce10004003a000059eb009f
:1004c0008301e900fdff3e00040037006128e100e0
:1004d000010032000082eb00040007001101ba00a5
:1004e0000200e000e8ff3a00000006003159ba00bf
:1004f0008301e9000c0032002159ba008301e900b0
:10050000080032000400e00003003a00e2804000ee
:1005100032a0b400f5ff370011d9ba008301e90019
:10052000faff3a008100e800e180400032a0b40008
:10053000000006000040da000000fe006022b80063
:10054000060220000000d0008180d2000482d20088
:100550008582d2000000a0000202520083825a006d
:10056000030031000202420083824a000000a10021
:100570000603e900f3ff3a0000000600efff070062
:100580000400be000000060015c0b30001002000fa
:1005900024c120007060880081608800054a7800ce
:1005a0000000060024c120008042eb0094cf12001e
:1005b00002003a0010002000f3ff07007060800086
:1005c00081608000d2e62400631c2400090007003b
:1005d00094032300050020000002420081824a00ab
:1005e00074608800856088000500780000f0a10034
:1005f00000000600020ab900001bb9000200b800a2
:0c06000081004200810043000000060061
:020000040000fa
:10060c000200fa00140280004522de0067426200fc
:10061c000482fb000440880094028000040f7800e0
:10062c00ff3ffc00140280000450a0000460a000f6
:10063c000470a000140288001e0278009402880046
:10064c00000088000080fa00000006000200fa009a
:10065c0094028000040f7800ff3ffc0004408000ef
:10066c0004427800674262000482fb006702620069
:10067c004522dd0016028000f5f12f008502630093
:10068c0005027200140288001e0278009402880091
:10069c00000088000080fa00000006000000fa004c
:1006ac0042a2a800141280000420a0000430a00074
:1006bc000440a00014128800141280000400a10051
:1006cc000410a100141288004302a8004322a800c1
:1006dc0042c2a90040c2a90041e2a8008540a9007d
:1006ec000080fa00000006000200fa00004f7800bb
:1006fc008540a9009e4278000582fb0044128800c8
:10070c0000000000250480000440200004826200e8
:10071c00e00f5200fbff32008540a900441280001c
:10072c0004427800044078000080fa0000000600c3
:10073c000000fa000002eb004412880000000000e8
:10074c00250480000440200004826200e00f520067
:10075c00fbff32008540a90044128000044278005f
:10076c00044078000080fa00000006000000fa0047
:10077c000500fc0054052000343b8800a40a20002e
:10078c00343b880027a6a8000080fa000000060071
:10079c000800fa00004f7800114798002247980093
:1007ac00334798004447980055479800664798008f
:1007bc00a53b8000f4df2f0004826200a43b88007c
:1007cc00eaff070027e6a900343180000480a0006e
:1007dc000490a000343188009e4278000582fb0012
:1007ec00243188001e4290000482fb00c822dd00e8
:1007fc002e4290000482fb00050272002431880016
:10080c003e4290000482fb00c822dd004e42900064
:10081c000482fb0005027200243188005e429000c5
:10082c000482fb00c822dd006e4290000482fb00b3
:10083c00050272002431880027e6a80027a6a9002b
:10084c001431800004a0a00004b0a10004c0a100d9
:10085c0004d0a1001431880023e6a8008bc0a900a5
:10086c009bc0a8000080fa00000006000000fa00ff
:10087c000003eb00640420007505200027742000a1
:10088c00844b7800854b7800864b7800453580008a
:10089c0004fc2f00048262006401b300443588001c
:1008ac00c5368000f40f2c00848262000470200096
:1008bc0005027200c4368800a536800004fc2f00a7
:1008cc00048262000430a000a43688002535800024
:1008dc0004fc2f00048262007401b30024358800ec
:1008ec00c536800004fc2f00048262003400b30083
:1008fc00c4368800260420006404200075052000fe
:10090c0027742000844b7800854b7800864b780048
:10091c00f4fb2f00641988004516800004072000a2
:10092c000482620044168800c5168000e40f2f0074
:10093c0004826200c41688000517800004ff2f0093
:10094c0004826200041788004517800034f82f00d9
:10095c0004826200441788008517800034c72f007a
:10096c00048262008417880065168000040720004a
:10097c000482620064168800e5168000e40f2f00e4
:10098c0004826200e41688002517800004ff2f0003
:10099c0004826200241788006517800034f82f0049
:1009ac000482620064178800a517800034c72f00ea
:1009bc0004826200a4178800e0a2a900e0c2a9008a
:1009cc00e0e2a900e4a2a900e4c2a900e4e2a900c3
:1009dc00e822a900ec22a80030ff07000421a8009f
:1009ec000002eb00040888000400280014088800aa
:1009fc0005e1a8008460a9009460a8000042eb0007
:100a0c000443780085a02000864a780094012000d9
:100a1c004411880023a2a8008560a9008580a90044
:100a2c009560a8009580a80021e2a80081e0a800ac
:100a3c00747d2f00843b88000082eb00943b88007f
:100a4c000082eb00a43b88000082eb00b43b8800e2
:100a5c000082eb00c43b88000082eb00d43b880092
:100a6c00e802a9000080fa00000006000800fa0065
:100a7c00604798007007a90021e3a80025198000a1
:100a8c0004f021000502720024198800f4c1b3009f
:100a9c000443780045322000864a78002a23a800b7
:100aac004519800004fe2f00048262001401b3007b
:100abc00441988002023a8000032200001002000e7
:100acc00d60807002023a9000000000004198000ac
:100adc0061026200e00f5200fcff3200041880003b
:100aec00040f78001e027800050020000401be00ef
:100afc0000b52b00210120008dfe07000002be0076
:100b0c0014079800250798001e02900014408800d6
:100b1c006e4290007f4262000482fb007f02620002
:100b2c004619800005fe2f00850263000502720045
:100b3c00441988002023a800003220000100200066
:100b4c00b60807002023a90000000000041980004b
:100b5c0061026200e00f5200fcff320005188000b9
:100b6c00050f780021e3a9007007a8001e02780089
:100b7c00040078000080fa00000006000800fa006b
:100b8c0030079800154080003e02900004aab9007e
:100b9c0084027800f43f2000110009008482d80000
:100bac000002780005002000140798002507980023
:100bbc001e039000ae039000c4e02f00f5ff2f0041
:100bcc000602420087824a00140798002507980005
:100bdc001e029000ae029000a20020000300200034
:100bec000400be0052fe07000002be00044f780055
:100bfc001e029000ae029000a20020000300200014
:100c0c000400be005afe07000002be000403be0032
:100c1c004400200005002000840f5300858f5b00ea
:100c2c00010036001e4fe8001e4278000440780098
:100c3c000080fa00000006000200fa00000f7800a5
:100c4c0005e1a9000042eb00044378005580200028
:100c5c00864a78001e027800140888008460a90077
:100c6c0005e1a8000080fa00000006000000fa0070
:100c7c000042eb000443780095a02000864a7800df
:100c8c0074902000144278000483fb0065802000df
:100c9c0085024300954278008582fb00251188006f
:100cac000442e8000443780075902000864a7800de
:100cbc002342a8000080fa00000006000000fa00a1
:100ccc00e082a900e482a90000e8230001002000d2
:100cdc0052080700e482a80000e82300010020006d
:100cec004e080700e482a9000080fa00000006000c
:100cfc000000fa00e482a80000e8230001002000b4
:100d0c0046080700e482a9000080fa0000000600f3
:100d1c000000fa0000e82300010020003f08070053
:100d2c000080fa00000006000200fa00004f780074
:100d3c00e082a9001e427800e04f520009003a0000
:100d4c00e482a800001920000100200033080700ed
:100d5c00e482a90000192000010020002f080700e0
:100d6c0008003700e482a9000019200001002000cf
:100d7c002a080700e482a8000019200001002000c6
:100d8c00260807000080fa00000006000400fa00a4
:100d9c002047980004c8b300144798000042eb00a9
:100dac00044f78000f003700ae4290001e429000b6
:100dbc0004c26200e04f52000300320010c0b300c6
:100dcc00d9ff0700020037000040eb00d6ff0700f8
:100ddc001e4290000482fb000402d10014479800cc
:100dec001e4fe8001e427800e74f5200eeff36001f
:100dfc000080fa00000006000600fa00e082a8005d
:100e0c00000a2000010020000408070014178000cd
:100e1c004422de0061426200344798000002eb007d
:100e2c00040f7800141780004422de006142620037
:100e3c0044479800be4290004e42900084cf52002e
:100e4c0009003a0014c0b300753e20001e03780060
:100e5c00850f5300010036000042eb001e0fe80026
:100e6c00e04f5200efff3a00843e20009e027800d3
:100e7c00848f52000c0032003e429000e04f520032
:100e8c0006003a004e429000e14f520003003a0037
:100e9c0014c0b30024479800050037000042eb0053
:100eac00244798000200370000c2eb00244798004a
:100ebc000019200001002000d80707002e429000e6
:100ecc00044078000080fa00000006000200fa00de
:100edc00c9ff070000427800144798000042eb005d
:100eec00044f7800090037001e4290000442420073
:100efc0014479800c0ff0700004278009e42900003
:100f0c0005427200144798001e4fe8001e427800fc
:100f1c00e64f5200f4ff36001e4290000440780069
:100f2c000080fa00000006000200fa00881f78001a
:100f3c006fff070076ff070050c5b30093ff070053
:100f4c0010c0b30078ff0700003220000100200021
:100f5c00b207070000cab3008cff070010c0b30033
:100f6c0071ff0700a4ff070030c0b30087ff070024
:100f7c0010c0b3006cff07009fff07000040eb00a0
:100f8c0082ff070010c0b30067ff07009aff07003d
:100f9c00a0cfb3007dff070010c0b30062ff0700b5
:100fac0095ff07000042eb00044f78000b00370060
:100fbc001e4278000484fb00c4ff07000042780046
:100fcc0085a9200085024400844a780010c0b30033
:100fdc0055ff070088ff07001e4fe8001e427800ef
:100fec00e44f5200f2ff36001e4278000484fb00ee
:100ffc00b6ff07000042780085a920008502440056
:10100c00844a78000040eb0047ff07007aff070096
:10101c00001027002100200080070700e082a900b3
:10102c00e482a90000102700210020007b070700a4
:10103c00e482a8004f0478000080fa00000006004b
:10104c000200fa000042eb00044f78000c0037005d
:10105c001e4278000483fb009e4278000582fb0050
:10106c00e502120084a92000048242009442780018
:10107c00e4a9200004024300054a78001e4fe80052
:10108c001e427800e24f5200f1ff3600e4cfb3006d
:10109c008442780016aa2000054b780000c2eb00b1
:1010ac008442780026aa2000054b780034c0b30097
:1010bc00044f78000d0037001e4378000682fb00b9
:1010cc000483e8009e4278000582fb00e5021200d2
:1010dc0084a920000482420094427800e4a92000f4
:1010ec0004024300054a78001e4fe8001e427800b7
:1010fc00e54f5200f0ff36000080fa0000000600b9
:10110c00849fbe00861f78003400f8000400200085
:10111c00a40188000000fa008460a90014c0b30088
:10112c000443780055802000864a7800151780000b
:10113c000408200004826200e00f5200020032001a
:10114c00e4e2a90001003700e4e2a8000080fa0004
:10115c003400f9004f0378004f02be000040060037
:10116c00849fbe00861f78003400f8000400200025
:10117c00a40188000200fa008560a90034118000e7
:10118c00044f780085a020009542780004c8b30075
:10119c0084cf52000a00320084a020001442780050
:1011ac000483fb0085902000850243009e4a780052
:1011bc000442e8000443780085a02000864a7800a9
:1011cc000080fa003400f9004f0378004f02be0093
:1011dc0000400600849fbe00861f78003400f80093
:1011ec0004002000a40188000000fa008580a900fa
:1011fc00659020009542780074902000144278008d
:10120c0084cf52000d0036007490200014427800f8
:10121c000483fb0065802000850243009542780022
:10122c008582fb00251188000442e8000443780005
:10123c0075902000864a7800050037002342a900eb
:10124c0014c0b3000443780095a02000864a7800af
:10125c000080fa003400f9004f0378004f02be0002
:10126c00004006003600f800809fbe00829fbe0042
:10127c00849fbe00869fbe003400f8000000200052
:10128c00a00188000200fa008660a900d516800033
:10129c000404200004826200e00f520017003a00a0
:1012ac0010c3b3003400070000427800044f7800ec
:1012bc009e4278000582fb0068026200e00f52003b
:1012cc000400320014c0b3008442780046a9200008
:1012dc00054b78001e4378000682fb006102620019
:1012ec0004427800e04f52000400320014c0b300f6
:1012fc000443780055a92000864a78001417800012
:10130c0061026200e00f520008003a0015178000dd
:10131c000402200004826200e00f5200020032003e
:10132c00e4a2a90001003700e4a2a8000080fa00a2
:10133c003400f9004f03be004f02be004f01be0047
:10134c004f00be003600f900004006003400f800e3
:10135c00881f780008002000a80188004f0478003e
:10136c000000fa008bc0a90023e6a8000080fa0058
:10137c003400f900004006000400fa0020479800f1
:10138c000042eb00044f7800ec22a9000001200081
:10139c0001002000a10607002e42900004424200ea
:1013ac0004407800d0fc0700e1fc07000042780004
:1013bc00044f7800ec22a8001e427800044078000c
:1013cc000080fa00000006000200fa00004f7800ce
:1013dc0011479800ec22a900000120000100200018
:1013ec008e0607009e4278000582fb000402420034
:1013fc00044278000404a00004407800bafc070002
:10140c001e409000b8fc0700ec22a8000080fa00f7
:10141c00000006000400fa00100798000042eb00e0
:10142c00044f7800ec22a9001e0290004322de003b
:10143c008442780004c8b30004c2720004407800ef
:10144c00a9fc07001e029000844278005400200082
:10145c00042add0004407800a3fc0700b4fc07005c
:10146c0000427800044f7800ec22a8001e4278005d
:10147c00044078000080fa00000006000400fa0026
:10148c00000f780021479800ec22a9001e0278007a
:10149c004322de008442780004c8b30004c2720008
:1014ac000440780090fc07001e027800844278000b
:1014bc0054002000042add000444a00004407800fd
:1014cc0089fc07002e40900087fc0700ec22a80046
:1014dc000080fa00000006000000fa0004802f00d3
:1014ec00f57f20000400be000080fa00000006001a
:1014fc000000fa0001c8b300e0c3b300b2ff07005c
:10150c0000000000e0c3b3009bff0700004278001e
:10151c000482fb0061026200e00f5200f9ff32000e
:10152c0000212000bbff0700004278000440780037
:10153c000080fa00000006000000fa00ec02a9008e
:10154c0000f421000100200034060700ec02a80082
:10155c0000d0270001002000300607000080fa00b0
:10156c00000006000000fa0081c9b30080c1b3007e
:10157c0095ff070051c9b300e0c2b30092ff07000a
:10158c0031c0b30000202000bcff070021c0b30015
:10159c0010202000b9ff070001c8b3002020200054
:1015ac00b6ff070001c9b30060202000b3ff07009d
:1015bc0001c8b30070202000b0ff070001c1b300c8
:1015cc0080202000adff070011c2b30000222000d4
:1015dc00aaff070001c8b300a0c3b3007aff07003d
:1015ec0001c6b300f0c3b30077ff070001c4b3001a
:1015fc00e0c3b30074ff0700c1c0b300d0c0b30098
:10160c0071ff0700b0c0b300a400070010c3b30003
:10161c0059ff070061cfb30020c3b3006aff070076
:10162c0061e0a8000080fa00000006000200fa0049
:10163c00b4548000044278008440780010c0b30099
:10164c0061ff0700b45480004822de000442780099
:10165c008440780020c0b3005bff07003455800045
:10166c00044278008440780030c0b30056ff070075
:10167c00345580004822de00044278008440780013
:10168c0040c0b30050ff0700e4a9200014427800ca
:10169c008440780050c0b3004bff0700f4a9200031
:1016ac00144278008440780060c0b30046ff070005
:1016bc0004aa2000144278008440780070c0b30063
:1016cc0041ff070014aa20001442780084407800df
:1016dc0080c0b3003cff070024aa2000144278000d
:1016ec008440780090c0b30037ff070034aa200074
:1016fc001442780084407800a0c0b30032ff070089
:10170c0044aa20001442780084407800b0c0b30092
:10171c002dff070054aa2000144278008440780062
:10172c00c0c0b30028ff07000040eb0012ff070009
:10173c0000427800044f78001e34a0009e407800d0
:10174c000040eb0020ff070010c1b3000aff0700a8
:10175c0000427800044f7800f4cdb3001e4f6200b5
:10176c009e40780010c1b30017ff070080c0eb004b
:10177c0000c1b30014ff07000080fa00000006004f
:10178c000600fa00100798004147980044ba200060
:10179c0014427800844078000000eb0037ff07000b
:1017ac0054ba2000144278008440780010002000c5
:1017bc0032ff07000042eb00044f78000c003700aa
:1017cc001e029000944278001e0290000402e80071
:1017dc00140798001e4378000682fb000482e80080
:1017ec00854078000400780024ff07001e4fe800b5
:1017fc004e4290009e42780084cf5200f0ff390098
:10180c000042eb000443780055a92000864a78007a
:10181c0010c3b300d8fe0700e4a2a8001e0290007b
:10182c00144278008482fb000402200004826200cf
:10183c00e00f52000300320054c0b300044f780094
:10184c000200370014c0b300044f78009e407800ab
:10185c00b0c1b300dcfe07000042eb00044f78007f
:10186c0000e82300010020006c05070054a92000ab
:10187c0014427800e04f520005003a001e4fe80079
:10188c0014c3b3009e42780084cf5200f4ff36009c
:10189c00e4a2a9000080fa00000006000400fa008f
:1018ac00204798002e429000eb425200440020004a
:1018bc00042add00044f78001e427800634f72004a
:1018cc009e40780000202000ecfe070041c0b300d1
:1018dc0060c3b300bcfe07008040eb0060c3b300e4
:1018ec00b9fe070000c82000010020004b050700ce
:1018fc000080fa00000006000200fa00004f780099
:10190c000080fa00000006000200fa00004f780088
:10191c000080fa00000006000000fa00b4c0b3001a
:10192c0004437800a5a02000864a780004802f008c
:10193c00f57f200064508800755088000042eb0051
:10194c000443780005a12000864a780014c0b30037
:10195c000443780015a12000864a7800f6fe0700a3
:10196c0000ff070084c0b3000443780035a92000b1
:10197c00864a78000042eb000443780045a9200019
:10198c00864a78000080fa00000006000000fa0089
:10199c0034a9200014427800e94f520002003a00aa
:1019ac0094c0b3001400370034a92000144278000e
:1019bc00e84f520002003a0084c0b3000e0037001a
:1019cc0034a9200014427800e64f520009003a0076
:1019dc00c7fe07000042780005c6b300854f5200d1
:1019ec00020036000042eb000300370044c0b30095
:1019fc000100370054c0b300044078000080fa00a6
:101a0c00000006000200fa00000f780034a9200044
:101a1c0014427800e94f520002003a0094c0b3001f
:101a2c001100370034a9200014427800e84f52000e
:101a3c0002003a0084c0b3000b00370034a9200028
:101a4c0014427800e64f520006003a00a8fe070048
:101a5c00004278009e027800844a780074c0b3007b
:101a6c000100370054c0b300044078000080fa0035
:101a7c00000006000400fa00004f780011079800df
:101a8c001e427800e04f520006003a001e02900001
:101a9c00a5a0200095427800054a780074c0b300d8
:101aac001c0037001e427800e14f520006003a003d
:101abc001e0390006450800075508000048bbe00a3
:101acc0074c0b300130037001e427800e24f52007e
:101adc0006003a001e02900005a1200095427800f5
:101aec00054a780074c0b3000a0037001e42780023
:101afc00e34f520006003a001e02900015a1200090
:101b0c0095427800054a780074c0b3000100370094
:101b1c00a4c0b300044078000080fa000000060066
:101b2c000200fa00004f780034a92000144278001b
:101b3c009e42780084cf520002003a001e42780088
:101b4c00350037001e427800e64f520010003a0074
:101b5c0034a9200014427800e84f520006003a00e5
:101b6c0064c0b3000443780035a92000864a78008d
:101b7c0074c0b3002800370034a920001442780048
:101b8c00e94f520023003a0024c0b3002200370072
:101b9c001e427800e94f520008003a0034a9200098
:101bac0014427800e94f520002003a0024c0b300fe
:101bbc001900370074c0b300170037001e427800bc
:101bcc00e84f52000a003a0034a920001442780071
:101bdc00e64f52000f003a0084c0b3000443780073
:101bec0035a92000864a780074c0b3000a0037007b
:101bfc001e427800e34f520006003a0084c0b30046
:101c0c000443780035a92000864a780074c0b300dc
:101c1c000100370054c0b300044078000080fa0083
:101c2c00000006000a00fa0060479800410798007f
:101c3c006e429000e04f520022003a004e0290009b
:101c4c00144f78009e4278000582fb00150020009e
:101c5c00042add006123b9006450800075508000b7
:101c6c0006007800070378008403780005027800ea
:101c7c00070060000402630005002000c022dd00a4
:101c8c00040020000403be006102b80004037300ca
:101c9c0085837300e00f5300e08f5b000700320078
:101cac009e437800a6a02000074b78001e407800c9
:101cbc00fafe070074c0b3005100370054c0b300e3
:101ccc004f0037006e429000e14f520022003a0064
:101cdc004e0290001403be001607980027079800c8
:101cec00fdfd07000002be000483ea008583ea00c4
:101cfc001e029000ae0290000600780007037800e8
:101d0c008403780005027800070060000402630079
:101d1c0005002000c022dd00040020000403be00ea
:101d2c006102b8000403730085837300e00f530055
:101d3c00e08f5b0006003a004e0290001402be00d9
:101d4c00645088007550880074c0b3002c003700b4
:101d5c0054c0b3002a0037006e429000e24f52008c
:101d6c000f003a004e029000144f7800f4cbb300f1
:101d7c009e42780084cf520007003e001e4278003d
:101d8c0007a12000844b78001e407800defe07007f
:101d9c0074c0b3001a00370054c0b30018003700e9
:101dac006e429000e34f520014003a004e02900035
:101dbc00144f78001e427800e14f520006003200aa
:101dcc001e427800e24f5200030032001e4278009f
:101ddc00e34f520007003a001e43780015a1200083
:101dec00864a78001e407800c3fe070074c0b3001a
:101dfc000300370054c0b30001003700a4c0b30087
:101e0c00044078000080fa00000006000000fa0090
:101e1c00aafb070044fc070089fc07000042eb000a
:101e2c0004437800f5aa2000864a780044c0b30029
:101e3c0004437800e5aa2000864a780034cab3002f
:101e4c0004437800d5aa2000864a780000c2eb0033
:101e5c0004437800c5aa2000864a7800e4cfb3007a
:101e6c0004437800b5aa2000864a7800c4cdb3009c
:101e7c0004437800a5aa2000864a780094c7b300d2
:101e8c000443780095aa2000864a780064c3b30006
:101e9c000443780085aa2000864a78000002eb00f3
:101eac0084558800bcf907000002780004427800d1
:101ebc000443780025ab2000864a780014002000eb
:101ecc00b45488000002eb0034558800d7fd07009d
:101edc000080fa00000006001400fa004047980049
:101eec003107980042079800234f98006407980028
:101efc007507980006579800170f98004e429000ef
:101f0c00e24f5200050032004e429000e34f520067
:101f1c000200320084ceb300f1003700b4548000cc
:101f2c00be029000848f52000200320084ceb300b7
:101f3c00eb0037002e4a9000e24f520005003200b1
:101f4c002e4a9000e34f52000200320084ceb300c0
:101f5c00e30037008e52900064c6b30084cf520069
:101f6c000200360054ceb300dd0037006ef297004d
:101f7c008482fb00e40f200004826200e00f520018
:101f8c000200320084ceb300d500370054c0b30039
:101f9c00044f78004e429000e24f520002003a008b
:101fac001ecfe800020037001e427800684f420046
:101fbc002e4a9000e24f520002003a001ecfe80079
:101fcc00020037009e42780068cf42001e42780023
:101fdc0046ba2000044b780045ba200095427800a0
:101fec000e52900004c242000443780055ba2000ff
:101ffc00864a780024a12000140798000042eb00c8
:10200c00044f780004c4b3001e4f72006ef29700a8
:10201c000482fb006102620004427800e04f52002f
:10202c000200320004c2b3001e4f72001e04a00056
:10203c001e0290001e4a78001e0290000402e80066
:10204c00140798000042eb00044f78004e429000b9
:10205c000482fb004622dd00844278001e42780098
:10206c0004c27200044f78002e4a90000482fb00d8
:10207c004222dd00844278001e42780004c27200c5
:10208c00044f78001e0290001e4a78001e02900039
:10209c000402e8001407980024ab200014427800d6
:1020ac009e029000844a78009e0290008502e8000f
:1020bc00150798000442e8000443780025ab200083
:1020cc00864a7800b4548000844278001e02900046
:1020dc00054a78001e0290000402e80014079800dc
:1020ec00b45480004822de00844278001e02900026
:1020fc00054a78001e0290000402e80014079800bc
:10210c002e4a9000e24f520012003a000042eb00bf
:10211c00044f78000b0037007e0290009442780048
:10212c001e029000054a78001e0290000402e8008e
:10213c00140798007e0290000402e80074079800cf
:10214c001e4fe8001e427800e14f5200f2ff3600ad
:10215c00110037000042eb00044f78000b003700f1
:10216c007e029000944278001e029000054a78008e
:10217c001e0290000402e800140798007e029000f2
:10218c000402e800740798001e4fe8001e42780015
:10219c00e74f5200f2ff36004e429000e24f5200e1
:1021ac0012003a000042eb00044f78000b0037009d
:1021bc004e029000944278001e029000054a78006e
:1021cc001e0290000402e800140798004e029000d2
:1021dc000402e800440798001e4fe8001e427800f5
:1021ec00e14f5200f2ff3600110037000042eb00c5
:1021fc00044f78000b0037004e0290009442780098
:10220c001e029000054a78001e0290000402e800ad
:10221c00140798004e0290000402e800440798004e
:10222c001e4fe8001e427800e74f5200f2ff3600c6
:10223c000042eb00044f78000b0037001e0a9000a0
:10224c00944278001e029000054a78001e0290000d
:10225c000402e800140798001e0a90000402e8002b
:10226c00140f98001e4fe8000e5290009e4278000a
:10227c0084cf5200f1ff390054ba20001442780088
:10228c008440780020a120003dfd070040c2b3002f
:10229c0039fc070000427800044f78001e42780099
:1022ac008482fb000402200004826200e00f5200d2
:1022bc000200320014ceb300090037009e427800b1
:1022cc000582fb006102620004427800e04f52007c
:1022dc000200320094ceb300010037000042eb0044
:1022ec00044078000080fa00000006000800fa00a4
:1022fc00d4c0200014427800f44f520003003a007e
:10230c0014c0b300044f78004500370034a12000fe
:10231c00144278000482fb006c02620042a2de00d0
:10232c00e20f520003003a0094c0b3002447980017
:10233c0002003700f4c0b300244798000042eb00c1
:10234c001447980016003700d4c0200014427800bf
:10235c000482fb009e4290008583fb00ae429000fd
:10236c000583fb009e4290008582fb000503430021
:10237c0025a1200085024300154378006c22b9008a
:10238c00040278008702420044ab20000482420021
:10239c00064a78001e4290000442e8001447980058
:1023ac001e429000e74f5200e7ff3600d4c02000d9
:1023bc00144278000482fb000402e8003407980001
:1023cc001e4290000482fb006c22b900840278004b
:1023dc00c4ab200004824200be029000050a7800c3
:1023ec001e4290000482fb00b65480006c22b9009f
:1023fc0084027800e4ab200004824200060a7800d4
:10240c00d4c02000144278000442e80084427800d2
:10241c00d6c02000054b78000042eb00044f78003a
:10242c0074c1b300044f78001e42780046ba2000f5
:10243c00044b780044ba20001442780064424200f5
:10244c000443780055ba2000864a780024a1200065
:10245c00240798000042eb00044f780004c4b3003a
:10246c001e4f720004c2b3001e4f72001e42780051
:10247c00634f72002e0290001e4a78002e029000cc
:10248c000402e800240798000042eb00044f780097
:10249c0004ccb3001e4f72009e4278006ccf7200c9
:1024ac002e0290001e4a78002e0290000402e800d2
:1024bc002407980024ab200014427800ae02900050
:1024cc00844a7800ae0290008502e8002507980047
:1024dc000442e8008442780026ab2000054b7800cb
:1024ec00b4548000844278002e029000054a780093
:1024fc002e0290000402e80024079800b4548000d7
:10250c004822de00844278002e029000054a7800b2
:10251c002e0290000402e800240798000042eb0011
:10252c001447980014003700d4c0200014427800df
:10253c000482fb000402e9009e4290000583fb002c
:10254c006c22b900040278008602420044ab2000e1
:10255c0004824200944278002e029000054a7800d2
:10256c002e0290000402e800240798001e429000fe
:10257c000442e800144798001e429000e74f5200b6
:10258c00e9ff3600b4548000844278002e0290009b
:10259c00054a78002e0290000402e80024079800f7
:1025ac00b4548000844278002e029000054a7800d2
:1025bc002e0290000402e800240798000042eb0071
:1025cc00044f78000b0037001e4378008682fb0016
:1025dc00e4a9200004824200944278002e0290006c
:1025ec00054a78002e0290000402e80024079800a7
:1025fc001e4fe8001e427800e74f5200f2ff3600f3
:10260c002e02900025c0b300054a78002e029000df
:10261c000402e800240798003e02900084427800ef
:10262c002e029000054a78002e0290000402e80069
:10263c00240798003e0290004822de008442780075
:10264c002e029000054a78002e0290000402e80049
:10265c00240798002e0290001e4a78002e0290004b
:10266c000402e8002407980054ba200014427800b1
:10267c008440780020a1200041fc070040c2b30038
:10268c003dfb070000427800044f78009e42780022
:10269c000582fb0061026200e00f520008003a0064
:1026ac001e4378008682fb00040220000482620034
:1026bc00e00f52000200320014ceb30001003700cc
:1026cc000042eb00044078000080fa000000060095
:1026dc000400fa00000f7800110798000404200091
:1026ec009e027800848f520009003a0020c1b3008a
:1026fc0021fb070000427800844278000574a10099
:10270c001e029000054a78000042eb001c003700c6
:10271c00e40420009e027800848f520008003a00e6
:10272c0010c1b30014fb070000427800e7426200be
:10273c001e029000054a78000042eb0010003700a2
:10274c00f40420009e027800848f52000b003a00a3
:10275c0010c1b30008fb0700004278000482fb00a4
:10276c004322de0004427800e34262001e02900025
:10277c00054a78000042eb000100370044cfb3005b
:10278c00044078000080fa00000006000600fa0001
:10279c0010079800210798009e0290000404200066
:1027ac00848f520011003a0020c1b300f2fa0700e6
:1027bc000042780005c8b300054f62002e0290005d
:1027cc0014427800844278000574a1001e427800ff
:1027dc0004c27200044f78009e40780020c1b30000
:1027ec00f9fa07000042eb002c0037009e02900023
:1027fc00e4042000848f520010003a0010c1b30092
:10280c00ddfa07000042780085cfb300054f620067
:10281c002e02900014427800e74262001e427800bb
:10282c0004c27200044f78009e40780010c1b300bf
:10283c00e5fa07000042eb00180037009e029000fa
:10284c00f4042000848f520013003a0010c1b3002e
:10285c00c9fa07000042780075ceb300054f62003c
:10286c002e029000144278000482fb006302620086
:10287c004322dd00844278001e42780004c27200bc
:10288c00044f78009e40780010c1b300cefa0700c8
:10289c000042eb000100370044cfb3000440780045
:1028ac000080fa00000006000600fa00404798007d
:1028bc004e429000e14f520002003a001efb07000e
:1028cc00170037008e0078000004200080ff0700fe
:1028dc000e02e80084007800e00420007cff070072
:1028ec000e82e80084007800f004200078ff0700d6
:1028fc001cfb07008e00780000042000a3ff0700db
:10290c000e02e80084007800e00420009fff07001e
:10291c000e82e80084007800f00420009bff070082
:10292c000042eb00044078000080fa000000060032
:10293c000600fa00004f7800110798002207980053
:10294c002e029000e00f520003003a0080c0b3004a
:10295c0073fc07000f0037002e009000b6f807003c
:10296c000042eb000443780045a92000864a780019
:10297c0060c0b3006afc0700000000005480200017
:10298c0014427800e04f5200fcff320080c0b300cc
:10299c0063fc07000042eb00044078000080fa0062
:1029ac00000006000000fa00f0c2a900f4c2a80062
:1029bc0000e82300010020001801070060c0b300ec
:1029cc002af8070000027800040078006bf8070072
:1029dc00004278000443780045802000864a780045
:1029ec00f4c2a9000080fa00000006000200fa0000
:1029fc000042eb00044f78001e4278008482fb00fa
:102a0c0064ba20000482420055c0b300054a780025
:102a1c001e4fe8009e4278000583fb0014408000a6
:102a2c008442780064ba200004024300054a78000e
:102a3c001e4fe8001e4278000483fb001440800007
:102a4c004822de008442780064ba2000040243006d
:102a5c00054a78001e4fe8009e4278000583fb0073
:102a6c00458020009542780064ba2000040243009f
:102a7c00054a78001e4fe8009e427800c4c0200032
:102a8c00054a78000080fa00000006000a00fa00ef
:102a9c00881f7800d4c0b300244798002e429000c1
:102aac008482fb008502e900250798000482fb0064
:102abc000402e8000402e8000402d100840242008f
:102acc000f027800858747000402e8000402d10059
:102adc00040242003407980000a026008101200067
:102aec00ce0007000042eb0004437800d5c0200064
:102afc00864a78000042eb00044f7800250037002e
:102b0c000042eb00144798000e0037009e427800fc
:102b1c000582fb009e4290000583fb006c22b900ed
:102b2c00040278008602420044ab2000048242007a
:102b3c008042eb00054a78001e4290000442e800f7
:102b4c00144798001e429000e74f5200efff3600ea
:102b5c001e4378000682fb006c22b90084027800c8
:102b6c00c4ab2000048242008002eb00050a78000e
:102b7c009e4278000582fb006c22b900840278002a
:102b8c00e4ab2000048242008002eb00050a7800ce
:102b9c001e4fe8001e427800f34f5200d8ff36005b
:102bac0032f70700e4a2a80000a026008101200053
:102bbc009a000700e4a2a90000a0260081012000d1
:102bcc0096000700e4c2a80000a0260081012000a6
:102bdc0092000700e4c2a90000a026008101200099
:102bec008e000700e4e2a80000a02600810120006e
:102bfc008a000700e4e2a90000a026008101200061
:102c0c008600070044fb070080fc07008660a900d3
:102c1c009660a800010037000000000044a92000c5
:102c2c0014427800e14f5200fbff3a000042eb00e7
:102c3c008442780046a92000054b7800e4c2a80025
:102c4c0041c0b30090c3b300dff90700003020008f
:102c5c00f0f90700004278008442780016a92000a1
:102c6c00054b78000042eb00144798000e0037002b
:102c7c001e4290000484fb001e4290000482fb0064
:102c8c001430b00004007800e2f90700004278002c
:102c9c0025a1200085024400844a78001e42900041
:102cac000442e800144798001e4290008482fb0006
:102cbc0014a92000144278000482fb000482e8006e
:102ccc00848f5200eaff35000042eb001447980055
:102cdc000d0037001e4290000482fb009e429000c3
:102cec008582fb006983420025a1200085024300f8
:102cfc0015437800be02900086727a001e42900046
:102d0c000442e800144798009e4290002e42900026
:102d1c0084cf5200efff39008040eb0090c3b3002a
:102d2c00a9f9070024a12000144278000482fb00ba
:102d3c0067026200e10f52001f00320024a1200044
:102d4c00144278000482fb0067026200e30f520019
:102d5c0019003a0034a12000144278000482fb00d0
:102d6c006c02620042a2de00e20f520006003a0042
:102d7c0034a2200014427800e14f52000e003a00b9
:102d8c005afd07000c00370034a1200014427800d3
:102d9c000482fb006c02620042a2de00e30f5200d0
:102dac0005003a0094a2200014427800e14f520032
:102dbc0001003a004dfd070000202100a107200072
:102dcc0016000700e4c2a9003e02900005ab2000eb
:102ddc00b254800061aa2000b054800016c0b30029
:102dec00861f780016c0b300861f78008403780015
:102dfc002e4390000202780023c0b300010178003a
:102e0c008000780020c0b30033fc0700e487570033
:0c2e1c0000427800044f980080ff37004f
:020000040000fa
:102e2800f03fb1000180b10006003500ee03090053
:102e380000000000403fb1000180b100fbff3d00f1
:102e48001000b000203fb0000200350000800900eb
:082e580000000000000006006c
:020000040000fa
:102e6000000800000e04000000000000120c00002a
:102e700002000000000000000e0c00000400000032
:082e800000000000000000004a
:020000040000fa
:020000040005f5
:0457f800fdf30000bd
:020000040000fa
:020000040005f5
:0457fc007f3d0000ed
:00000001FF
