:020000040000fa
:080000000002040000000000f2
:020000040000fa
:04000800a80200004a
:020000040000fa
:04000c00a802000046
:020000040000fa
:04001000a802000042
:020000040000fa
:04001400a80200003e
:020000040000fa
:04001800a80200003a
:020000040000fa
:04001c00a802000036
:020000040000fa
:04002000a802000032
:020000040000fa
:04002400a80200002e
:020000040000fa
:04002800a80200002a
:020000040000fa
:04002c00a802000026
:020000040000fa
:04003000a802000022
:020000040000fa
:040034002a0a000094
:020000040000fa
:04003800a80200001a
:020000040000fa
:04003c00a802000016
:020000040000fa
:04004000a802000012
:020000040000fa
:04004400a80200000e
:020000040000fa
:04004800a80200000a
:020000040000fa
:04004c00a802000006
:020000040000fa
:04005000a802000002
:020000040000fa
:04005400520a00004c
:020000040000fa
:04005800860a000014
:020000040000fa
:04005c00a8020000f6
:020000040000fa
:04006000a8020000f2
:020000040000fa
:04006400a8020000ee
:020000040000fa
:04006800a8020000ea
:020000040000fa
:04006c00a8020000e6
:020000040000fa
:04007000a8020000e2
:020000040000fa
:04007400c00a0000be
:020000040000fa
:04007800a8020000da
:020000040000fa
:04007c00a8020000d6
:020000040000fa
:04008000a8020000d2
:020000040000fa
:04008400a8020000ce
:020000040000fa
:04008800a8020000ca
:020000040000fa
:04008c00a8020000c6
:020000040000fa
:04009000a8020000c2
:020000040000fa
:04009400a8020000be
:020000040000fa
:04009800a8020000ba
:020000040000fa
:04009c00a8020000b6
:020000040000fa
:0400a000a8020000b2
:020000040000fa
:0400a400a8020000ae
:020000040000fa
:0400a800a8020000aa
:020000040000fa
:0400ac00a8020000a6
:020000040000fa
:0400b000a8020000a2
:020000040000fa
:0400b400a80200009e
:020000040000fa
:0400b800a80200009a
:020000040000fa
:0400bc00a802000096
:020000040000fa
:0400c000a802000092
:020000040000fa
:0400c400a80200008e
:020000040000fa
:0400c800a80200008a
:020000040000fa
:0400cc00a802000086
:020000040000fa
:0400d000a802000082
:020000040000fa
:0400d400a80200007e
:020000040000fa
:0400d800a80200007a
:020000040000fa
:0400dc00a802000076
:020000040000fa
:0400e000a802000072
:020000040000fa
:0400e400a80200006e
:020000040000fa
:0400e800a80200006a
:020000040000fa
:0400ec00a802000066
:020000040000fa
:0400f000a802000062
:020000040000fa
:0400f400a80200005e
:020000040000fa
:0400f800a80200005a
:020000040000fa
:0400fc00a802000056
:020000040000fa
:04010000a802000051
:020000040000fa
:04010400a80200004d
:020000040000fa
:04010800a802000049
:020000040000fa
:04010c00a802000045
:020000040000fa
:04011000a802000041
:020000040000fa
:04011400a80200003d
:020000040000fa
:04011800a802000039
:020000040000fa
:04011c00a802000035
:020000040000fa
:04012000260b0000aa
:020000040000fa
:04012400a80200002d
:020000040000fa
:04012800a802000029
:020000040000fa
:04012c00a802000025
:020000040000fa
:04013000a802000021
:020000040000fa
:04013400a80200001d
:020000040000fa
:04013800a802000019
:020000040000fa
:04013c00a802000015
:020000040000fa
:04014000a802000011
:020000040000fa
:04014400a80200000d
:020000040000fa
:04014800a802000009
:020000040000fa
:04014c00a802000005
:020000040000fa
:04015000a802000001
:020000040000fa
:04015400a8020000fd
:020000040000fa
:04015800a8020000f9
:020000040000fa
:04015c00a8020000f5
:020000040000fa
:04016000a8020000f1
:020000040000fa
:04016400a8020000ed
:020000040000fa
:04016800a8020000e9
:020000040000fa
:04016c00a8020000e5
:020000040000fa
:04017000a8020000e1
:020000040000fa
:04017400a8020000dd
:020000040000fa
:04017800a8020000d9
:020000040000fa
:04017c00a8020000d5
:020000040000fa
:04018000a8020000d1
:020000040000fa
:04018400a8020000cd
:020000040000fa
:04018800a8020000c9
:020000040000fa
:04018c00a8020000c5
:020000040000fa
:04019000a8020000c1
:020000040000fa
:04019400a8020000bd
:020000040000fa
:04019800a8020000b9
:020000040000fa
:04019c00a8020000b5
:020000040000fa
:04020800a802000048
:020000040000fa
:04020c00a802000044
:020000040000fa
:04021000a802000040
:020000040000fa
:04021400a80200003c
:020000040000fa
:04021800a802000038
:020000040000fa
:04021c00a802000034
:020000040000fa
:04022000a802000030
:020000040000fa
:04022400a80200002c
:020000040000fa
:04022800a802000028
:020000040000fa
:04022c00a802000024
:020000040000fa
:04023000a802000020
:020000040000fa
:04023400a80200001c
:020000040000fa
:04023800a802000018
:020000040000fa
:04023c00a802000014
:020000040000fa
:04024000a802000010
:020000040000fa
:04024400a80200000c
:020000040000fa
:04024800a802000008
:020000040000fa
:04024c00a802000004
:020000040000fa
:04025000a802000000
:020000040000fa
:04025400a8020000fc
:020000040000fa
:04025800a8020000f8
:020000040000fa
:04025c00a8020000f4
:020000040000fa
:04026000a8020000f0
:020000040000fa
:04026400a8020000ec
:020000040000fa
:04026800a8020000e8
:020000040000fa
:04026c00a8020000e4
:020000040000fa
:04027000a8020000e0
:020000040000fa
:04027400a8020000dc
:020000040000fa
:04027800a8020000d8
:020000040000fa
:04027c00a8020000d4
:020000040000fa
:04028000a8020000d0
:020000040000fa
:04028400a8020000cc
:020000040000fa
:04028800a8020000c8
:020000040000fa
:04028c00a8020000c4
:020000040000fa
:04029000a8020000c0
:020000040000fa
:04029400a8020000bc
:020000040000fa
:04029800a8020000b8
:020000040000fa
:04029c00a8020000b4
:020000040000fa
:0402a000a8020000b0
:020000040000fa
:0402a400a8020000ac
:020000040000fa
:0402a800a8020000a8
:020000040000fa
:0402ac00a8020000a4
:020000040000fa
:0402b000a8020000a0
:020000040000fa
:0402b400a80200009c
:020000040000fa
:0402b800a802000098
:020000040000fa
:0402bc00a802000094
:020000040000fa
:0402c000a802000090
:020000040000fa
:0402c400a80200008c
:020000040000fa
:0402c800a802000088
:020000040000fa
:0402cc00a802000084
:020000040000fa
:0402d000a802000080
:020000040000fa
:0402d400a80200007c
:020000040000fa
:0402d800a802000078
:020000040000fa
:0402dc00a802000074
:020000040000fa
:0402e000a802000070
:020000040000fa
:0402e400a80200006c
:020000040000fa
:0402e800a802000068
:020000040000fa
:0402ec00a802000064
:020000040000fa
:0402f000a802000060
:020000040000fa
:0402f400a80200005c
:020000040000fa
:0402f800a802000058
:020000040000fa
:0402fc00a802000054
:020000040000fa
:04030000a80200004f
:020000040000fa
:04030400a80200004b
:020000040000fa
:04030800a802000047
:020000040000fa
:04030c00a802000043
:020000040000fa
:04031000a80200003f
:020000040000fa
:04031400a80200003b
:020000040000fa
:04031800a802000037
:020000040000fa
:04031c00a802000033
:020000040000fa
:04032000a80200002f
:020000040000fa
:04032400a80200002b
:020000040000fa
:04032800a802000027
:020000040000fa
:04032c00a802000023
:020000040000fa
:04033000a80200001f
:020000040000fa
:04033400a80200001b
:020000040000fa
:04033800a802000017
:020000040000fa
:04033c00a802000013
:020000040000fa
:04034000a80200000f
:020000040000fa
:04034400a80200000b
:020000040000fa
:04034800a802000007
:020000040000fa
:04034c00a802000003
:020000040000fa
:04035000a8020000ff
:020000040000fa
:04035400a8020000fb
:020000040000fa
:04035800a8020000f7
:020000040000fa
:04035c00a8020000f3
:020000040000fa
:04036000a8020000ef
:020000040000fa
:04036400a8020000eb
:020000040000fa
:04036800a8020000e7
:020000040000fa
:04036c00a8020000e3
:020000040000fa
:04037000a8020000df
:020000040000fa
:04037400a8020000db
:020000040000fa
:04037800a8020000d7
:020000040000fa
:04037c00a8020000d3
:020000040000fa
:04038000a8020000cf
:020000040000fa
:04038400a8020000cb
:020000040000fa
:04038800a8020000c7
:020000040000fa
:04038c00a8020000c3
:020000040000fa
:04039000a8020000bf
:020000040000fa
:04039400a8020000bb
:020000040000fa
:04039800a8020000b7
:020000040000fa
:04039c00a8020000b3
:020000040000fa
:100400002fcf20000e7f24000e0188000000000086
:10041000000020000000e000020032000001200087
:10042000200288000c000700a046220001002000e6
:1004300011000700000020000000e0000200320070
:100440000000020000000000d219020000000000bd
:100450000040da000000fe004440a9000021200016
:100460000000e0000300320000002000a00188002e
:100470004440a80000000600910188008000780038
:100480000000eb0015003700e280400032a0b4000d
:100490009101ba00e280400032a0b4009102ba009b
:1004a000e280400032a0b4000002eb00472bde00e7
:1004b000f507b200602ce10004003a000059eb009f
:1004c0008301e900fdff3e00040037006128e100e0
:1004d000010032000082eb000b00070011c3ba00dc
:1004e0001101ba000604e00003003a000200e00037
:1004f000e5ff3a0000000600f607b200960188000a
:1005000082007800f5ff37003159ba008301e90015
:100510000c0032002159ba008301e90008003200c2
:100520000400e00003003a00e280400032a0b40082
:10053000f5ff370011d9ba008301e900faff3a004c
:100540008100e800e180400032a0b4000000060015
:100550000040da000000fe006022b8000602200021
:100560000000d0008180d2000482d2008582d200b7
:100570000000a0000202520083825a0003003100f2
:100580000202420083824a000000a1000603e90043
:10059000f3ff3a0000000600efff07000400be0072
:1005a000000006008000eb0070678800816788000b
:1005b00011c0b300c0ce2000014878000000060042
:1005c000c0ce20001004e00002003a00100020001d
:1005d000f4ff0700d2e62400631c2400706780004b
:1005e00081678000090007009203230003002000b8
:1005f000000141008181490072678800836788009b
:100600000300780000f0a10000000600020ab90013
:10061000001bb9000200b8008100420081004300c5
:0406200000000600d0
:020000040000fa
:10062400637c0000777b0000f26b00006fc5000064
:1006340030010000672b0000fed70000ab760000fd
:10064400ca820000c97d0000fa59000047f000008a
:10065400add40000a2af00009ca4000072c0000052
:10066400b7fd000093260000363f0000f7cc0000e1
:1006740034a50000e5f1000071d800003115000038
:1006840004c7000023c3000018960000059a000068
:100694000712000080e20000eb270000b2750000a2
:1006a400098300002c1a00001b6e00005aa00000f1
:1006b400523b0000d6b3000029e300002f84000061
:1006c40053d1000000ed000020fc0000b15b0000ed
:1006d4006acb0000be3900004a4c000058cf00002d
:1006e400d0ef0000aafb0000434d0000338500005a
:1006f40045f90000027f0000503c00009fa8000064
:1007040051a30000408f0000929d000038f50000c6
:10071400bcb60000da21000010ff0000f3d2000094
:10072400cd0c000013ec00005f970000441700009c
:10073400c4a700007e3d0000645d00001973000042
:10074400608100004fdc0000222a00009088000035
:1007540046ee0000b8140000de5e00000bdb000073
:10076400e03200003a0a000049060000245c000060
:10077400c2d30000ac62000091950000e47900004f
:10078400e7c80000376d00008dd500004ea90000b9
:100794006c560000f4ea0000657a0000ae08000020
:1007a400ba780000252e00001ca60000b4c6000084
:1007b400e8dd0000741f00004bbd00008b8a0000c0
:1007c400703e0000b566000048030000f60e00000d
:1007d4006135000057b9000086c100001d9e00006d
:1007e400e1f800009811000069d900008e9400001f
:1007f4009b1e000087e90000ce55000028df0000a2
:100804008ca10000890d0000bfe6000042680000d2
:10081400419900002d0f0000b0540000bb160000e9
:10082400520900006ad5000030360000a5380000e7
:10083400bf400000a39e000081f30000d7fb00002e
:100844007ce30000398200009b2f0000ff8700003a
:10085400348e000043440000c4de0000e9cb0000f5
:10086400547b000094320000a6c20000233d000027
:10087400ee4c0000950b000042fa0000c34e00004d
:10088400082e0000a166000028d9000024b2000050
:10089400765b0000a24900006d8b0000d1250000aa
:1008a40072f80000f66400008668000098160000e4
:1008b400d4a400005ccc00005d650000b69200008a
:1008c4006c70000048500000fded0000b9da000033
:1008d4005e15000046570000a78d00009d840000af
:1008e40090d80000ab0000008cbc0000d30a0000cc
:1008f400f7e4000058050000b8b300004506000006
:10090400d02c00001e8f0000ca3f00000f02000020
:10091400c1af0000bd030000011300008a6b00009a
:100924003a910000114100004f670000dcea00002a
:1009340097f20000cfce0000f0b40000e673000090
:1009440096ac000074220000e7ad0000358500007d
:10095400e2f9000037e800001c750000df6e0000bb
:1009640047f100001a7100001d290000c58900002c
:100974006fb70000620e0000aa180000be1b000042
:10098400fc5600003e4b0000c6d200007920000057
:100994009adb0000c0fe000078cd00005af400008d
:1009a4001fdd0000a833000088070000c7310000e5
:1009b400b11200001059000027800000ec5f000015
:1009c400605100007fa9000019b500004a0d000025
:1009d4002de500007a9f000093c900009cef000001
:1009e400a0e000003b4d0000ae2a0000f5b000007e
:1009f400c8eb0000bb3c0000835300009961000079
:100a0400172b0000047e0000ba770000d6260000f1
:100a1400e169000014630000552100000c7d000012
:100a24000f15000071c9000047d90000e859000003
:100a34000cb70000add60000af7f0000679800003f
:020000040000fa
:100a44000000fa00100280004500de0067406000ec
:100a54000080fb0000408800100280000050a000cd
:100a64000060a0000070a0001002880000000000d8
:100a74000080fa00000006000000fa000040800038
:100a840000407800674060000080fb006700600061
:100a94004500dd0012028000f1f12f0081006100a9
:100aa4000100700010028800000000000080fa00bd
:100ab400000006000000fa0042a2a8001012800004
:100ac4000020a0000030a0000040a0001012880008
:100ad400101280000000a1000010a1001012880074
:100ae4004302a8004322a80042c2a90040c2a900b0
:100af40041e2a8008540a9000080fa000000060039
:100b04000200fa00004f78008540a9001e80fb0017
:100b140040128800000000002104800000402000f2
:100b2400008060000000e000fbff32008540a90067
:100b340040128000004078000080fa0000000600a7
:100b44000000fa004822ef000000000021048000a9
:100b540000402000008060000000e000fbff320045
:100b64008540a90040128000004078000080fa000f
:100b7400000006000000fa000500fc0050052000fb
:100b8400303b8800a00a2000303b880027a6a8003c
:100b94000080fa00000006000800fa00004f780008
:100ba400114798002247980033479800444798001b
:100bb4005547980066479800a13b8000f0df2f005e
:100bc40000806000a03b8800eaff070027e6a90038
:100bd400303180000080a0000090a00030318800f7
:100be4001e80fb00203188001e4090000080fb0026
:100bf400c800dd002e4090000080fb000100700062
:100c0400203188003e4090000080fb00c800dd00d9
:100c14004e4090000080fb000100700020318800ed
:100c24005e4090000080fb00c800dd006e40900034
:100c34000080fb00010070002031880027e6a80036
:100c440027a6a9001031800000a0a00000b0a100d8
:100c540000c0a10000d0a1001031880023e6a80044
:100c64008bc0a9009bc0a8000080fa000000060009
:100c74000000fa000001eb00600420007105200070
:100c840023742000804978008149780082497800e3
:100c94004135800000fc2f00008060006001b3003b
:100ca40040358800c1368000f00f2c008080600041
:100cb4000070200001007000c0368800a13680005a
:100cc40000fc2f00008060000030a000a0368800e7
:100cd4002135800000fc2f00008060007001b3000b
:100ce40020358800c136800000fc2f0000806000a1
:100cf4003000b300c03688002204200060042000c5
:100d0400710520002374200080497800814978000f
:100d140082497800f0fb2f0060198800411680009a
:100d2400000720000080600040168800c116800083
:100d3400e00f2f0000806000c016880001178000bb
:100d440000ff2f000080600000178800411780001a
:100d540030f82f0000806000401788008117800061
:100d640030c72f0000806000801788006116800063
:100d7400000720000080600060168800e1168000f3
:100d8400e00f2f0000806000e0168800211780002b
:100d940000ff2f000080600020178800611780008a
:100da40030f82f000080600060178800a1178000d1
:100db40030c72f0000806000a0178800e0a2a900bf
:100dc400e0c2a900e0e2a900e4a2a900e4c2a900eb
:100dd400e4e2a900e822a900ec22a80035ff0700fc
:100de4000421a8000021ef0000002800100888005a
:100df40005e1a8008460a9009460a8000868ef00d9
:100e0400900120004011880023a2a8008560a90059
:100e14008580a9009560a8009580a80021e2a8001b
:100e240081e0a800707d2f00803b88000080eb00eb
:100e3400903b88000080eb00a03b88000080eb0022
:100e4400b03b88000080eb00c03b88000080eb00d2
:100e5400d03b8800e802a9000080fa0000000600e8
:100e64000800fa00604798007007a90021e3a80071
:100e74002119800000f02100010070002019880071
:100e8400f0c1b30024e3b7002a23a800411980006d
:100e940000fe2f00008060001001b300401988009c
:100ea4002023a8000032200001002000a20e070029
:100eb4002023a900000000000019800061006000e8
:100ec4000000e000fcff320001188000010f7800f0
:100ed4001e0078008000eb000001be0000b52b006e
:100ee400210120009bfd07001007980021079800ae
:100ef4001e009000104088006e4090007f4060000b
:100f04000080fb007f0060004219800001fe2f007a
:100f14008100610001007000401988002023a800ae
:100f24000032200001002000830e07002023a900c6
:100f34000000000000198000610060000000e00073
:100f4400fcff320001188000010f780021e3a900a2
:100f54007007a8001e0078000080fa000000060058
:100f64000800fa0030079800114080003e0090000d
:100f74000088b90080007800f03f2000000178006c
:100f8400110009008280d8008000eb00100798004f
:100f9400210798001e009000ae009000401fb10091
:100fa4000180b10010079800210798001e009000ee
:100fb400ae009000a20020000300200065fd0700a1
:100fc400004f78001e009000ae009000a2002000a8
:100fd400030020006ffd07000001be004000200058
:100fe40001002000800f5100818f5900010036005c
:100ff4001e4fe8001e4078000080fa000000060042
:101004000200fa00000f780005e1a9000568ef006e
:101014009e007800110888008460a90005e1a800fa
:101024000080fa00000006000000fa000968ef00e2
:1010340007c8bf008080fb0062822000e2c0780005
:101044008180fb00211188000040e80007e8b70018
:101054002342a8000080fa00000006000000fa0005
:10106400e082a900e482a90000e823000100200036
:10107400310e0700e482a80000e8230001002000ec
:101084002d0e0700e482a9000080fa00000006008b
:101094000000fa00e482a80000e823000100200018
:1010a400250e0700e482a9000080fa000000060073
:1010b4000000fa0000e82300010020001e0e0700d3
:1010c4000080fa00000006000200fa00004f7800d9
:1010d400e082a9001e4078000004e00009003a0004
:1010e400e482a8000019200001002000120e07006d
:1010f400e482a90000192000010020000e0e070060
:1011040008003700e482a900001920000100200033
:10111400090e0700e482a800001920000100200045
:10112400050e07000080fa00000006000400fa0023
:101134002047980000c8b300104798000040eb0017
:10114400004f78000f003700ae4090001e40900022
:1011540000c060000004e0000300320010c0b300cf
:10116400d9ff0700020037000040eb00d6ff07005c
:101174001e4090000080fb000000d1001047980042
:101184001e4fe8001e407800e74f5000eeff360087
:101194000080fa00000006000600fa00e082a800c1
:1011a400000a200001002000e30d07001017800052
:1011b4004400de0061406000304798000000eb000e
:1011c400000f7800101780004400de0061406000ca
:1011d40040479800be4090004e40900080cf5000a1
:1011e40009003a0010c0b300713e20001e017800cf
:1011f400810f5100010036000040eb001e0fe80093
:101204000004e000efff3a00803e20009e007800da
:10121400808f50000c0032003e4090000004e0003b
:1012240006003a004e409000e14f500003003a009f
:1012340010c0b30020479800050037000040eb00c1
:10124400204798000200370000c0eb0020479800b8
:101254000019200001002000b70d07002e40900067
:101264000080fa00000006000200fa00caff07002e
:10127400104798000040eb00004f7800080037004a
:101284001e4090000040400010479800c2ff070035
:101294009e40900001407000104798001e4fe800e7
:1012a4001e407800e64f5000f5ff36001e409000c7
:1012b4000080fa00000006000200fa00881f78008f
:1012c40073ff07007aff070050c5b30097ff0700bc
:1012d40010c0b3007cff0700003220000100200092
:1012e400950d070000cab30090ff070010c0b300bb
:1012f40075ff0700a8ff070030c0b3008bff07008d
:1013040010c0b30070ff0700a3ff07000040eb000c
:1013140086ff070010c0b3006bff07009eff0700a5
:10132400a0cfb30081ff070010c0b30066ff070021
:1013340099ff07000040eb00004f780008003700d9
:101344001e84fb00c8ff070051aa200080707c00a7
:1013540010c0b3005cff07008fff07001e4fe800ba
:101364001e407800e44f5000f5ff36001e84fb0059
:10137400bdff070051aa200080707c000040eb00f4
:1013840051ff070084ff0700001027002100200000
:10139400690d0700e082a900e482a900001027007b
:1013a40021002000640d0700e482a8004f047800a7
:1013b4000080fa00000006000200fa000040eb0082
:1013c400004f7800080037001e80fb009e80fb0061
:1013d400e580100052aa200062c17800b1aa200062
:1013e400827078001e4fe8001e407800e24f5000e3
:1013f400f5ff3600e0aa2000e1cfb30001487800f1
:10140400f0aa200080c0eb000148780030c0b3008f
:10141400004f7800090037001e80fb000080e800c0
:101424009e80fb00e580100052aa200062c1780073
:10143400b1aa2000827078001e4fe8001e40780098
:10144400e54f5000f4ff36000080fa00000006006b
:10145400809fbe003400f80000002000a001880036
:101464000000fa008460a90010c0b30005e8b700ca
:101474001117800000082000008060000000e000d8
:1014840002003200e4e2a90001003700e4e2a8000f
:101494000080fa003400f9004f00be00004006004e
:1014a400809fbe00829fbe003400f8000000200030
:1014b400a00188000200fa008560a90030118000b4
:1014c400004f7800818020009140780000c8b3006c
:1014d40080cf50000700320008c8bf008080fb00a6
:1014e400629220009e41780003f178000040e800f9
:1014f40008e8b7000080fa003400f9004f01be008c
:101504004f00be0000400600809fbe00821f78008e
:101514003400f80000002000a00188000000fa0058
:101524008580a900618020009140780007c8bf0031
:1015340080cf50000900360007c8bf008080fb0040
:1015440062822000e2c078008180fb0021118800c3
:101554000040e80007e8b700030037002342a90071
:1015640010c0b30009e8b7000080fa003400f900a5
:101574004f0178004f00be00004006003600f8001e
:10158400809fbe00829fbe00849fbe00869fbe00d7
:101594003400f80000002000a00188000200fa00d6
:1015a4008660a900d116800000042000008060003d
:1015b4000000e00010003a0010c3b3002d00070043
:1015c400004f78001e80fb00680060000000e0000f
:1015d4000200320010c0b30015e8b7001e80fb0003
:1015e40061006000004078000004e0000200320066
:1015f40010c0b30016e8b700101780006100600047
:101604000000e00008003a001117800000022000ea
:10161400008060000000e00002003200e4a2a900a3
:1016240001003700e4a2a8000080fa003400f900a9
:101634004f03be004f02be004f01be004f00be006c
:101644003600f900004006003400f800881f7800d6
:1016540008002000a80188004f0478000000fa0068
:101664008bc0a90023e6a8000080fa003400f9002a
:10167400004006000400fa00204798000040eb00f8
:10168400004f7800ec22a900000120000100200096
:10169400a90c07002e4090000040400018fd0700f0
:1016a40027fd0700004f7800ec22a8001e407800b8
:1016b4000080fa00000006000200fa00004f7800e3
:1016c40011479800ec22a90000012000010020002d
:1016d400990c07001e80fb000000400000407800c9
:1016e4000004a00006fd07001e40900004fd070052
:1016f400ec22a8000080fa00000006000400fa00b2
:10170400100798000040eb00004f7800ec22a9007d
:101714001e0090004300de008040780000c8b30043
:1017240000c07000f6fc07001e00900080407800a6
:10173400500020000008dd00f1fc070000fd070058
:10174400004f7800ec22a8001e4078000080fa00c8
:10175400000006000400fa00000f780021479800fa
:10176400ec22a9001e0078004300de0080407800cf
:1017740000c8b30000c07000e1fc07001e00780040
:1017840080407800500020000008dd000044a000e4
:10179400dbfc07002e409000d9fc0700ec22a800d7
:1017a4000080fa00000006000000fa0000802f000c
:1017b400f17f20000080fa00000006000000fa001b
:1017c40001c8b300e0c3b300bbff07000000000082
:1017d400e0c3b300a7ff07000080fb0061006000c6
:1017e4000000e000faff320000212000c3ff0700e0
:1017f4000080fa00000006000000fa00ec02a900d4
:1018040000f42100010020004b0c0700ec02a800aa
:1018140000d0270001002000470c07000080fa00d8
:10182400000006000000fa0081c9b30080c1b300c3
:10183400a1ff070051c9b300e0c2b3009eff070037
:1018440031c0b30000202000c2ff070021c0b30054
:1018540010202000bfff070001c8b3002020200093
:10186400bcff070001c9b30060202000b9ff0700d6
:1018740001c8b30070202000b6ff070001c1b30007
:1018840080202000b3ff070011c2b3000022200013
:10189400b0ff070001c8b300a0c3b30086ff070070
:1018a40001c6b300f0c3b30083ff070001c4b30053
:1018b400e0c3b30080ff0700c1c0b300d0c0b300d1
:1018c4007dff0700b0c0b3009900070010c3b30048
:1018d40068ff070061cfb30020c3b30076ff0700a1
:1018e40061e0a8000080fa00000006000200fa008f
:1018f400c0408000004078008040780010c0b300f1
:101904006dff0700c04080004800de000040780002
:101914008040780020c0b30067ff0700d0408000fb
:10192400004078008040780030c0b30062ff0700b8
:10193400d04080004800de000040780080407800fd
:1019440040c0b3005cff0700b0aa2000104078003c
:101954008040780050c0b30057ff0700c0aa2000a1
:10196400104078008040780060c0b30052ff070048
:10197400d0aa2000104078008040780070c0b300e6
:101984004dff0700e0aa2000104078008040780056
:1019940080c0b30048ff0700f0aa20001040780080
:1019a4008040780090c0b30043ff070000ab2000e4
:1019b4001040780080407800a0c0b3003eff0700cc
:1019c40010ab20001040780080407800b0c0b30015
:1019d40039ff070020ab20001040780080407800d9
:1019e400c0c0b30034ff07000040eb0021ff070034
:1019f400004f78001e34a0009e4078000040eb00a9
:101a04002dff070010c1b3001aff0700004f780034
:101a1400f0cdb3001e4f60009e40780010c1b300ab
:101a240025ff070080c0eb0000c1b30022ff0700c0
:101a34000080fa00000006000600fa001007980073
:101a4400414798001fc8bf00804078000000eb00a9
:101a540040ff070020c8bf0080407800100020002d
:101a64003cff07000040eb00004f780009003700fe
:101a74001e009000904078001e0090000000e800d6
:101a8400100798001e80fb000080e80031ff07006b
:101a94001e4fe8004e4090009e40780080cf5000da
:101aa400f3ff39001668ef0010c3b300f1fe07001e
:101ab400e4a2a8001e009000104078008080fb0083
:101ac40000022000008060000000e00003003200fb
:101ad40050c0b300004f78000200370010c0b300bc
:101ae400004f78009e407800b0c1b300f2fe0700ba
:101af4000040eb00004f780000e8230001002000c4
:101b04008d0b070016c8bf000004e00005003a0072
:101b14001e4fe80010c3b3009e40780080cf5000f1
:101b2400f5ff3600e4a2a9000080fa0000000600d8
:101b34000400fa00204798002e409000eb4050002b
:101b4400400020000008dd00004f78009e4078002f
:101b540063cf70009e40780000202000fdfe070047
:101b640041c0b30060c3b300d3fe07008040eb0064
:101b740060c3b300d0fe070000c8200001002000ad
:101b84006d0b07000080fa00000006000200fa0056
:101b9400004f78000080fa00000006000200fa00fe
:101ba400004f78000080fa00000006000000fa00f0
:101bb400b0c0b3000ae8b70000802f00f17f200016
:101bc40060408800714088001068ef0010c0b300c6
:101bd40011e8b70008ff070012ff070080c0b30038
:101be40014e8b7001568ef000080fa000000060052
:101bf4000000fa0014c8bf00e94f500002003a0088
:101c040090c0b3001100370014c8bf00e84f500063
:101c140002003a0080c0b3000c00370014c8bf00b3
:101c2400e64f500008003a00e4fe070001c6b30086
:101c3400814f5000020036000040eb0003003700e3
:101c440040c0b3000100370050c0b3000080fa0068
:101c5400000006000200fa00000f780014c8bf005c
:101c6400e94f500002003a0090c0b3000e00370064
:101c740014c8bf00e84f500002003a0080c0b3000f
:101c84000900370014c8bf00e64f500005003a00b1
:101c9400cafe07009e0078008048780070c0b30038
:101ca4000100370050c0b3000080fa0000000600b5
:101cb4000400fa00004f7800110798001e407800d5
:101cc4000004e00006003a001e009000a1802000fd
:101cd400914078000148780070c0b3001c003700c0
:101ce4001e407800e14f500006003a001e019000ab
:101cf40060408000714080000089be0070c0b30065
:101d0400130037001e407800e24f500006003a00ee
:101d14001e00900001812000914078000148780065
:101d240070c0b3000a0037001e407800e34f500033
:101d340006003a001e0090001181200091407800b6
:101d44000148780070c0b30001003700a0c0b300a0
:101d54000080fa00000006000200fa00004f78003c
:101d640014c8bf009e40780080cf500002003a00a3
:101d74001e4078002b0037001e407800e64f5000cc
:101d84000c003a0014c8bf00e84f500004003a00a9
:101d940060c0b30014e8b70070c0b300210037007e
:101da40014c8bf00e94f50001d003a0020c0b30022
:101db4001c0037001e407800e94f500007003a002d
:101dc40014c8bf00e94f500002003a0020c0b3001d
:101dd4001400370070c0b300120037001e407800b2
:101de400e84f500007003a0014c8bf00e64f500007
:101df4000b003a0080c0b30014e8b70070c0b30011
:101e0400080037001e407800e34f500004003a00f9
:101e140080c0b30014e8b70070c0b30001003700fd
:101e240050c0b3000080fa00000006000a00fa0067
:101e340060479800410798006e4090000004e0005d
:101e440021003a004e009000104f78001e80fb00e5
:101e5400110020000008dd006101b900604080002d
:101e6400714080000202780003017800800178004c
:101e74000100780003026200000061008000eb00b2
:101e8400c000dd00000020000001be006120b80099
:101e94000001710081817100e00f5100e08f590051
:101ea400070032001e417800a1802000824878009b
:101eb4001e4078001eff070070c0b30050003700ba
:101ec40050c0b3004e0037006e409000e14f500008
:101ed40021003a004e0090001001be001207980045
:101ee4002307980030fe07000081ea008181ea00a0
:101ef4001e009000ae0090000202780003017800fa
:101f04008001780001007800030262000000610093
:101f14008000eb00c000dd00000020000001be00d6
:101f24006120b8000001710081817100e00f51004f
:101f3400e08f590006003a004e0090001000be00e9
:101f4400604088007140880070c0b3002c003700e6
:101f540050c0b3002a0037006e409000e24f50009a
:101f64000f003a004e009000104f7800f0cbb30001
:101f74009e40780080cf500007003e009e407800cd
:101f840003812000814978001e40780003ff070088
:101f940070c0b3001a00370050c0b30018003700f7
:101fa4006e409000e34f500014003a004e00900041
:101fb400104f78001e407800e14f500006003200b8
:101fc4001e407800e24f5000030032001e407800ab
:101fd400e34f500007003a009e4178001281200030
:101fe400034978001e407800e8fe070070c0b30083
:101ff4000300370050c0b30001003700a0c0b30095
:102004000080fa00000006000000fa0013fc07003c
:10201400a9fc0700e8fc0700a0ab20008040eb000f
:102024000148780090ab200041c0b300014878001b
:1020340080ab200031cab3000148780070ab2000a7
:1020440080c0eb000148780060ab2000e1cfb30012
:102054000148780050ab2000c1cdb300014878009e
:1020640040ab200091c7b3000148780030ab20009a
:1020740061c3b300014878001c28ef004ff9070042
:10208400004078001ee8b70010002000c04088001f
:102094001a28ef0015fe07000080fa000000060071
:1020a4001400fa004047980031079800420798004e
:1020b400234f980064079800750798000657980006
:1020c400170f98004e409000e24f50000500320078
:1020d4004e409000e34f50000200320080ceb30027
:1020e400e8003700c0408000be009000808f5000a0
:1020f4000200320080ceb300e20037002e48900088
:10210400e24f5000050032002e489000e34f50008b
:102114000200320080ceb300da0037008e50900007
:1021240060c6b30080cf50000200360050ceb3002a
:10213400d40037006ef097008080fb00e00f200091
:10214400008060000000e0000200320080ceb30096
:10215400cc00370050c0b300004f78004e409000d0
:10216400e24f500002003a001ecfe80002003700a0
:102174009e40780068cf40002e489000e24f500007
:1021840002003a001ecfe800020037001e4178002a
:10219400684f41001e417800f18120008248780098
:1021a400f1812000914078000e50900000c0400062
:1021b40020e8b70060a22000100798000040eb0060
:1021c400004f780000c4b3001e4f70006ef09700fb
:1021d4000080fb0061006000004078000004e00023
:1021e4000200320000c2b3001e4f70001e04a000a3
:1021f4001e0090001e4878001e0090000000e800b9
:10220400100798000040eb00004f78004e4090000b
:102214000080fb004600dd00804078001e4078000e
:1022240000c07000004f78002e4890000080fb0032
:102234004200dd00804078001e40780000c070003d
:10224400004f78001e0090001e4878001e00900089
:102254000000e800100798001ec8bf009e00900010
:10226400804878009e0090008100e80011079800e3
:102274000040e8001ee8b700c040800080407800bd
:102284001e009000014878001e0090000000e80045
:1022940010079800c04080004800de0080407800ad
:1022a4001e009000014878001e0090000000e80025
:1022b400100798002e489000e24f500012003a0098
:1022c4000040eb00004f78000b0037007e009000c8
:1022d400904078001e009000014878001e00900095
:1022e4000000e800100798007e0090000000e8005d
:1022f400700798001e4fe8001e407800e14f500020
:10230400f2ff3600110037000040eb00004f780068
:102314000b0037007e009000904078001e00900073
:10232400014878001e0090000000e80010079800a3
:102334007e0090000000e800700798001e4fe8003f
:102344001e407800e74f5000f2ff36004e409000e8
:10235400e24f500012003a000040eb00004f7800ba
:102364000b0037004e009000904078001e00900053
:10237400014878001e0090000000e8001007980053
:102384004e0090000000e800400798001e4fe8004f
:102394001e407800e14f5000f2ff36001100370074
:1023a4000040eb00004f78000b0037004e00900017
:1023b400904078001e009000014878001e009000b4
:1023c4000000e800100798004e0090000000e800ac
:1023d400400798001e4fe8001e407800e74f500069
:1023e400f2ff36000040eb00004f78000b0037008e
:1023f4001e089000904078001e009000014878006c
:102404001e0090000000e800100798001e089000cd
:102414000000e800100f98001e4fe8000e509000d6
:102424009e40780080cf5000f1ff390020c8bf00e3
:102434008040780060a220007ffd070040c2b30006
:102444008cfc0700004f78009e80fb0000022000f7
:10245400008060000000e0000200320010ceb300f3
:10246400080037001e80fb00610060000040780017
:102474000004e0000200320090ceb30001003700f7
:102484000040eb000080fa00000006000800fa009b
:1024940022c8bf00f44f500003003a0010c0b3003c
:1024a400004f78003f00370070a2200010407800f1
:1024b4000080fb006c0060004280de00e20f5000f0
:1024c40003003a0090c0b300204798000200370090
:1024d400f0c0b300204798000040eb00104798007c
:1024e4001400370022c8bf000080fb009e4090000b
:1024f4008181fb00ae4090000181fb009e40900072
:102504008180fb008100410062a2200062c178004a
:102514006c00b9000000780083004000c0ab2000cc
:1025240000804000024878001e4090000040e8000f
:10253400104798001e409000e74f5000e9ff360016
:1025440022c8bf000080fb000000e80030079800ac
:102554001e4090000080fb006c00b90080007800f1
:1025640040ac200000804000be00900001087800cc
:102574001e4090000080fb00c24080006c00b90047
:102584008000780060ac20000080400002087800e1
:1025940022c8bf000040e80022e8b7000040eb007a
:1025a400004f780070c1b300004f78009e4078005f
:1025b400f2812000014978001fc8bf006440400038
:1025c40020e8b70060a22000200798000040eb003c
:1025d400004f780000c4b3001e4f700000c2b30067
:1025e4001e4f70001e417800634f71002e00900052
:1025f4001e4878002e0090000000e8002007980094
:102604000040eb00004f780000ccb3001e4f700078
:102614009e4078006ccf70002e0090001e48780019
:102624002e0090000000e800200798001ec8bf009c
:10263400ae00900080487800ae0090008100e80071
:10264400210798000040e8001ee8b700c040800061
:10265400804078002e009000014878002e00900001
:102664000000e80020079800c04080004800de0019
:10267400804078002e009000014878002e009000e1
:102684000000e800200798000040eb001047980085
:102694001300370022c8bf000080fb000000e900df
:1026a4009e4090000181fb006c00b900000078009e
:1026b40082004000c0ab20000080400090407800c1
:1026c4002e009000014878002e0090000000e800e1
:1026d400200798001e4090000040e8001047980032
:1026e4001e409000e74f5000eaff3600c0408000d3
:1026f400804078002e009000014878002e00900061
:102704000000e80020079800c04080008040780066
:102714002e009000014878002e0090000000e80090
:10272400200798000040eb00004f780009003700b4
:102734001e80fb00b1aa2000e14078002e0090002a
:10274400014878002e0090000000e800200798005f
:102754001e4fe8001e407800e74f5000f4ff36009b
:102764002e00900021c0b300014878002e00900094
:102774000000e800200798003e00900080407800a8
:102784002e009000014878002e0090000000e80020
:10279400200798003e0090004800de00804078004a
:1027a4002e009000014878002e0090000000e80000
:1027b400200798002e0090001e4878002e009000fc
:1027c4000000e8002007980020c8bf00804078007f
:1027d40060a2200098fc070040c2b300a5fb0700dc
:1027e400004f78001e80fb00610060000000e000e4
:1027f40007003a009e80fb00000220000080600079
:102804000000e0000200320010ceb30001003700e7
:102814000040eb000080fa00000006000400fa000b
:10282400000f780011079800000420009e00780033
:10283400808f500008003a0020c1b3008dfb0700d0
:10284400804078000174a1001e00900001487800c7
:102854000040eb001a003700e00420009e007800de
:10286400808f500007003a0010c1b30081fb0700bd
:10287400e74060001e009000014878000040eb0033
:102884000f003700f00420009e007800808f500075
:102894000a003a0010c1b30076fb07000080fb0079
:1028a4004300de0000407800e34060001e0090001a
:1028b400014878000040eb000100370040cfb3002e
:1028c4000080fa00000006000600fa0010079800d5
:1028d400210798009e00900000042000808f500083
:1028e40010003a0020c1b30062fb070001c8b30026
:1028f400014f60002e009000104078008040780066
:102904000174a1001e40780000c07000004f7800e0
:102914009e40780020c1b30067fb07000040eb0035
:102924002a0037009e009000e0042000808f5000b1
:102934000f003a0010c1b3004efb070081cfb30073
:10294400014f60002e00900010407800e7406000c6
:102954001e40780000c07000004f78009e40780050
:1029640010c1b30054fb07000040eb001700370010
:102974009e009000f0042000808f500012003a0066
:1029840010c1b3003bfb070071ceb300014f6000e0
:102994002e009000104078000080fb00630060006f
:1029a4004300dd00804078001e40780000c07000c5
:1029b400004f78009e40780010c1b3003efb070032
:1029c4000040eb000100370040cfb3000080fa0064
:1029d400000006000600fa00404798004e409000b0
:1029e400e14f500002003a0083fb07001700370054
:1029f4008e0078000004200088ff07000e00e80025
:102a040080007800e004200084ff07000e80e800c6
:102a140080007800f004200080ff070081fb07009d
:102a24008e00780000042000a7ff07000e00e800d5
:102a340080007800e0042000a3ff07000e80e80077
:102a440080007800f00420009fff07000040eb00a6
:102a54000080fa00000006000600fa00004f78002b
:102a640011079800220798002e0090000000e00053
:102a740003003a0080c0b300b7fc07000b00370026
:102a84002e0090005ef907001568ef0060c0b300e7
:102a9400b1fc07000000000005c8bf000004e0000e
:102aa400fdff320080c0b300abfc07000040eb0028
:102ab4000080fa00000006000000fa00f0c2a9003d
:102ac400f4c2a80000e82300010020009a070700d0
:102ad40060c0b300e2f8070021f9070004e8b7007a
:102ae400f4c2a9000080fa00000006000200fa0007
:102af4000040eb00004f78001e80fb00c1ba2000ac
:102b040052c0b300827078001e4fe8001e80fb00a4
:102b14001140800001417800c1ba20008270780021
:102b24001e4fe8001e80fb0011408000c808de0034
:102b340001417800c1ba2000827078001e4fe8007d
:102b44001e80fb004280200012417800c1ba2000a0
:102b5400827078001e4fe8001e4178001182200028
:102b6400824878000080fa00000006000800fa009d
:102b74000040eb00004f7800270037001e80fb0068
:102b84004200dd009e80fb00c208dd0022512800c7
:102b940062c1780021c22000827078001e80fb0090
:102ba4004200dd000000e8009e80fb00c208dd005a
:102bb4008100e8002251280062c1780021c220006f
:102bc400827078001e80fb004200dd000080e80077
:102bd4009e80fb00c208dd008180e80022512800ad
:102be40062c1780021c22000827078001e80fb0040
:102bf4004200dd00630040009e80fb00c208dd004f
:102c0400e38040002251280062c1780021c22000e4
:102c1400827078001e4fe8001e407800e34f500099
:102c2400d6ff3600740037000040eb0010479800d0
:102c34000f0037001e4090000080fb009e80fb00c8
:102c44008100e9004209dd009e4090008180fb0084
:102c54008100410022c22000e2c078000000470049
:102c6400314098001e4090000040e8001047980052
:102c74001e409000e34f5000eeff36009e40780067
:102c840063c060000004e00028003a00be409000e9
:102c9400214798004e409000304798005e409000d5
:102ca400404798006e40900050479800ae40900016
:102cb400614798003e4090000080fb0021312800cd
:102cc40061407800304798004e4090000080fb003f
:102cd4002131280061407800404798005e40900010
:102ce4000080fb00213128006140780050479800a3
:102cf4006e4090000080fb00213128006140780084
:102d040060479800be4090001e80fb004200de0039
:102d1400004078000080fb000000e90022cd200084
:102d24006240780000c06800304798001e80fb00b5
:102d34004200dd009e80fb00e4805000c208dd00fc
:102d440022c2200062c17800be40900001416900a7
:102d540021c22000827078001e80fb004200dd004a
:102d64000000e8009e80fb00e4805000c208dd0003
:102d74008100e80022c2200062c17800ce409000a9
:102d84000141690021c22000827078001e80fb008e
:102d94004200dd000080e8009e80fb00e4805000db
:102da400c208dd008180e80022c2200062c17800f0
:102db400de4090000141690021c220008270780049
:102dc4001e80fb004200dd00630040009e80fb008b
:102dd400e4805000c208dd00e380400022c22000ed
:102de40062c17800ee4090000141690021c22000d8
:102df400827078001e4fe800b0c2b3009e40780095
:102e040080cf500088ff36000080fa0000000600e2
:102e14000400fa00204798000040eb00004f7800bf
:102e2400250037000040eb00104798001e003700d3
:102e3400224180001e4090008081fb001e80fb0028
:102e4400244180009e4090008182fb009e80fb0014
:102e5400c22add008180420064c27800ae40900046
:102e64008180fb00c20add009e80fb00818042005d
:102e7400c20add009e4090008180fb0081804200f8
:102e840025c22000e5c0780081406a00c219dd0037
:102e94000080410000004100014878001e4090007d
:102ea4000040e800104798001e409000e34f500097
:102eb400dfff36001e4fe8001e407800e34f50004d
:102ec400d8ff36000080fa00000006000200fa0075
:102ed4000040eb00004f78001c0037000040eb007e
:102ee4001047980015003700224180009e81fb00a6
:102ef4001e4090000080fb00244180009e82fb0065
:102f04009e4090008180fb00c22add008180420047
:102f1400e4c078008180fb0024412800e4c07800ec
:102f2400c219dd0000804100000041000148780022
:102f34001e4090000040e800104798001e4090009a
:102f4400e34f5000e8ff36001e4fe8001e407800b3
:102f5400e34f5000e1ff36000080fa000000060055
:102f64000200fa0020418000c0409000014f780028
:102f74002041800021418000f140900041409800b0
:102f84002041800021418000e14090007140980080
:102f94002041800021418000d14090006140980090
:102fa400204180009e4078005140980020418000dc
:102fb40080489000014f780020418000214180002a
:102fc400a148900001489800204180009e4078006c
:102fd400214898002041800090489000014f7800db
:102fe4002041800021418000b148900011489800a0
:102ff400204180009e4078003148980020418000a4
:10300400c0489000014f7800204180002141800099
:10301400d14890004148980020418000214180001f
:10302400e1489000514898002041800021418000ef
:10303400f148900061489800204180009e4078004b
:10304400714898000080fa00000006000200fa00af
:10305400004f78001e80fb00000040000041780013
:103064001e80fb004700de00004078007b00b900b2
:103074000000780000407800004069000080fa00f9
:10308400000006000200fa00889fbe00004f78008e
:10309400114798001e409000614060009e80fb0034
:1030a4000088b900000078000040780000447800ef
:1030b4001e4090000080fb000000d100004078001a
:1030c400e14460001e407800e0ff07000080fb0040
:1030d4000980b900000078000040780000446c00ca
:1030e4001e4090000080fb004200de00004078009b
:1030f400e14460001e407800d4ff0700d3ff0700be
:103104000080fb000980b9000000780000407800ce
:1031140000446c001e4090000080fb004300de0071
:1031240000407800e14460001e407800c7ff0700bb
:10313400c6ff0700c5ff07000080fb000980b90037
:10314400000078000040780000446c001e409000ad
:103154000080fb004400de0000407800e144600091
:103164001e407800b9ff0700b8ff0700b7ff07004b
:10317400b6ff07000080fb000980b900000078005a
:103184000040780000406c004f04be000080fa004c
:10319400000006000600fa00889fbe000000eb0055
:1031a400000f780063003700204180001e004000bb
:1031b4009040780021479800214180001e0178004a
:1031c4006400410061417800324798002141800049
:1031d4001e01780068004100614178004247980070
:1031e400214180001e0178006c004100614178009b
:1031f4005247980029418000e1c0b3002e4090005e
:10320400a0ff070000447800b1c0b3003e40900026
:103214009cff070000446c00d1c0b3004e409000f6
:1032240098ff070000446c0091c0b3005e4090001a
:1032340094ff070080406c001e8044000148780021
:103244002941800091c0b3002e4090008dff0700fb
:1032540000447800e1c0b3003e40900089ff0700bd
:1032640000446c00b1c0b3004e40900085ff0700dd
:1032740000446c00d1c0b3005e40900081ff0700a1
:1032840080406c001e8044006400400001487800c7
:1032940029418000d1c0b3002e40900079ff07007f
:1032a4000044780091c0b3003e40900075ff0700d1
:1032b40000446c00e1c0b3004e40900071ff070071
:1032c40000446c00b1c0b3005e4090006dff070085
:1032d40080406c001e804400680040000148780073
:1032e40029418000b1c0b3002e40900065ff070063
:1032f40000447800d1c0b3003e40900061ff070055
:1033040000446c0091c0b3004e4090005dff070084
:1033140000446c00e1c0b3005e40900059ff070018
:1033240080406c001e8044006c004000014878001e
:103334001e0fe8001e007800e30f50009aff3400cf
:103344004f04be000080fa00000006000200fa00ec
:10335400a0c0b300aefe070090c0b300004f7800d9
:1033640006003700fefe0700d8fe07001e40780066
:10337400a7fe070087ff07001e4fe9001e407800e4
:103384000004e000f7ff3a00f5fe0700cffe070057
:103394000040eb009efe07000080fa0000000600db
:1033a4000600fa00881f780000a026008101200092
:1033b400610507002ef60700e4a2a80000a026007d
:1033c400810120005c050700e4a2a90000a02600fa
:1033d4008101200058050700e4c2a80000a02600cf
:1033e4008101200054050700e4c2a90000a02600c2
:1033f4008101200050050700e4e2a80000a0260097
:10340400810120004c050700e4e2a90000a0260089
:103414008101200048050700e4f90700fafa0700d3
:103424008660a9009660a8000040eb004047980021
:103434004e4090000080fb006182200072c5b30002
:10344400827078004e4090000040e80040479800a9
:103454004e4090000080fb006182200052c6b30001
:10346400827078004e4090000040e8004047980089
:103474004e4090000080fb0061822000c2c6b30071
:10348400827078004e4090000040e8004047980069
:103494004e4090000080fb006182200032c6b300e1
:1034a400827078004e4090000040e8004047980049
:1034b4004e4090000080fb0061822000f2c6b30001
:1034c400827078004e4090000040e8004047980029
:1034d4004e4090000080fb0061822000d2c6b30001
:1034e400827078004e4090000040e8004047980009
:1034f4004e4090000080fb006182200052c6b30061
:10350400827078004e4090000040e80040479800e8
:103514004e4090000080fb006182200002c2b30094
:10352400827078004e4090000040e80040479800c8
:103534004e4090000080fb006182200042c7b3002f
:10354400827078004e4090000040e80040479800a8
:103554004e4090000080fb0061822000f2c6b30060
:10356400827078004e4090000040e8004047980088
:103574004e4090000080fb006182200002c2b30034
:10358400827078004e4090000040e8004047980068
:103594004e4090000080fb006182200002c5b30011
:1035a400827078004e4090000040e8004047980048
:1035b4004e4090000080fb006182200012c4b300e2
:1035c400827078004e4090000040e8004047980028
:1035d4004e4090000080fb006182200002c7b300cf
:1035e400827078004e4090000040e8004047980008
:1035f4004e4090000080fb006182200002c2b300b4
:10360400827078004e4090000040e80040479800e7
:103614004e4090008080fb006082200000804000cb
:103624008041eb0042c0b30080007800100020000d
:10363400d20307004e409000644040004047980089
:103644004e4090000080fb0061822000a2c0b300c5
:10365400827078004e4090000040e8004047980097
:103664004e4090000080fb0061822000d2c0b30075
:10367400827078004e4090000040e8004047980077
:103684004e41900061802000824878000768ef0076
:1036940065f607000000000009c8bf000004e00050
:1036a400fdff3200010037000000000015c8bf0014
:1036b400e14f5000fcff3a001568ef00e4c2a80097
:1036c40041c0b30090c3b300fbf7070000302000f3
:1036d4000af8070012e8b7000040eb00004f78003a
:1036e400070037001e84fb001e80fb001030b00072
:1036f40002f8070061a2200080707c001e4fe800e1
:103704009e80fb0012c8bf000080fb000080e80020
:10371400808f5000f3ff35008040eb0090c3b3006e
:10372400e5f707000040eb00404798004e4090004a
:103734008080fb00608220008080400010a3200075
:10374400104078000080fb0013c0b30022c0b30017
:103754008a0307004e40900000c0e80040479800ec
:103764004e4090008080fb006082200080804000fa
:1037740000a32000104078000080fb0013c0b300b9
:1037840022c0b3007d0307004e40900000c0e80053
:10379400404798004e4090000080fb00618220006a
:1037a40002c2b300827078004e4090000040e800ee
:1037b400404798004e4090008080fb0060822000cb
:1037c40080804000e0a22000104078000080fb00d0
:1037d40013c0b30022c0b300680307004e4090003a
:1037e40000c0e800404798004e4090008080fb00f5
:1037f4006082200080804000d0a220001040780029
:103804000080fb0013c0b30022c0b3005b030700b9
:103814004e40900000c0e800404798004e409000a1
:103824000080fb006182200002c2b3008270780035
:103834004e4090000040e800404798004e40900001
:103844008080fb00608220008080400080a22000f5
:10385400104078000080fb0013c0b30022c0b30006
:10386400460307004e40900000c0e800404798001f
:103874004e4090000080fb006182200002c2b30031
:10388400827078004e4090000040e8004047980065
:103894004e4090008080fb006082200080804000c9
:1038a400f0a22000104078000080fb0013c0b30099
:1038b40022c0b300310307004e40900000c0e8006e
:1038c400404798004e4090000080fb006182200039
:1038d40002c2b300827078004e4090000040e800bd
:1038e400404798004e4090008080fb00608220009a
:1038f4008080400020a32000104078000080fb005e
:1039040013c0b30022c0b3001c0307004e40900054
:1039140000c0e800404798004e4090000080fb0043
:103924006182200002c2b300827078004e40900091
:103934000040e800404798004e4090008080fb0023
:10394400608220008080400040a320001040780066
:103954000080fb0013c0b30022c0b30007030700bc
:103964004e40900000c0e800404798004e40900050
:103974008080fb00608220008080400030a3200013
:10398400104078000080fb0013c0b30022c0b300d5
:10399400fa0207004e40900000c0e800404798003b
:1039a4004e4090000080fb006182200002c2b30000
:1039b400827078004e4090000040e8004047980034
:1039c4004e4090008080fb00608220008080400098
:1039d40050a32000104078000080fb008041eb00e1
:1039e40022c0b300e50207004e40900000c0e8008a
:1039f400404798004e4090000080fb006182200008
:103a040002c2b300827078004e4090000040e8008b
:103a1400404798004e4090008080fb006082200068
:103a24008080400070a32000104078000080fb00dc
:103a340013c0b30022c0b300d00207004e40900070
:103a440000c0e800404798004e4090008080fb0092
:103a5400608220008080400060a320001040780035
:103a64000080fb0013c0b30022c0b300c3020700f0
:103a74004e40900000c0e800404798004e4090003f
:103a84000080fb006182200002c2b30082707800d3
:103a94004e4090000040e800404798004e4090009f
:103aa4008080fb00608220008080400090a3200082
:103ab400104078000080fb0013c0b30022c0b300a4
:103ac400ae0207004e40900000c0e8004047980056
:103ad4004e4090008080fb00608220008080400087
:103ae40080a32000104078000080fb0013c0b300c6
:103af40022c0b300a10207004e40900000c0e800bd
:103b0400404798004e4090000080fb0061822000f6
:103b140002c2b300827078004e4090000040e8007a
:103b2400404798004e4090008080fb006082200057
:103b340080804000b0a32000104078000080fb008b
:103b440013c0b30022c0b3008c0207004e409000a3
:103b540000c0e800404798004e4090008080fb0081
:103b64006082200080804000a0a3200010407800e4
:103b74000080fb0013c0b30022c0b3007f02070023
:103b84004e40900000c0e800404798004e4090002e
:103b94000080fb006182200002c2b30082707800c2
:103ba4004e4090000040e800404798004e4090008e
:103bb4008080fb006082200080804000e0a3200021
:103bc400104078000080fb0013c0b30022c0b30093
:103bd4006a0207004e40900000c0e8004047980089
:103be4004e4090000080fb006182200002c2b300be
:103bf400827078004e4090000040e80040479800f2
:103c04004e4090008080fb00608220008080400055
:103c1400f0a32000104078000080fb0013c0b30024
:103c240022c0b300550207004e40900000c0e800d7
:103c3400404798004e4090000080fb0061822000c5
:103c440002c2b300827078004e4090000040e80049
:103c5400404798004e4090008080fb006082200026
:103c640080804000c0a32000104078000080fb004a
:103c740013c0b30022c0b300400207004e409000be
:103c840000c0e800404798004e4090008080fb0050
:103c94006082200080804000d0a320001040780083
:103ca4000080fb0013c0b30022c0b300330207003e
:103cb4004e40900000c0e800404798004e409000fd
:103cc4000080fb006182200002c2b3008270780091
:103cd4004e4090000040e800404798004e4090005d
:103ce4000080fb0061822000a2c0b30082707800d3
:103cf4004e4090000040e800404798004e4090003d
:103d04000080fb0061822000d2c0b3008270780082
:103d14004e4090000040e800404798000768ef00dc
:103d24004e4190006180200082487800bef4070074
:103d34000000000009c8bf000004e000fdff3200dd
:103d44008afb070090c0b300304798000040eb00a6
:103d5400204798001c0037000040eb0010479800f3
:103d640013003700224180001e4090008081fb0038
:103d74002e4090000080fb00be4090008180fb003c
:103d840064a22000e4c07800c219dd000080410074
:103d940000004100014878003e4090000040e800e7
:103da400304798001e4090000040e80010479800fb
:103db4001e409000e34f5000eaff36002e40900072
:103dc4000040e800204798002e409000e34f500048
:103dd400e1ff36005dfd070090c0b3003047980056
:103de4000040eb00204798001b0037000040eb0028
:103df40010479800120037003e4090000080fb00fe
:103e0400224180009e4090008181fb00ae409000e2
:103e14008180fb00c219dd008180410062c178000d
:103e240061a22000827078003e4090000040e800cb
:103e3400304798001e4090000040e800104798006a
:103e44001e409000e34f5000ebff36002e409000e0
:103e54000040e800204798002e409000e34f5000b7
:103e6400e2ff36000040eb00404798004e409000cf
:103e74008080fb00608220008080400010a320002e
:103e8400104078000080fb0013c0b30022c0b300d0
:103e9400ba0107004e40900000c0e8004047980077
:103ea4004e4090008080fb006082200080804000b3
:103eb40000a32000104078000080fb0013c0b30072
:103ec40022c0b300ad0107004e40900000c0e800de
:103ed400404798004e4090000080fb006182200023
:103ee40002c2b300827078004e4090000040e800a7
:103ef400404798004e4090008080fb006082200084
:103f040080804000e0a22000104078000080fb0088
:103f140013c0b30022c0b300980107004e409000c4
:103f240000c0e800404798004e4090008080fb00ad
:103f34006082200080804000d0a2200010407800e1
:103f44000080fb0013c0b30022c0b3008b01070044
:103f54004e40900000c0e800404798004e4090005a
:103f64000080fb006182200002c2b30082707800ee
:103f74004e4090000040e800404798004e409000ba
:103f84008080fb00608220008080400080a22000ae
:103f9400104078000080fb0013c0b30022c0b300bf
:103fa400760107004e40900000c0e80040479800aa
:103fb4004e4090000080fb006182200002c2b300ea
:103fc400827078004e4090000040e800404798001e
:103fd4004e4090008080fb00608220008080400082
:103fe400f0a22000104078000080fb0013c0b30052
:103ff40022c0b300610107004e40900000c0e800f9
:10400400404798004e4090000080fb0061822000f1
:1040140002c2b300827078004e4090000040e80075
:10402400404798004e4090008080fb006082200052
:104034008080400020a32000104078000080fb0016
:1040440013c0b30022c0b3004c0107004e409000df
:1040540000c0e800404798004e4090000080fb00fc
:104064006182200002c2b300827078004e4090004a
:104074000040e800404798004e4090008080fb00dc
:10408400608220008080400040a32000104078001f
:104094000080fb0013c0b30022c0b3003701070047
:1040a4004e40900000c0e800404798004e40900009
:1040b4008080fb00608220008080400030a32000cc
:1040c400104078000080fb0013c0b30022c0b3008e
:1040d4002a0107004e40900000c0e80040479800c5
:1040e4004e4090000080fb006182200002c2b300b9
:1040f400827078004e4090000040e80040479800ed
:104104004e4090008080fb00608220008080400050
:1041140050a32000104078000080fb008041eb0099
:1041240022c0b300150107004e40900000c0e80013
:10413400404798004e4090000080fb0061822000c0
:1041440002c2b300827078004e4090000040e80044
:10415400404798004e4090008080fb006082200021
:104164008080400070a32000104078000080fb0095
:1041740013c0b30022c0b300000107004e409000fa
:1041840000c0e800404798004e4090008080fb004b
:10419400608220008080400060a3200010407800ee
:1041a4000080fb0013c0b30022c0b300f30007007b
:1041b4004e40900000c0e800404798004e409000f8
:1041c4000080fb006182200002c2b300827078008c
:1041d4004e4090000040e800404798004e40900058
:1041e4008080fb00608220008080400090a320003b
:1041f400104078000080fb0013c0b30022c0b3005d
:10420400de0007004e40900000c0e80040479800e0
:104214004e4090008080fb0060822000808040003f
:1042240080a32000104078000080fb0013c0b3007e
:1042340022c0b300d10007004e40900000c0e80047
:10424400404798004e4090000080fb0061822000af
:1042540002c2b300827078004e4090000040e80033
:10426400404798004e4090008080fb006082200010
:1042740080804000b0a32000104078000080fb0044
:1042840013c0b30022c0b300bc0007004e4090002e
:1042940000c0e800404798004e4090008080fb003a
:1042a4006082200080804000a0a32000104078009d
:1042b4000080fb0013c0b30022c0b300af000700ae
:1042c4004e40900000c0e800404798004e409000e7
:1042d4000080fb006182200002c2b300827078007b
:1042e4004e4090000040e800404798004e40900047
:1042f4008080fb006082200080804000e0a32000da
:10430400104078000080fb0013c0b30022c0b3004b
:104314009a0007004e40900000c0e8004047980013
:104324004e4090000080fb006182200002c2b30076
:10433400827078004e4090000040e80040479800aa
:104344004e4090008080fb0060822000808040000e
:10435400f0a32000104078000080fb0013c0b300dd
:1043640022c0b300850007004e40900000c0e80062
:10437400404798004e4090000080fb00618220007e
:1043840002c2b300827078004e4090000040e80002
:10439400404798004e4090008080fb0060822000df
:1043a40080804000c0a32000104078000080fb0003
:1043b40013c0b30022c0b300700007004e40900049
:1043c40000c0e800404798004e4090008080fb0009
:1043d4006082200080804000d0a32000104078003c
:1043e4000080fb0013c0b30022c0b30063000700c9
:1043f4004e40900000c0e800404798004e409000b6
:104404000080fb006182200002c2b3008270780049
:104414004e4090000040e800404798004e40900015
:104424000080fb0061822000a2c0b300827078008b
:104434004e4090000040e800404798004e409000f5
:104444000080fb0061822000a2c0b300827078006b
:104454004e4090000040e800404798004e409000d5
:104464000080fb0061822000a2c0b300827078004b
:104474004e4090000040e800404798004e409000b5
:104484000080fb0061822000a2c0b300827078002b
:104494004e4090000040e800404798004e40900095
:1044a4000080fb0061822000d2c0b30082707800db
:1044b4004e4090000040e800404798000768ef0035
:1044c4004e4190006180200082487800d6f20700b7
:1044d4000000000009c8bf000004e000fdff320036
:1044e40060a22000104078000080fb00670060009c
:1044f400e10f50001f00320060a22000104078003d
:104504000080fb0067006000e30f500019003a00d0
:1045140070a22000104078000080fb006c00600056
:104524004280de00e20f500006003a0070a3200033
:1045340010407800e14f50000e003a00d3f7070016
:104544000c00370070a22000104078000080fb00af
:104554006c0060004280de00e30f500005003a006a
:10456400d0a3200010407800e14f500001003a0031
:10457400c6f70700e4c2a9004cfc37000600fa00a5
:10458400000f78001107980042479800534798009d
:104594005e4090000004e000500032004e40900065
:1045a4000080fb00e20f500029003200e20f5000af
:1045b40003003c00e10f500038003200c200370015
:1045c400e30f50000f003200e40f5000bb003a002c
:1045d4009e007800803e2000000178001100090050
:1045e4008280d8000040780002c3b30082404000bb
:1045f4001e009000014878001e0090000000e800b2
:10460400100798009e007800803e2000000178008a
:10461400110009008280d8008000fd00800078002d
:104624004006200000017800110009008280d800b3
:104634000040780002c3b300824040001e00900096
:10464400014878001e0090000000e8001007980060
:104654009e00780040062000000178001100090047
:104664008280d8008000fd0080007800a000200037
:1046740000017800110009008280d8000040780011
:1046840002c3b300824040001e009000014878003d
:104694001e0090000000e800100798009e007800bb
:1046a400a000200000017800110009008280d800d9
:1046b4008000fd000040780002c3b3008240400047
:1046c4001e009000014878001e0090000000e800e1
:1046d40010079800000000007b0037004e40900057
:1046e4000080fb00e20f50003e003200e20f500059
:1046f40003003c00e10f5000560032007200370006
:10470400e30f50001b003200e40f50006d003a002c
:104714001e0078004c00de00e90f50000b003e0044
:104724001e0078004c00de000040780002c3b30095
:10473400824040001e009000014878001e00900056
:104744000000e800100798000a0037001e007800f7
:104754004c00de000040780072c3b3008240400089
:104764001e009000014878001e0090000000e80040
:10477400100798001e0078004800de006f006000fb
:10478400e90f50000c003e001e0078004800de00d7
:10479400004078006f40600002c3b30082404000d4
:1047a4001e009000014878001e0090000000e80000
:1047b400100798000b0037001e0078004800de0048
:1047c400004078006f40600072c3b3008240400034
:1047d4001e009000014878001e0090000000e800d0
:1047e400100798001e0078004400de006f0060008f
:1047f400e90f50000c003e001e0078004400de006b
:10480400004078006f40600002c3b3008240400063
:104814001e009000014878001e0090000000e8008f
:10482400100798000b0037001e0078004400de00db
:10483400004078006f40600072c3b30082404000c3
:104844001e009000014878001e0090000000e8005f
:10485400100798009e0078006f806000e90f5000f8
:104864000b003e001e007800004078006f4060009e
:1048740002c3b300824040001e009000014878004b
:104884001e0090000000e800100798000e0037009a
:104894001e007800004078006f40600072c3b300cf
:1048a400824040001e009000014878001e009000e5
:1048b4000000e80010079800030037000000000023
:1048c40001003700000000000080fa00000006002c
:020000040000fa
:1048d400d20c00001a0000000200000001020400d3
:1048e4000810200040801b00366f720061636c006a
:1048f400652f610072636800697465006374000069
:1049040026080000ac0400000000000000080000bd
:104914002400000000000000240800000200000041
:1049240002000000120c0000ec0c00000600000065
:0849340000000000ba2480001d
:020000040000fa
:10493c00f03fb1000180b10006003500ee03090024
:10494c0000000000403fb1000180b100fbff3d00c2
:10495c001000b000203fb0000200350000800900bc
:08496c0000000000000006003d
:020000040000fa
:04497400000000003f
:020000040000fa
:020000040005f5
:0457f800fdf30000bd
:020000040000fa
:020000040005f5
:0457fc007f3d0000ed
:00000001FF
